:020000040800F2
:100000007047002065820008B1030008B3030008B0
:10001000B7030008BB030008BF030008000000008E
:10002000000000000000000000000000C303000802
:10003000C503000800000000C7030008C90300084A
:100040007F8200087F8200087F8200087F8200088C
:100050007F8200087F8200087F8200087F8200087C
:100060007F8200087F8200087F8200087F8200086C
:100070007F8200087F8200087F8200087F8200085C
:100080007F8200087F8200087F8200087F8200084C
:100090007F8200087F8200087F8200087F8200083C
:1000A0007F8200087F8200087F8200087F8200082C
:1000B0007F820008470700087F8200087F820008CF
:1000C0007F8200087F8200087F8200087F8200080C
:1000D0007F820008DB8100087924000827210008BE
:1000E0007F8200087F8200087F8200087F820008EC
:1000F0007F8200087F8200087F8200087F820008DC
:100100007F8200087F8200087F8200087F820008CB
:100110007F8200087F8200087F8200089D08000817
:100120007F8200087F8200087F8200087F820008AB
:1001300000F002F800F0A0F80AA090E8000C824459
:100140008344AAF10107DA4501D100F095F8AFF236
:10015000090EBAE80F0013F0010F18BFFB1A43F0A5
:10016000010318478C0E0100AC0E01000A4410F880
:10017000014B14F00F0508BF10F8015B240908BFFC
:1001800010F8014B6D1E05D010F8013B6D1E01F8F3
:10019000013BF9D1641E03D0641E01F8015BFBD161
:1001A0009142E4D37047000000230024002500267C
:1001B000103A28BF78C1FBD8520728BF30C148BFCA
:1001C0000B6070476E290AF08D8670290AF09384BF
:1001D00066290FF0848065290FF0818067290FF070
:1001E0007E806129AFF3008003681B0A28BF41F0BD
:1001F000800169290AF0048464290AF001847529C0
:100200000AF0FE836F290BF0938178290AF05F844E
:10021000E9290BF02D81E4290BF02A81F5290BF057
:100220002781EF290BF09081F8290AF05E8403689A
:10023000DB0928BF41F0800163290BF09C80732902
:100240000BF0A180E3290BF0ED82F3290BF0F28291
:10025000002070471FB50BF049FA04000020002170
:100260000EF0B6F9401C6060002000210EF0C6F9C7
:10027000E0601FBD10B510BD0BF0C7FB1146FFF7C6
:10028000E9FF00F009F80BF037FE03B4FFF7F2FFC7
:1002900003BC07F047FF00004FF4A06008F002F82D
:1002A0009C21062001F048FB07F0D2FE642007F0F5
:1002B0000CFF0121402008F072FB4FF4E13007F001
:1002C00040FF41F61F4140F2E73000F011FA4FF4D1
:1002D000E13002F069F803F0FAFF012003F0D9FDE4
:1002E00001F014F900F062F900F084F902F000FA6C
:1002F0004FF4165001F036FB44E023480068012813
:1003000001D101F091FE2148007801281AD120483E
:100310000078012816D100201C49087003F069F804
:100320001C48007801280DD11B480078401C1A4950
:1003300008701A480078401C184908701648007860
:1003400001F027F915480078322801DD02F0D0F9D4
:1003500013480068012802D10020114908601148A3
:10036000007801280ED100200E4908700E48006860
:10037000C0430E49C1F898010846D0F89401C04323
:10038000C1F89401B9E700001800002050000020D7
:1003900051000020F8000020E2000020E1000020D1
:1003A0004C0000205300002098012342000023420B
:1003B000704700BFFEE700BFFEE700BFFEE700BFDB
:1003C000FEE7704770477047704700000CB500208B
:1003D000019000906C48006840F480306A490860E1
:1003E00000BF6948006800F4003000900198401C8C
:1003F0000190009818B90198B0F5A06FF1D162484A
:10040000006800F4003010B10120009001E00020ED
:1004100000900098012843D15C48006840F010002B
:100420005A4908600846006820F003000860084642
:10043000006840F002000860534840685249486034
:100440000846406848600846406840F4806048605C
:100450000846406820F47C1048600846406840F434
:10046000E81048600846006840F08070086000BFEF
:100470004548006800F000700028F9D04248406804
:1004800020F00300404948600846406840F0020000
:10049000486000BF3C48406800F00C000828F9D1D3
:1004A0000CBD10B5FFF792FF10BD10B536480068BF
:1004B00040F001003449086008464068344908406B
:1004C0003149486008460068324908402E490860B2
:1004D0000846006820F4802008600846406820F440
:1004E000FE0048604FF41F008860FFF7DAFF4FF00E
:1004F00000602949086010BD10B5002100200022CD
:10050000214B5B6803F00C0121B1042906D00829B6
:1005100028D107E0214B224C236027E01F4B204CC1
:10052000236023E0184B5B6803F47010164B5B6884
:1005300003F48032022303EB904022B9194B43436A
:10054000174C23600DE0104B5B6803F4003323B1BC
:10055000144B4343124C236003E0104B4343104CB5
:10056000236003E00D4B0E4C236000BF00BF064B21
:100570005B68C3F303130C4CE15C094B1B68CB4075
:10058000074C236010BD0000001002400020024014
:100590000000FFF8FFFFF6FE08ED00E000127A0011
:1005A0000000002000093D000400002008B50121E2
:1005B000402008F001FA2020ADF8000010208DF84E
:1005C000030003208DF802006946094807F038FF50
:1005D0002021074807F0E1FF4020ADF80000694600
:1005E000034807F02DFF4021014807F0D6FF08BD62
:1005F0000018014008B50121442008F0DDF91C2055
:10060000ADF8000048208DF803006946354807F032
:1006100017FF0120ADF8000028208DF8030069467F
:10062000314807F00DFF08BD10B5044614B1012094
:100630002E4908702D480078002837D0102129480D
:1006400007F091FF78B10821264807F08CFF50B1E0
:100650000421244807F087FF28B10121224807F030
:1006600082FF012822D10A2007F02FFD00201F4918
:10067000087010211B4807F076FF08B9012010BD53
:100680000821184807F06FFF08B90220F7E7042196
:10069000144807F068FF08B90320F0E70121124869
:1006A00007F061FF01281BD10420E8E710210D4865
:1006B00007F059FF012813D108210A4807F053FF1A
:1006C00001280DD10421074807F04DFF012807D16B
:1006D0000121054807F047FF10B9012003490870C0
:1006E0000020CCE700180140000801401400002061
:1006F0007FB505460C460121022008F06AF9ADF8E5
:100700000850ADF804400020ADF80A00ADF806002E
:1007100001A9834808F08CFC01221146804808F0AA
:10072000FEFF1D208DF8000001208DF801008DF8DE
:1007300002008DF80300684607F0B9FD01217848F2
:1007400008F0D2FF7FBD7FB50121754809F095FA09
:1007500000287DD00121724809F0A0FA7148006894
:10076000401C704908607048007808B901F0F6F83C
:100770006E480078062804D2DFE800F00304058EF6
:10078000060789E088E087E086E0664800680A217D
:10079000B0FBF1F201FB120010B9012064490870AE
:1007A0006448007880B964480078401C6249087049
:1007B000084600784FF4967190FBF1F201FB1200AD
:1007C00010B901205B490870564800686421B0FBED
:1007D000F1F201FB120000284AD1584800780128A4
:1007E00046D10020554908704E4800680F21B0FBE3
:1007F000F1F201FB1200002837D15149514801F0B4
:1008000005FC4F4803C8CDE900014E480CC84EA076
:100810000AF084F84A4803C8CDE90201494803C8F0
:10082000CDE90001504851490CC803C900F012FD40
:10083000044600224E4B0EF03DFA4E4A03C24D488C
:100840000CC84DA00AF06AF83E48D0E9001000E05C
:1008500023E0464AC2E900103948D0E90010424A74
:10086000C2E9001001204B49086000204A49086095
:100870004A48007878B94A480068401C48490860EE
:10088000084600686421B0FBF1F201FB120010B9C8
:1008900001204249087000BF00BF7FBD10B5012193
:1008A000404809F0EAF968B13F48008840F4004048
:1008B0003D49088001213B4809F0F0F90021394801
:1008C00008F012FF10BD7FB505460C46012120201F
:1008D00008F07FF8ADF80450ADF800400020ADF806
:1008E0000600ADF8020069462E4808F0A1FB01227F
:1008F00011462C4808F013FF01212A4808F0F4FEA5
:1009000037208DF80C0000208DF80D008DF80E00BA
:1009100001208DF80F0003A807F0C9FC7FBD00007F
:10092000000400405400002044000020E3000020A8
:10093000530000205000002058000020C900002073
:100940002800002020000020C2CBB2A8BAF3B5C412
:10095000B0D9B6C8B5D8CDBCCEB3B6C825662CBE06
:10096000ADB6C825660D0A00380000203000002012
:1009700000408F40D80000200D0AC1BDB4CEC9CFC1
:10098000B4ABB5C4BEE0C0EBCEAA256C666D0D0A53
:10099000000000001800002040000020520000204D
:1009A0005C00002000140040781F00202DE9F04179
:1009B00004460D46FE480CC8204629460EF07AF93A
:1009C00006460022FB4B0DF01DFFBDE8F0812DE92E
:1009D000F04F91B006460F4614461D463046394644
:1009E0000EF0A4F81090002801DB109901E0109996
:1009F000494208460EF0F7F8CDE90A010DF0C2FDB4
:100A0000ED4AEE4BCDE90C010EF054F9EA4AEC4BFD
:100A1000CDE90E01304639460EF04CF922462B4600
:100A2000CDE908010EF046F922462B46CDE90C012E
:100A3000E148E2490EF03EF922462B46CDE9040199
:100A40000EF038F922462B46CDE908010020DD4999
:100A50000EF030F900224FF08043CDE9040130461A
:100A600039460EF027F90022D74BCDE900010DF0F1
:100A70000DFECDE90201DDE904230DF007FECDE90D
:100A80000601DDE908230DF001FECDE90A01DDE9EB
:100A90000C230DF0FBFD8246DDE90E230DF0F6FD83
:100AA0008046894600224FF08043304639460EF09A
:100AB00001F98246BE480CC850460EF0FBF8CDE95D
:100AC00002010DF00FFD0022C04BCDE904010EF034
:100AD000F1F80022BE4BCDE90801304639460EF050
:100AE000E9F88246B2480CC850460EF0E3F8CDE96A
:100AF00002010DF0F7FC0022B44BCDE904010EF029
:100B0000D9F8CDE90601DDE908230DF0BFFD00228B
:100B10004FF08043CDE90A010EF0CCF80022A94B3A
:100B2000CDE90C010DF06EFE42464B46CDE90E01BB
:100B30000DF0ACFD804689460022A24B2046294696
:100B40000DF060FE82469A480CC850460EF0B2F88E
:100B5000CDE902010DF0C6FC00229E4BCDE9040157
:100B60000EF0A8F8CDE9080191480CC820462946A6
:100B70000EF0A0F8CDE904010DF0B4FC824600228D
:100B8000924B0EF097F8CDE90601DDE908230DF050
:100B90007DFD00224FF08043CDE90A010EF08AF876
:100BA0000022884BCDE90C010DF02CFE42464B464D
:100BB000CDE90E010DF06AFD804689467C480CC8DF
:100BC000204629460EF076F80022834BCDE902013B
:100BD0000DF018FE82460DF085FC00227F4BCDE91A
:100BE00004010EF067F800227D4BCDE90801204694
:100BF00029460DF007FECDE902016D480CC80298A8
:100C00000EF058F882460DF06DFC0022754BCDE9D0
:100C100004010EF04FF8CDE90601DDE908230DF0DF
:100C200035FD00224FF08043CDE90A010EF042F875
:100C30000022644BCDE90C010DF0E4FD42464B4629
:100C4000CDE90E010DF022FD804689464046494619
:100C500011B0BDE8F08F2DE9F04F8FB004460D467E
:100C600092469B46204629460DF060FF0E900028D4
:100C700001DB0E9901E00E99494208460DF0B3FFE1
:100C8000CDE908010DF07EFC4B4A4D4BCDE90A0140
:100C90000EF010F8484A4A4BCDE90C01204629468F
:100CA0000EF008F852465B46CDE906010EF002F858
:100CB000414A434BCDE90A01204629460DF0FAFF8F
:100CC00022462B46CDE902010DF0F4FF52465B4669
:100CD000CDE9060100204FF080410DF0EBFF00222E
:100CE000414BCDE90201204629460DF0CFFCCDE96C
:100CF0000001DDE902230DF0C9FCCDE90401DDE9C5
:100D000006230DF0C3FCCDE90801DDE90A230DF04F
:100D1000BDFC8046DDE90C230DF0B8FC06460F460D
:100D200000224FF08043204629460DF0C3FF804645
:100D30001F480CC840460DF0BDFFCDE900010DF085
:100D4000D1FB0022214BCDE902010DF0B3FF0022BF
:100D50001F4BCDE90601204629460DF0ABFF80462A
:100D600013480CC840460DF0A5FFCDE900010DF079
:100D7000B9FB0022154BCDE902010DF09BFFCDE937
:100D80000401DDE906230DF081FC00224FF08043D1
:100D9000CDE908010DF08EFF00220A4BCDE90A01D2
:100DA0000DF030FD32463B46CDE90C011EE000005F
:100DB00060000020008066409A9999999999C93FEE
:100DC0009999B93F00000840000059C00000344024
:100DD000000018400000444000003E400000744005
:100DE000000028400000644000C072400DF04EFC3E
:100DF00006460F460022FE4B204629460DF002FD16
:100E0000CDE90001FB480CC800980DF053FF804667
:100E10000DF068FB0022F84BCDE902010DF04AFF0E
:100E2000CDE90601F3480CC8204629460DF042FFE3
:100E3000CDE902010DF056FB80460022EF4B0DF08C
:100E400039FFCDE90401DDE906230DF01FFC002286
:100E50004FF08043CDE908010DF02CFF0022E44B58
:100E6000CDE90A010DF0CEFC32463B46CDE90C013E
:100E70000DF00CFC06460F460022E14B20462946A9
:100E80000DF0C0FC8046DB480CC840460DF012FF58
:100E9000CDE900010DF026FB0022DA4BCDE902017D
:100EA0000DF008FF0022D84BCDE906012046294667
:100EB0000DF0A8FCCDE90001CE480CC800980DF05B
:100EC000F9FE80460DF00EFB0022D04BCDE9020169
:100ED0000DF0F0FECDE90401DDE906230DF0D6FBAF
:100EE00000224FF08043CDE908010DF0E3FE00221F
:100EF000BF4BCDE90A010DF085FC32463B46CDE9FA
:100F00000C010DF0C3FB06460F46304639460FB0C4
:100F1000BDE8F08F2DE9F04F93B004460D4616461C
:100F20001F460022BA4B204629460EF0E9F800225F
:100F3000B84BCDE90A01304639460EF0E1F8CDE96B
:100F40000801DDE90A23FFF742FD82468B460022B5
:100F5000AF4B204629460EF0D3F80022AD4BCDE929
:100F60000A01304639460EF0CBF8CDE90801DDE93B
:100F70000A23FFF770FECDE910010022A64B2046A0
:100F800029460DF03FFCCDE90A019A480CC80A98A1
:100F90000DF090FECDE90E01DDE90E010DF0A2FA93
:100FA0008046894642464B469C4903C90DF082FE65
:100FB00042464B46CDE908010DF07CFE0022984BDD
:100FC000CDE90A010DF0AAFF804689464046494610
:100FD0000DF0D8FACDE90C0140464946DDE90C2375
:100FE0000DF068FECDE904018C480CC800208C4946
:100FF0000EF086F8CDE900018A480CC800980DF083
:1010000059FECDE90201DDE904230DF0FBFBCDE93A
:10101000060178480CC806980DF04CFE00227E4B65
:10102000CDE90A01504659460DF044FECDE90801CC
:10103000DDE90A230DF0E6FB82468B46DDE90E0171
:101040000CF0B0FCCDE904017649DDE90C2303C9BD
:101050000DF0D8FBCDE90201DDE904230DF02AFEF5
:10106000CDE9060163480CC806980DF023FE002266
:10107000694BCDE90A01DDE910010DF01BFECDE958
:101080000801DDE90A230DF0BDFBCDE91001524650
:101090005B46204629460DF0F9FA1C9A03C23046F9
:1010A0003946DDE910230DF0F1FA1D9A03C213B0A1
:1010B000BDE8F08F2DE9F04F8FB004460D4616467F
:1010C0001F46B046B946A246AB4657480CC85046E4
:1010D00059460DF0EFFDCDE902010DF003FA534A38
:1010E000534BCDE904010DF0E5FD52465B46CDE9D9
:1010F0000801504659460DF0DDFD42464B46CDE90C
:101100000201404649460DF0D5FDCDE90001DDE97B
:1011100002230DF0BBFACDE904010DF033FACDE95D
:101120000601DDE908230DF0B1FACDE90C013E48D6
:101130000CC8404649460DF0BDFDCDE902010CF05A
:1011400031FC3C4A3C4BCDE904010DF0B3FD424675
:101150004B46CDE90801504659460CF04DFBCDE910
:101160000601DDE908230DF091FACDE90A01DDE978
:101170000A010CF017FCCDE90601DDE90C230DF0A6
:1011800099FD2E4A2E4BCDE908010DF07FFA199AF0
:1011900003C2DDE90A010DF0A5F9CDE90601DDE99B
:1011A0000C230DF087FD274A274BCDE908010DF0F0
:1011B0006DFA189A03C20FB0BDE8F08F2DE9FF5FFA
:1011C00004460D4616461F46DDE90EAB32463B4649
:1011D00020462946CDE900ABFFF79CFECDE900ABE8
:1011E000DBE90083DAE900014246CDE902012DE0A6
:1011F000000008406000002000004440000034402F
:1012000000003E4000C072400000284000C0624024
:101210000080414000405A40008066406800002045
:101220000000F03F7000002078000020F168E388A3
:10123000B5F8F43E54E41071732AC93E39B4C87647
:10124000BE9F7A3FFA7E6ABC7493783FFFF732FF05
:10125000BDE8FF9F2DE9F04F9BB006460F46924632
:101260009B4650485049CDE9180130463946FFF7B2
:101270009DFB80468946DDE92401FFF797FBCDE918
:10128000160140464946DDE916230DF039FFCDE948
:101290001401DDE92601FFF789FBCDE91001504675
:1012A0005946FFF783FBCDE90E01DDE910230DF070
:1012B00027FFCDE9120100224FF08043DDE9120142
:1012C0000DF0A0FACDE900010DF00CF900224FF06D
:1012D0008043CDE902010CF019FCCDE90601DDE9FE
:1012E00016010CF05FFBCDE90201404649460CF0C7
:1012F00059FBCDE90001DDE902230DF0DBFCCDE96E
:101300000401DDE906230DF0D5FC00224FF08043F7
:10131000CDE90A01DDE914010DF074FACDE904010B
:101320000DF0E0F800224FF08043CDE906010CF00B
:10133000EDFBCDE90801DDE90A230DF0A7F9CDE9C0
:101340000C010DF01FF9CDE90E010CF00DF8002293
:101350004FF08043CDE910010DF0ACFC04460D4682
:1013600020462946DDE918230DF0A4FC04460D466D
:1013700000220E4B204629460DF09CFCCDE90C01C5
:101380000DF004FC0F900DF045FC0022074BCDE959
:1013900010010DF037FA04460D46204629461BB0D1
:1013A000BDE8F08F8D976E1223EAB8400088C340E5
:1013B0000146088870472DE9F04105460E4617465C
:1013C000002407E036F81410284608F0D2FDAD1CC2
:1013D000601C84B2BC42F5DBBDE8F08130B5034649
:1013E0000C461546002207E01846FFF7E1FF24F8F7
:1013F00012009B1C501C82B2AA42F5DB30BD2DE9C5
:10140000F05F80468A461746B8F1006F02D3FB486A
:10141000804501D3BDE8F09F08F063FCA8F1006BA4
:101420004FEADB25CBF34909C9F58064A74200DC0C
:101430003C464DE04FF0006101EBC5204A14F049F5
:10144000FFF7CCFF00260BE009EB0600EC4931F872
:1014500010004FF6FF71884200D003E0701C86B286
:10146000A642F1DB00BFA6421BDA4FF0006101EBA0
:10147000C52008F07BFC002608E03AF8160006EBD1
:101480000901DF4A22F81100701C86B2A642F4DB83
:101490004FF0006101EBC5204A14D949FFF78BFFDB
:1014A00004E0224651464046FFF785FFA74200D19F
:1014B0000FE06D1C4FF000090AEB440AA044381BF2
:1014C00087B2B7F5806F02DD4FF4806400E03C46E0
:1014D000B0E700BF08F011FC00BF9BE713B504465E
:1014E000012201A92046FFF78AFF1CBD10B508F0B4
:1014F000D7FE0421C34808F0DCFEC2490861012080
:1015000048610C22C048FFF77AFF10BD10B50024D7
:101510000C22BC49BC48FFF761FFBA48406901286A
:1015200013D108F0BDFE0421B64808F0C2FE0446FF
:10153000B4480069A04205D1B2480068401CB149D6
:10154000086002E00020AF494861AE4840690128C8
:1015500008D00120AB490860002048608860C8605E
:1015600001204861FFF7C2FFA6480168A7A009F063
:10157000D5F9A4484168AAA009F0D0F9A14881682A
:10158000AEA009F0CBF99F48C168B2A009F0C6F936
:1015900010BD10B50446601CB54909784843B449EC
:1015A000097801EB4101B0EB410F09DCB049097842
:1015B000B04A04FB01205222AF49FFF720FF39E077
:1015C000052C0CDD0B2C0ADCA11FA94A1278AB4BB1
:1015D00001FB02305222A849FFF711FF2AE00B2C31
:1015E0000DDD112C0BDCA4F10C01A14A1278A44BE7
:1015F00001FB02305222A049FFF701FF1AE00B2C39
:101600000DDD112C0BDCA4F11201994A12789D4BCF
:1016100001FB023052229849FFF7F1FE0AE0A4F1E3
:101620001801934A1278984B01FB023052229249DA
:10163000FFF7E5FE95A009F071F9601CC4B21E2CFD
:1016400000DB002410BD10B50446601C88490978F1
:1016500048438749097801EB4101B0EB410F11DCA8
:1016600083490978834A04FB012052229049FFF7FD
:10167000B5FE00208E497E4A127888548DA009F06C
:101680004DF959E0052C14DD0B2C12DCA11F784A12
:1016900012787A4B01FB023052228549FFF79EFEF9
:1016A00000208349724A1278885482A009F036F9E2
:1016B00042E00B2C15DD112C13DCA4F10C016C4A5B
:1016C00012786F4B01FB023052227949FFF786FEF8
:1016D00000207749664A1278885476A009F01EF9EE
:1016E0002AE00B2C15DD112C13DCA4F11201604A49
:1016F0001278644B01FB023052226D49FFF76EFEF7
:1017000000206B495A4A127888546AA009F006F9F9
:1017100012E0A4F11801564A12785B4B01FB02302B
:1017200052226349FFF75AFE00206149504A12785D
:10173000885460A009F0F2F8601C44B21E2C00DB53
:10174000002410BD2DE9F04707468846B7F1006F29
:1017500002D32A48874201D3BDE8F08708F0C1FAD6
:10176000A7F1006A4FEADA24CAF34909C9F580658E
:10177000A84500DC454621E04FF0006101EBC420A4
:101780004A141F49FFF72AFE00260BE009EB06006A
:101790001B4931F810004FF6FF71884200D003E07A
:1017A000701C86B2AE42F1DB00BFAE4205DA4FF0EC
:1017B000006101EBC42008F0D9FA00E0DCE700BFCB
:1017C00008F09BFA00BFC7E72DE9F04706460F4631
:1017D000B6F1006F02D30948864201D3BDE8F08715
:1017E00008F07FFAA6F1006A4FEADA28CAF349093D
:1017F000C9F58064A74200DC3C4682E0000008088E
:1018000096020020601F002000040108C9E8B1B85A
:10181000C6F4B6AFB4CECAFDA3BA25640D0A000063
:10182000C9CFB4ABB7FECEF1C6F7CAA7B0DCB4CE11
:10183000CAFDA3BA25640D0A00000000706F73741E
:101840004572726F7254696D6573A3BA25640D0A8F
:1018500000000000475053B3ACCAB1CEB4B6A8CE16
:10186000BBB4CECAFDA3BA25640D0A0D0A00000060
:10187000D000002000EC0008F101002000F000087A
:1018800000F4000800F8000800FC0008CEB4C9CF3E
:10189000B4ABB3C9B9A6B5C4475053CAFDBEDDD277
:1018A000D1B1A3B4E6464C4153480D0A0D0A0000DD
:1018B0004C01002025730D0A000000004FF000616C
:1018C00001EBC8204A141249FFF788FD00250BE000
:1018D00009EB05000E4931F810004FF6FF71884200
:1018E00000D003E0681C85B2A542F1DB00BFA54231
:1018F00003DA08A009F012F804E00BA009F00EF8D2
:1019000000E0DBE700BF08F0F8F900BF66E7000081
:1019100096020020BCECD1E9B5C4464C415348B214
:10192000BBCEAABFD50D0A00BCECD1E9B5C4464C6C
:10193000415348BFD50D0A0070B505460C4645F227
:10194000555008F08DFC284608F08DFC204608F024
:101950008DFC08F08EFC08F091FC70BD10B508F00D
:1019600088FC10BD10B586B004460121082007F0A0
:1019700023F80121880407F02CF8FE4807F080F8CE
:101980004FF40060ADF8100004208DF8130004A996
:10199000F94806F055FD00940020ADF80400ADF8BC
:1019A0000600ADF80800ADF80C000420ADF80A0000
:1019B0006946F04807F0A7F80121EE4807F02FF933
:1019C000012240F22551EB4807F035F90122602150
:1019D000E84807F030F9002240F22771E54807F0A7
:1019E0002AF927208DF8140002208DF81500012017
:1019F0008DF816008DF8170005A806F058FC06B003
:101A000010BD0021DD4A1160DD4A1170DD4A1180F0
:101A1000002005E00021DC4A42F82010411CC8B239
:101A20001428F7DB7047D94800790830D749087186
:101A300008460079182879DB0846007918380871BB
:101A40000846C078401CC870084680780D287CD2B3
:101A5000DFE800F07B0744082709280A0B290C2A35
:101A60000D0000BF00BF00BF00BF00BF00BFC748E0
:101A7000C0781F2814DDC548C0781F38C349C87016
:101A800008468078401C8870084680780C2807DD5E
:101A9000084680780C38887008460088401C08800A
:101AA00053E000BF00BF00BFB848C0781E2814DD57
:101AB000B648C0781E38B549C87008468078401CC2
:101AC0008870084680780C2807DD084680780C3836
:101AD000887008460088401C088036E0AB490988B9
:101AE0004FF4C87291FBF2F302FB131181B1A749C5
:101AF0000888C11700EB91718910A0EB8101B1B981
:101B0000A2490988642291FBF2F302FB131171B11F
:101B10009E48C0781D2817DD9C48C0781D389B4919
:101B2000C87008468078401C88700DE00EE0974829
:101B3000C0781C2808DD9548C0781C389349C870C7
:101B400008468078401C887000BF00BF8F4800881E
:101B5000B0F5FC6F1BDD8D4880780C2803DD8B48C9
:101B60008078012813DB8948C0781F2803DD874867
:101B7000C07801280BDB85480079182807DC8348EA
:101B800040793C2803DC814880793C2807DD00202F
:101B90007E4908808870C8700871487188717047E4
:101BA00070472DE9F04F8BB0002400200990089079
:101BB000002681460025824607902C217448006843
:101BC00001F0E1F8099009980C287DD171A17048C5
:101BD000006809F0A4F8064670A16D48006809F095
:101BE0009EF88146A9EB0600089000BF03E0305D37
:101BF00080EA0A0A641C08988442F8D3102206A9D5
:101C000009F1010009F053F8C0B207900798504558
:101C10007ED163A008F082FE02215D48006801F0D9
:101C20009BF805466878412873D161A008F076FEDC
:101C300001215748006801F08FF805460622691C0B
:101C40005E4809F09DF800205C49887103215048E6
:101C5000006801F081F805460922691C584809F01E
:101C60008FF800205649487205214948006801F064
:101C700073F805460A22691C524809F081F80020D1
:101C80005049887209214248006801F065F805460C
:101C90000622691C4C4809F073F800204A498871F3
:101CA00047480BF069FE494A03C2484903C90CF092
:101CB0003DFF642190FBF1F000FB01FB58460CF066
:101CC00092FFCDE9000100E042E140480CC80098D5
:101CD0000DF024F9074600223D4B0CF093FDCDE9B1
:101CE00004013A4903C90CF021FF642190FBF1F78C
:101CF00038460CF078FFCDE90201DDE904230CF051
:101D0000C5FC324A03C22F480BF036FE314A01E0CF
:101D10001AE115E103C22F4903C90CF007FF642142
:101D200090FBF1F000FB01FB58460CF05CFFCDE9A5
:101D3000000128480CC800980DF0F0F80746002272
:101D4000234B0CF05FFDCDE90401224903C90CF0DF
:101D5000EDFE642190FBF1F738460CF044FFCDE92D
:101D60000201DDE904230CF091FC1A4A03C21A486F
:101D70001A4935E000480040000C01408C0000206A
:101D80009000002088000020541E0020980A0020A7
:101D9000940000204750524D430000002A000000EC
:101DA000CAFDBEDDD0A3D1E9B3C9B9A60D0A0000B2
:101DB00041B6A8CEBBD3D0D0A70D0A009800002012
:101DC000AF1E0020A41E00209F000020A8000020BD
:101DD00000004E40B8000020C0000020B0000020ED
:101DE000CDE90010A2F10800FE490CC803C9FFF7B5
:101DF000E5F90022FC4BFD4903C90CF01FFF14D389
:101E00000022FB4BF94903C90DF052F80DD3002213
:101E1000F84BF94903C90CF011FF06D30022F74B28
:101E2000F54903C90DF044F805D2F5A008F076FD98
:101E30000BB0BDE8F08FF74801780078401CF54AF8
:101E40001070B1B900240EE0EB48D0E90010F24A5E
:101E500002EBC402C2E90010E44903C9EF4A02EBF5
:101E6000C40203C2641C0A2CEED30120EC490870A2
:101E70001AE0E14903C9E84AE94B1B7802EBC302C7
:101E800003C2DA4903C9E54AE54B1B7802EBC302FA
:101E900003C2E3480078401CE14908700846007816
:101EA0000A2801DB00200870DE480079303800EB9A
:101EB00080004FF4FA6101EB4001DA484079303894
:101EC0000844D9490880D748C1788078303800EB79
:101ED000800001EB40003038D3498870D148417808
:101EE0000078303800EB800001EB40003038CE49FC
:101EF000C870CE4841780078303800EB800001EBA4
:101F000040003038C8490871C848C17880783038F6
:101F100000EB800001EB40003038C3494871C348F2
:101F200041790079303800EB800001EB4000303817
:101F3000BD498871FFF777FD0120BD4908700AE0AF
:101F4000BCA008F0EBFC06E0BEA008F0E7FC6FE7E1
:101F5000C0A008F0E3FC00BF6AE72DE9F04F87B0AE
:101F600082464FF0000B00BF00BF00BF002004906E
:101F70000590DAE902100C4605460E46074600BFFA
:101F800028E00AEBCB0103C932463B46CDE902010A
:101F90000CF054FE02D20AEBCB00C0C80AEBCB0116
:101FA00003C922462B46CDE902010CF081FF02D283
:101FB0000AEBCB0030C80AEBCB0003C8CDE9020125
:101FC000DDE904230CF062FBCDE904010BF1010013
:101FD00000F0FF0BBBF10A0FD3DB22462B46DDE9F5
:101FE00004010DF08DF832463B46CDE900010DF0BD
:101FF00087F800229B4BCDE902010CF003FC8046E0
:1020000089464046494607B0BDE8F08F70B50546A1
:102010000C468148FFF7A1FFC5E900017F48FFF7A3
:102020009CFFC4E9000170BD00B595B000208E4949
:1020300008708E480078C0B97B4880797A49497920
:10204000794A1279784BDB78CDE90032CDE902107C
:1020500075488378028886A11C3008F06BFC8348A1
:102060000078401C8149087058E06F4881794279B6
:1020700000796D4BDB78CDE90030CDE902216A486B
:10208000837802887AA1C01D08F054FC8048037848
:102090008048C0687F4989687E4A5268CDE9130349
:1020A000CDE911217B4800687B490A685E49C91D5A
:1020B000CDE90E121090794903C9CDE90C01784899
:1020C00003C8CDE90A01774803787248C26880687E
:1020D00070494968CDE90723CDE905106D480168CD
:1020E0006D48026850481C30CDE9032102906E48CB
:1020F00003C8CDE900016D486D490CC86D4808F072
:1021000019FC6D490870084601786CA008F006FCBF
:1021100001205549087000205449087000206D497D
:10212000086015B000BD10B540F225516A4806F0B0
:1021300067FE012852D140F22551674806F08AFE19
:10214000654806F0DDFDC1B2644802880088401C85
:10215000624B18806248815418460088801E60498E
:10216000085C0D2805D018460088401E085C0A2827
:1021700035D15A4800885B490968401A02282FD98E
:1021800057485849096808445749584A127841F84D
:102190002200002151480088801E514A11545248A3
:1021A0005249097850F821000078242819D14E4866
:1021B0004E49097850F821004078472811D14A4803
:1021C0004A49097850F821008078502809D14648BA
:1021D0004649097850F82100C07889E0C9E0AEE0AE
:1021E000A9E0A3E0A800002000005240C0000020A9
:1021F0000000614000003240B000002000004B4071
:10220000B3ACB3F6C1CBD6D0B9FAB5C4B7B6CEA786
:1022100000000000E0000020101F0020C01E002071
:10222000C80000209F000020980A0020980000208D
:10223000C9000020475053CEB4B3C9B9A6B6A8CE42
:10224000BB0D0A00CAFDBEDDD0A3D1E9BACDCAA735
:10225000B0DC0000C3BBD3D03132B8F6B6BABAC5D1
:102260000D0A00000000204051000020CA0000209C
:10227000253034642D253032642D253032642025FC
:102280003032643A253032643A253032640000003E
:1022900081000020601F0020CC00002020000020D2
:1022A000280000208000002030000020380000209E
:1022B000180F0108F1010020D0000020B4F2B0FC9A
:1022C000CAFDBEDDC9CFB4ABB4F3D0A125640D0AFD
:1022D0000000000018000020004800408800002096
:1022E000CA0A00208C000020541E0020900000200C
:1022F00052281BD126482749097850F82100007937
:102300004D2813D122482349097850F821004079FB
:1023100043280BD11E481F49097850F821001E4957
:1023200008600846006808B1FFF73BFC19480078D0
:10233000401C184908701948008819490860174856
:10234000008841F28831884203DA12480078142864
:102350000FDB0020124908600E4908700F49088001
:10236000002404E000200A4941F82400641C142CD5
:10237000F8D308210B4806F02DFD012806D10821CD
:10238000084806F034FD074806F0BAFC10BD00000E
:10239000541E00209000002094000020880000209F
:1023A0008C0000200048004010B586B00446012192
:1023B000042006F001FB0121480406F00AFB5F48F7
:1023C00006F05EFB0420ADF8100003208DF812002B
:1023D00018208DF8130004A9594806F031F8082098
:1023E000ADF8100004208DF8130004A9544806F03D
:1023F00027F800940020ADF80400ADF80600ADF811
:102400000800ADF80C000C20ADF80A0069464B48F6
:1024100006F079FB0121494806F001FC012240F257
:102420002551464806F007FC01226021434806F08A
:1024300002FC002240F22771404806F0FCFB2620F7
:102440008DF8140002208DF8150000208DF816007C
:1024500001208DF8170005A805F029FF41F61F415E
:102460006320FEF730FA0020364908800021364804
:1024700007F03AF906B010BD10B540F225512F48CB
:1024800006F0BEFC00B32D4806F03AFCC4B22D485D
:10249000008800F40040B8B92A48008841F2883129
:1024A000884212DA0021284807F0B2FB254800884C
:1024B00018B90121244807F017F922490888411C5E
:1024C000204A1180D11C0C5405E01E48008840F4BD
:1024D00000401C4908800821184806F07BFC0128B0
:1024E00006D10821154806F082FC144806F008FCC5
:1024F00010BD0FB438B505A800901448009A04998F
:1025000008F0FAF900200090104808F01AFC85B293
:1025100000240DE000BF4021084806F05BFC0028C5
:10252000F9D00A48015D054806F0E6FB601C84B25C
:10253000AC42EFDB38BC5DF814FB00000044004007
:1025400000080140781F00200014004003330020E1
:1025500070B504460025EB48008800F40040A8B19F
:10256000E848008848F6FF71084341F28831884204
:1025700003DB0021E44880F887132146E148C01CB2
:1025800008F0CDFB05460DB1284670BD0020FCE7E4
:102590000021DC4A1180002005E00022D949C91C35
:1025A0000A54411C88B241F288318842F5DB7047F9
:1025B0002DE9F04105460E4614464FF000084FF451
:1025C000967005F082FDFFF7E3FFFF2D0AD200BFF2
:1025D000CE48008800F040000028F9D0CB49091D02
:1025E0000D8005E02846FFF784FFC9A0FFF781FFB3
:1025F0009EB194B106E03046FFF7AAFF07460120DE
:1026000005F063FD601E041E01D0002FF3D00CB94D
:102610004FF0FF380FB14FF000084046BDE8F081A1
:1026200010B5002409E0601CC4B22146B9A008F02E
:1026300075F9142C01DD00F05BF841F28832BBA182
:10264000BBA0FFF7B5FF0028EDD1BCA008F066F9EC
:1026500010BD70B541F28832B4A1BCA0FFF7A8FF4D
:1026600005462DB1BBA008F059F90120A549887095
:10267000AEA0FFF76DFF04465CB1A4F113010F2279
:10268000B94808F07DFB0020B749C873B7A008F02F
:1026900045F970BD70B541F28832A4A1B7A0FFF72B
:1026A00087FF05461DB9B7A008F038F905E0BBA0C3
:1026B00008F034F9012093498870BEA0FFF748FF65
:1026C00004466CB114222146A748323808F058FB62
:1026D0000020A54932390875B7A008F01FF905E0B8
:1026E000AEA008F01BF901208649887070BD7047C4
:1026F00070B500250020B6490870B6490870FEF78D
:10270000F5FEFFF7F4FF0120B149087000BF0EE0AD
:1027100029466D1CB0A008F001F9322D07D3B5A0F1
:1027200008F0FCF801207749887000BFFEE74FF4FD
:10273000FA727EA1B9A0FFF73BFF041EE8D11CB1DD
:10274000B8A008F0EBF8AAE0BCA008F0E7F841F266
:10275000883276A1BFA0FFF72BFF04461CB9BFA0AB
:1027600008F0DCF802E0C1A008F0D8F841F28832A5
:102770006EA1C2A0FFF71CFF04461CB9C2A008F05E
:10278000CDF802E0C7A008F0C9F8FFF783FFFFF714
:1027900060FF02208E49087000250EE029466D1C5E
:1027A000C7A008F0BBF8142D07D3CCA008F0B6F8EA
:1027B00001205449887000BFFEE740F6B832D0A12E
:1027C000D1A0FFF7F5FE041EE8D11CB9D1A008F096
:1027D000A5F802E0D3A008F0A1F840F6B832D5A1E0
:1027E000D6A0FFF7E5FE04461CB9D7A008F096F87E
:1027F00009E040F6B8324DA1DAA0FFF7D9FE044651
:10280000DBA008F08BF803207149087041F2883290
:1028100046A1DFA0FFF7CCFE04461CB9DFA008F0FC
:102820007DF802E0E4A008F079F8002514E0E9A0C2
:10283000FFF78EFE064629466D1C3246E7A008F0DB
:102840006DF8782D05D3ECA008F068F801202D492B
:102850008870322005F039FC41F2883233A1EFA0B4
:10286000FFF7A6FE041EE2D18CB9DAA0FFF770FED6
:1028700000F10C060B2231463B48103008F080FA7C
:102880000020394910310873E7A008F047F8042008
:102890004F490870FFF7C4FE05204D49087070BD10
:1028A00010B54FF47A72E5A1E7A0FFF781FE044668
:1028B0001CB9E9A008F032F802E0EBA008F02EF80D
:1028C0004FF47A72ECA1EEA0FFF772FE04461CB939
:1028D000EEA008F023F802E0F1A008F01FF84FF492
:1028E0007A7212A1F3A0FFF763FE04461CB9F5A0AB
:1028F00008F014F802E0FAA008F010F841F288326B
:102900000AA1FBE1781F00207B2F0020004400403B
:102910000D0A0000475053BFAAC6F4CAA7B0DCB4E2
:10292000CECAFD2E2E2E25630D0A00004F4B00004F
:1029300041542B4750533D3100000000475053B4E1
:10294000F2BFAAB3C9B9A60D0A00000041542B4733
:10295000534E0000B2E9D1AF494D4549BAC5CAA7A7
:10296000B0DC0D0A00000000063B0020494D45493F
:10297000BAC53A2025730D0A0000000041542B47C8
:102980004D520000B2E9D1AFC4A3BFE9C8EDBCFE0F
:10299000B0E6B1BEB3C9B9A60D0A0000B2E9D1AF25
:1029A000C4A3BFE9C8EDBCFEB0E6B1BECAA7B0DCA7
:1029B0000D0A000056000000C4A3BFE9C8EDBCFE2C
:1029C000B0E6B1BE3A20257320200D0A00000000B9
:1029D000E3000020E1000020D5FDD4DAB3F5CABC45
:1029E000BBAF4154D6B8C1EEBCAF60606025640D8A
:1029F0000A0000000D0AB3F5CABCBBAF4154D6B8FB
:102A0000C1EEBCAFCAA7B0DCA3ACD5FDD4DAD6D832
:102A1000C6F4B5A5C6ACBBFA0D0A000041540D0AB8
:102A200000000000B3F5CABCBBAF4154D6B8C1EE3C
:102A3000BCAFCAA7B0DC0D0A00000000B3F5CABCE9
:102A4000BBAF4154D6B8C1EEBCAFB3C9B9A60D0AED
:102A5000000000004154453000000000B9D8B1D555
:102A6000BBD8CFD4B3C9B9A60D0A0000B9D8B1D527
:102A7000BBD8CFD4CAA7B0DC0D0A000041542B4309
:102A80004D45453D32000000B4F2BFAAC9CFB1A800
:102A9000CFEACFB8B4EDCEF3D0C5CFA2B3C9B9A6B3
:102AA0000D0A0000B4F2BFAAC9CFB1A8CFEACFB8CF
:102AB000B4EDCEF3D0C5CFA2CAA7B0DC0D0A00009A
:102AC000D5FDD4DAB2E9D1AF53494DBFA8D7B4CCC4
:102AD000AC60606025640D0A000000000D0ABCECCB
:102AE000B2E253494DBFA8CAA7B0DCA3ACD5FDD410
:102AF000DAD6D8C6F4B5A5C6ACBBFA0D0A000000FC
:102B0000524541445900000041542B4350494E3F27
:102B100000000000D2D1B2E5C8EB53494DBFA80D6B
:102B20000A000000CEB4B2E5C8EB53494DBFA80D72
:102B30000A000000435245470000000041542B4367
:102B40005245473F00000000CDF8C2E7D2D1BEADEC
:102B5000D7A2B2E1A3ACD4DAC2FED3CEC4A3CABD1D
:102B6000CFC2000041542B435245473D3100000085
:102B7000CDF8C2E7D2D1BEADD7A2B2E1A3ACD4DAD0
:102B8000C2FED3CEC4A3CABDCFC20D0A000000004E
:102B900041542B434F50533D302C3000C9E8D6C32D
:102BA000B3A4B8F1CABDD7D6C4B8CAFDD7D6B3C985
:102BB000B9A60D0A00000000C9E8D6C3B3A4B8F155
:102BC000CABDD7D6C4B8CAFDD7D6CAA7B0DC0D0ACD
:102BD000000000002B434F50533A0000D5FDD4DADB
:102BE000BCECB2E2D0C5BAC560606025642020208C
:102BF00025730D0A000000000D0ACBD1CBF7D0C51C
:102C0000BAC5CAA7B0DCA3ACD5FDD4DAD6D8C6F411
:102C1000B5A5C6ACBBFA0D0A0000000041542B4319
:102C20004F50533F00000000BCECB2E2D0C5BAC523
:102C3000B3C9B9A62025730D0A000000434C4F53B9
:102C400045204F4B0000000041542B434950434C5A
:102C50004F53453D31000000B9D8B1D5C1ACBDD30B
:102C6000B3C9B9A60D0A0000B9D8B1D5C1ACBDD35E
:102C7000CAA7B0DC0D0A000053485554204F4B0042
:102C800041542B434950534855540000B9D8B1D54D
:102C9000D2C6B6AFB3A1BEB0B3C9B9A60D0A000083
:102CA000B9D8B1D5D2C6B6AFB3A1BEB0CAA7B0DC51
:102CB0000D0A000041542B4347434C4153533D22DE
:102CC00042220000C9E8D6C347505253D2C6B6AF1D
:102CD000CCA8C0E0D0CDCEAA42B3C9B9A60D0A0097
:102CE000C9E8D6C347505253D2C6B6AFCCA8C0E04D
:102CF000D0CDCEAA42CAA7B0DC0D0A00ECA0FFF7E7
:102D000057FC04461CB9EDA007F008FE02E0F0A055
:102D100007F004FE41F28832AFF2F031F1A0FFF784
:102D200047FC04461CB9F6A007F0F8FD02E0F9A044
:102D300007F0F4FD41F28832AFF21041FAA0FFF73C
:102D400037FC04461CB9FCA007F0E8FD02E0FEA039
:102D500007F0E4FD204610BD10B502460B460024E6
:102D600000210AE0505C2C2805D1601CC4B29C42B2
:102D700001D1501810BD481C81B24FF6FF7081423E
:102D8000F0DB1046F6E710B502460B4600200021A6
:102D90000AE0545C9C4202D1441CE0B202E0545C64
:102DA00004B910BD4C1CA1B2F3E72DE9FF4F8DB063
:102DB000834615461E4600200390029081460190EE
:102DC000824658460E9907F0AAFF074627B94FF0EA
:102DD000FF3011B0BDE8F08F2C215846FFF7D3FF2C
:102DE0000390039801282FD10E9807F0AAFF82467E
:102DF00001213846FFF7B0FF0446E01BA0EB0A00B4
:102E000002900BEB0A010AA8029A07F0B9FF002111
:102E10000AAA029811541DB10AA807F03BFF2860C6
:102E2000601C07F08EFF81464A46611C07A807F028
:102E3000A7FF002007A901F809001EB107A807F0A5
:102E400029FF30600020C4E7039802284AD10E9879
:102E500007F077FF824601213846FFF77DFF0446E1
:102E6000E01BA0EB0A0002900BEB0A010AA8029AF1
:102E700007F086FF00210AAA029811541DB10AA882
:102E800007F008FF286002213846FFF765FF8046FB
:102E9000A8EB0400A0F101094A46611C07A807F04D
:102EA0006FFF00200AA901F809001EB107A807F06A
:102EB000F1FE306008F1010007F043FF019008F1D6
:102EC000010104A8019A07F05BFF002004A901F8A2
:102ED00009001A9820B104A807F0DCFE1A990860CE
:102EE000002076E74FF0FF3073E77CB500200190BB
:102EF000002541F28832AFF2CC5197A0FFF758FB82
:102F000004461CB196A007F009FD10E099A0FFF758
:102F10001FFB06460020034601AA98A100903046F8
:102F2000FFF743FF18B997A0019907F0F7FC4FF49A
:102F30007A7298A199A0FFF73BFB044614B14FF0B9
:102F4000FF307CBD93A0FFF703FB0546E8793128ED
:102F500001D10020F5E7FFF7A3FCF2E710B59AB026
:102F6000914B924A92A101A807F0E4FC41F2883209
:102F7000AFF2486101A8FFF71BFB04461CB993A000
:102F800007F0CCFC02E096A007F0C8FC20461AB07F
:102F900010BD70B500254FF4FA6296A198A0FFF716
:102FA00007FB041E04D19AA007F0B8FC05251EE01B
:102FB0009EA0FFF7CDFA20B19EA007F0AFFC04253C
:102FC00015E0A2A0FFF7C4FA20B1A2A007F0A6FC6A
:102FD00003250CE0A5A0FFF7BBFA20B1A5A007F0E0
:102FE0009DFC022503E0A9A007F098FC0125012D16
:102FF00006D0022D05D0032D06D0042D11D104E0FA
:1030000000BFFFF74DFC00BF00BFFFF7A7FF041E86
:1030100003D1A3A007F082FC02E0A5A007F07EFC8C
:1030200000BF00BF00BF204670BD2DE9FC41064631
:1030300000240120A24908700DE0601CC4B22146A2
:10304000A0A007F06BFC0A2C02DDA4A007F066FC30
:10305000322005F03AF8FFF79CFF071EEDD1A64B92
:103060003246A6A1A94807F065FCA849AFF2FC606A
:1030700007F054FCA54807F064FE85B22946AFF27C
:10308000AC5007F04BFCA148484BA14AA149CDE9FF
:103090000050A14807F04EFC41F288329FA1A0A049
:1030A000FFF786FA002801D198493FE160E100006E
:1030B00041542B43474154543D310000B8BDD7C55E
:1030C00047505253D2B5CEF1B3C9B9A60D0A00008C
:1030D000B8BDD7C547505253D2B5CEF1CAA7B0DC60
:1030E0000D0A000041542B434744434F4E543D3199
:1030F0002C224950222C22434D4E455422000000E0
:10310000C9E8D6C3504450B2CECAFDB3C9B9A60D62
:103110000A000000C9E8D6C3504450B2CECAFDCA66
:10312000A7B0DC0D0A00000041542B434741435433
:103130003D312C3120000000BCA4BBEE504450B304
:10314000C9B9A60D0A000000BCA4BBEE504450CA89
:10315000A7B0DC0D0A00000041542B43535100007E
:10316000B2E9D1AFD0C5BAC5D6CAC1BFCAA7B0DC13
:103170000D0A00002B4353513A0000002B435351DA
:103180003A200000D0C5BAC5D6CAC1BFA3BA2564CB
:103190000D0A00002B43474154543A0041542B433D
:1031A000474154543F000000F2000020E40000209A
:1031B00041542B43495053544152543D225443509F
:1031C000222C222573222C2573000000BDA8C1A249
:1031D000544350B5C4C1ACBDD3B3C9B9A60D0A00A0
:1031E000BDA8C1A2544350B5C4C1ACBDD3CAA7B099
:1031F000DC0D0A00434F4E4E454354204F4B000018
:1032000041542B434950535441545553000000003E
:10321000B5B1C7B0C1ACBDD3D7B4CCAC3A434F4EB7
:103220004E45434B204F4B0D0A000000434C4F537B
:1032300045000000B5B1C7B0C1ACBDD3D7B4CCAC6C
:103240003A495020434C4F53450D0A0047505253C2
:1032500041435400B5B1C7B0C1ACBDD3D7B4CCACB9
:103260003A475052534143540D0A0000494E4954C5
:1032700049414C00B5B1C7B0C1ACBDD3D7B4CCAC9B
:103280003A494E495449414C0D0A0000B5B1C7B006
:10329000C1ACBDD3D7B4CCAC3ACEB4D6AA0D0A00DB
:1032A000544350C1ACBDD3B3C9B9A60D0A00000048
:1032B000544350C1ACBDD3CAA7B0DC0D0A00000016
:1032C000F7000020544350C1ACBDD3B3F6CFD6D2E3
:1032D000ECB3A32E2E2E25630D0A0000544350C1DB
:1032E000ACBDD3B9CAD5CF2E2E2ED7BCB1B8D6D847
:1032F000C6F40D0A00000000140100206C6F673D49
:103300002573266B65793D2573000000263B002060
:10331000F9000020840F0108523C00203E0000000C
:1033200041542B43495053454E44000065A007F0DB
:10333000F5FA6949AFF6C410FFF7DBF80A2004F08C
:10334000C4FE41F28832AFF24C111A20FFF730F977
:1033500028B9FFF71DF961A007F0E0FA15E0012098
:103360006149087061A007F0D9FA4FF0FF370CE00F
:10337000002211461B20FFF71BF901205A49087053
:103380005DA007F0CBFA4FF0FF3700205F490870CF
:103390003846BDE8FC817CB5002600255CA0FFF71F
:1033A000D7F820B35EA0FFF7D3F80546FDB100249F
:1033B00019E0281B00783E2813D1281B461C00204A
:1033C0002870142004F081FE58480C21C8234FF4C3
:1033D0009672CDE9001064210A2004F0FDFD30460C
:1033E0007CBD601C84B241F288308442E1DB002065
:1033F000F6E770B54FF6FF7000F037FF4C48FFF767
:1034000014FE051E03D14BA007F088FA02E04CA081
:1034100007F084FA3448007800283ED13B48007811
:1034200000283AD14949087000BF4848007830B9AF
:103430003E48C01E008800F400400028F5D0FFF789
:10344000AAFF002823D000202749087040A007F0D9
:1034500065FA4348007800B3012410E02046FEF7E7
:10346000F2F84048FFF7E1FD051E03D131A007F057
:1034700055FA02E032A007F051FA601C44B2384815
:1034800000788442EADD00203549087005E001201B
:103490001549087034A007F041FA4FF4FA62AFF210
:1034A000A421AFF65C00FFF783F8054625B9AFF617
:1034B000580007F033FA03E0AFF6540007F02EFA95
:1034C00070BD000043495053454E4420444154418F
:1034D0003A25730D0A000000523C0020504F53540F
:1034E000B3C9B9A60D0A0000F8000020504F53548C
:1034F000CAA7B0DC0D0A0000504F5354CAA7B0DC75
:10350000A3ACC8A1CFFBB7A2CBCD0000F700002031
:10351000485454502F312E3120323030204F4B0040
:103520003C2F737472696E673E0000007B1F0020A1
:10353000F1010020B7A2CBCDB3C9B9A60D0A000096
:10354000B7A2CBCDCAA7B0DC0D0A00005200002004
:10355000CAD5B5BDD5FDC8B7D3A6B4F00D0A0000D5
:10356000E20000204C010020CEB4CAD5B5BDD5FD87
:10357000C8B7D3A6B4F00D0A00000000F7490880D0
:103580007047F649891C0880704708B5F348801CCD
:1035900000880090BDF8000008BDF04A1080921C21
:1035A0001180704710B504462046FFF7E7FF05205D
:1035B00004F067FDFFF7E9FF10BDE9480089E7491E
:1035C00008807047E549891C0880704730B501467E
:1035D00001F01F04C1F34513CA0AE50205EB4315C8
:1035E0001544A8B230BD00BF011EA0F10102D0B247
:1035F000FAD1704710B503460C46D948808849F285
:103600004131884205D0D648808845F21031884241
:1036100014D1D3494889FFF7B1FF1812FFF7B1FF62
:10362000D8B2FFF7AEFFCE498889FFF7A7FF201277
:10363000FFF7A7FFE0B2FFF7A4FFABE0C848808820
:1036400046F6040188421DD1C5488079012804D17D
:10365000C3480088401EC01A83B2C1494889FFF799
:103660008DFF1812FFF78DFFD8B2FFF78AFFBC4914
:103670008889FFF783FF2012FFF783FFE0B2FFF78F
:1036800080FF87E0B648808841F66311884247D1C1
:10369000B3488079A8B9B2480088401EC01A83B2E6
:1036A000AF494889FFF76AFF0020FFF76AFF002053
:1036B000FFF767FF1812FFF764FFD8B2FFF761FF4B
:1036C00016E0A7494889FFF759FF1812FFF759FF7D
:1036D000D8B2FFF756FFA2490988491EC1F30F204F
:1036E000FFF74FFF9E490978491EC8B2FFF749FF0F
:1036F0009B498889FFF742FF2012FFF742FFE0B2A3
:10370000FFF73FFF96494988491EC1F30F20FFF795
:1037100038FF93498978491EC8B2FFF732FF39E074
:103720008F48808845F21051884220D18C494889C1
:10373000FFF724FF1812FFF724FF89494989491C24
:1037400088B2FFF71BFFD8B2FFF71BFF84498889B7
:10375000FFF714FF2012FFF714FF81498989491CE4
:1037600088B2FFF70BFFE0B2FFF70BFF12E07C48D7
:103770008079012804D17A480088401EC01A83B29B
:10378000774948891946FFF708FF75498889214616
:10379000FFF703FF10BD2DE9F04105460E4600245A
:1037A0000027A0466E480088A84203DD6C48408888
:1037B000B04202DC0020BDE8F08131462846FFF728
:1037C00019FF6748808849F24131884211D0644826
:1037D000808846F6040188420BD06148808845F213
:1037E0001031884205D05E48808841F663118842D6
:1037F00003D12E20FFF7C2FE0DE05948808845F224
:103800001051884204D14FF43850FFF7B7FE02E060
:103810002220FFF7B3FE5248808849F220318842C7
:1038200002D10220FFF7DFFEFFF7AFFE04464C484F
:10383000808841F66311884201D12046BBE702200F
:10384000FFF7D1FEFFF7A1FE04464548808849F204
:10385000413188420BD04248808845F2103188427D
:1038600005D03F48808845F2105188420AD1022095
:10387000FFF7B9FEFFF789FE8046E7B24FF6FF700B
:1038800000EA07273648808849F22531884216D059
:103890003348808844F23551884210D030488088BF
:1038A000091F88420BD02E4880884BF20551884270
:1038B00005D02B4880884CF20551884201D1204622
:1038C00079E72748808849F2413188420BD0244863
:1038D000808845F21031884205D02148808845F221
:1038E0001051884207D1E012C002B91240EA4110DB
:1038F00040EAE8205FE72046FFF768FE5BE700B597
:103900001748808849F24131884211D01448808894
:1039100046F6040188420BD01148808845F21031E8
:10392000884205D00E48808841F66311884203D151
:103930002920FFF723FE0FE00948808845F2105147
:10394000884204D14FF42450FFF718FE04E040F2FF
:1039500073110720FFF721FE00BD0000FE07006C79
:103960003A40002000B5FD48808849F24131884244
:1039700011D0FA48808846F6040188420BD0F748F7
:10398000808845F21031884205D0F448808841F69D
:103990006311884203D12820FFF7F0FD0EE0EF48C5
:1039A000808845F21051884204D14FF42050FFF72F
:1039B000E5FD03E000210720FFF7EFFD00BD70B536
:1039C000044600230026E548807901280BD1E3480E
:1039D000808846F60401884205D0E048808841F698
:1039E0006311884208D1DD488079F0B9DB488088CE
:1039F00041F66311884218D1082C15D2DFE804F093
:103A00000406080A0C0E101206240DE007240BE031
:103A1000042409E0052407E0012405E0002403E074
:103A2000032401E0022400BF00BFCC48808849F293
:103A30004131884217D0C948808846F6040188423F
:103A400011D0C648808845F2103188420BD0C34857
:103A5000808845F21051884205D0C048808841F6E0
:103A6000631188427ED1082C1CD2DFE804F00406E2
:103A7000090C0F12151800BF14E043F0800311E089
:103A800043F040030EE043F0C0030BE043F020039B
:103A900008E043F0600305E043F0A00302E043F0D8
:103AA000E00300BF00BFAD48808845F21051884256
:103AB00002D14FF4585600E03626A848808845F2D7
:103AC000103188420DD0A548808845F210518842B7
:103AD00007D0A248808841F66311884201D043F0A4
:103AE00008039E48808846F60401884201D143F0CD
:103AF000020319463046FFF750FD9848808841F68A
:103B0000631188421DD003F0200068B193480088FB
:103B100092494988884214DA9048058840888F493C
:103B20000880084645800CE08C4800888B4949880D
:103B3000884206DD8948058840888849088008460B
:103B400045808648808845F21051884254D1834987
:103B50004889FFF713FD0020FFF713FD7F494989CE
:103B6000491C00E077E088B2FFF708FD0020FFF76E
:103B700008FD7A494989891C88B2FFF7FFFC77491B
:103B80000988491EC1F30F20FFF7FBFC73494989DF
:103B9000C91C88B2FFF7F2FC70490978491EC8B207
:103BA000FFF7EFFC6D498889FFF7E8FC0020FFF77D
:103BB000E8FC6A498989491C88B2FFF7DFFC0020CC
:103BC000FFF7DFFC65498989891C88B2FFF7D6FCBD
:103BD00062494988491EC1F30F20FFF7D2FC5F49B3
:103BE0008989C91C88B2FFF7C9FC5C498978491EDC
:103BF000C8B2FFF7C6FC55E058494889FFF7BEFC3C
:103C00000020FFF7BEFC0020FFF7BBFC53490988EA
:103C1000491EC1F30F20FFF7B4FC50490978491E33
:103C2000C8B2FFF7AEFC4D498889FFF7A7FC00201A
:103C3000FFF7A7FC0020FFF7A4FC48494988491E6C
:103C4000C1F30F20FFF79DFC44498978491EC8B293
:103C5000FFF797FC26E0082C1CD2DFE804F00407ED
:103C60000A0D0F12151843F0300313E043F0100350
:103C700010E043F020030DE000BF0BE043F03803F9
:103C800008E043F0280305E043F0180302E043F0A6
:103C9000080300BF00BF032643F480531946304693
:103CA000FFF77BFC70BD30B504460D462946204623
:103CB000FFF7A0FCFFF781FC29480088294908800C
:103CC00030BD30B503460C4615462448808849F27D
:103CD0004131884205D02148808845F21031884220
:103CE00014D11E494889FFF749FC1812FFF749FC17
:103CF000D8B2FFF746FC19498889FFF73FFC20122C
:103D0000FFF73FFCE0B2FFF73CFC93E013488088EC
:103D100045F21051884227D110494889FFF72EFCFF
:103D20001812FFF72EFC0D494989491C88B2FFF78C
:103D300025FCD8B2FFF725FC08498889FFF71EFC4F
:103D40002012FFF71EFC05498989491C88B2FFF73C
:103D500015FCE0B2FFF715FC6CE000003A400020D3
:103D6000280100200008006CFC48808841F663119F
:103D7000884228D1F948807920B9F8480088401E47
:103D8000C01A83B2F5494889FFF7F8FB1812FFF70C
:103D9000F8FBD8B2FFF7F5FB1812FFF7F2FBD8B229
:103DA000FFF7EFFBED498889FFF7E8FB2012FFF7EB
:103DB000E8FBE0B2FFF7E5FB2012FFF7E2FBE0B221
:103DC000FFF7DFFB36E0E548808846F604018842CD
:103DD0001DD1E2488079012804D1E0480088401EC6
:103DE000C01A83B2DD494889FFF7C8FB1812FFF7F4
:103DF000C8FBD8B2FFF7C5FBD8498889FFF7BEFBDF
:103E00002012FFF7BEFBE0B2FFF7BBFB12E0D34886
:103E10008079012804D1D1480088401EC01A83B29D
:103E2000CE4948891946FFF7B8FBCC498889214615
:103E3000FFF7B3FBC9480089C9490880881C058081
:103E400030BD2DE9F0470446BE20FFF797FB052063
:103E5000FFF797FB20460AF0DDFE07464FF066327B
:103E6000C04B0AF027FF05460AF090FE1FFA80F9C2
:103E70004846FFF786FB0120FFF783FBFF20FFF793
:103E800080FB0020FFF77DFB0020FFF77AFBBDE8F9
:103E9000F08710B50446002C66D1B0498871F02037
:103EA00008804FF4A07048800846808849F241316C
:103EB00088420BD0A948808846F60401884205D084
:103EC000A648808845F2103188421AD12C20A34997
:103ED00008812A2048812B2088810846808846F660
:103EE0000401884205D09D48808845F210318842FF
:103EF00006D14FF4A070994908804FF4F0704880C3
:103F0000A1E09648808845F21051884210D14FF4C4
:103F10003050924908814FF4285048814FF42C507A
:103F200088814FF4F07008804FF4487048808AE030
:103F30008A48808841F6631188420DD12C20874938
:103F400008812B2048812A2088814FF4F070088056
:103F50004FF44870488076E0222080490881202074
:103F60004881212088816EE001207C4988714FF4CE
:103F7000A0700880F02048800846808849F24131CE
:103F8000884205D07548808845F21031884207D1B3
:103F90002C20724908812A2048812B2088813FE00B
:103FA0006E48808846F60401884207D12C206B4970
:103FB00008812B2048812A20888131E06748808849
:103FC00045F21051884210D14FF4305063490881B6
:103FD0004FF4285048814FF42C5088814FF448709A
:103FE00008804FF4F07048801AE05C48808841F601
:103FF000631188420DD12C20584908812A2048811C
:104000002B2088814FF4487008804FF4F07048806E
:1040100006E0222051490881212048812020888102
:104020004E48808846F60401884205D04B48808877
:1040300045F21031884206D14FF4F07047490880AC
:104040004FF4A07048800020FFF7B9FC10BD2DE9A7
:10405000F04F86B004460D469046994604EB0800A2
:10406000401E86B205EB0900401E87B23B4880889F
:1040700049F24131884215D03848808845F21031E4
:1040800088420FD03548808846F60401884209D01E
:1040900032488079012826D13048808841F6631162
:1040A000884220D12D494889FFF768FA2012FFF78E
:1040B00068FAE0B2FFF765FA3012FFF762FAF0B281
:1040C000FFF75FFA25498889FFF758FA2812FFF7AA
:1040D00058FAE8B2FFF755FA3812FFF752FAF8B279
:1040E000FFF74FFABEE01D48808841F66311884211
:1040F0003AD11A480088A0EB0800001B84B205EBF7
:104100000900401E1FFA80F914494889FFF736FA62
:104110002012FFF736FAE0B2FFF733FA04EB08019A
:10412000491EC1F30F20FFF72CFA04EB0801491ECA
:10413000C8B2FFF726FA09498889FFF71FFA281243
:10414000FFF71FFAE8B2FFF71CFA4FEA2920FFF742
:1041500018FA09F0FF00FFF714FA83E03A40002054
:10416000FE07006C66660440FE48808845F21051E8
:10417000884244D1FB494889FFF700FA2012FFF733
:1041800000FAF8494989491C88B2FFF7F7F9E0B20B
:10419000FFF7F7F9F3494989891C88B2FFF7EEF96F
:1041A0003012FFF7EEF9EF494989C91C88B2FFF7D1
:1041B000E5F9F0B2FFF7E5F9EA498889FFF7DEF99A
:1041C0002812FFF7DEF9E7498989491C88B2FFF711
:1041D000D5F9E8B2FFF7D5F9E2498989891C88B297
:1041E000FFF7CCF93812FFF7CCF9DE498989C91CF1
:1041F00088B2FFF7C3F9F8B2FFF7C3F932E0D94844
:10420000807901280ED1AA46BB46D6480088801B7B
:10421000401E80B20190D3480088001B401E80B22F
:10422000009003E0A246B346019500975020059008
:10423000512004905220039053200290514605983B
:10424000FFF7ABF959460498FFF7A7F901990398CE
:10425000FFF7A3F900990298FFF79FF92946204636
:10426000FFF7C8F906B0BDE8F08F70B50446002628
:10427000BC48058840884543BA48808846F6040112
:10428000884216D1B7488079012812D10020B5495B
:1042900088712A2048812B20888100210846FFF759
:1042A000A9F90120AF4988712B2048812A208881F3
:1042B00003E000210846FFF79DF9FFF77EF900268D
:1042C00002E0A9480480761CAE42FAD370BD00B566
:1042D0009FB00121080204F062FB01214FF4B47089
:1042E00004F06AFB0120ADF8780010208DF87B0007
:1042F00003208DF87A001EA99C4804F0A1F84CF226
:104300003370ADF8780018208DF87B0003208DF80D
:104310007A001EA9964804F093F84FF68070ADF825
:10432000780018208DF87B0003208DF87A001EA9F4
:10433000904804F085F841F20100ADF878001820AB
:104340008DF87B0003208DF87A001EA98A4804F0BE
:1043500077F801200890002009900F200A90002093
:104360000B900C900D900E90019002900320039002
:104370000020049005900690079006200F900020E2
:10438000109011901020129000201390159014900E
:10439000169017904FF480501890002019904FF409
:1043A00080401A9000201B9008A81C9001A81D9026
:1043B0000FA805F0E5FF0121062006F049F932209B
:1043C00003F083FE0020FFF7EDF866498880084679
:1043D0008088FF280ADB084680884FF6FF718842F4
:1043E00004D060488088B0F5134F7CD1D320FFF70C
:1043F000C5F8FFF7CAF85B498880FFF7C6F8594946
:104400008880FFF7C2F857498880084680884FF6B1
:10441000FF7101EA002053498880FFF7B6F851493F
:10442000898808434F4988800846808849F241318D
:10443000884258D0BF20FFF7A1F8FFF7A6F84949F6
:104440008880FFF7A2F847498880FFF79EF8454922
:104450008880FFF79AF843498880084680884FF69D
:10446000FF7101EA00203F498880FFF78EF83D493F
:10447000898808433B4988800846808846F60401BD
:10448000884230D0D420FFF779F8FFF77EF835491D
:104490008880FFF77AF833498880FFF776F831494A
:1044A0008880084680884FF6FF7101EA00202D4978
:1044B0008880FFF76AF82B49898808432949888052
:1044C0000846808845F21031884263D04FF45A4044
:1044D000FFF754F8FFF759F8224988804FF45B4002
:1044E000FFF74CF800E055E0FFF74FF81D498880D2
:1044F000084680884FF6FF7101EA0020194988803C
:104500004FF45C40FFF73AF8FFF73FF81549898808
:1045100008431449888008468088B0F5004F02D1CE
:1045200045F2105088800F48808845F2105188422B
:1045300030D0A120FFF722F8FFF727F8094988803B
:10454000FFF723F807498880084680884FF6FF71F7
:1045500001EA002003498880FFF717F8014989889C
:1045600008430BE03A4000200008006C000C0140BA
:10457000001401400018014000200140FE498880DD
:104580000846808845F26171884203D141F6631084
:10459000F9498880F8488188F8A006F0BFF9F64804
:1045A000808849F2413188427ED1CF20FEF7E6FF74
:1045B0000020FEF7E6FFC120FEF7E3FF3020FEF704
:1045C000E0FFED20FEF7DAFF6420FEF7DAFF0320BC
:1045D000FEF7D7FF1220FEF7D4FF8120FEF7D1FFB0
:1045E000E820FEF7CBFF8520FEF7CBFF1020FEF77B
:1045F000C8FF7A20FEF7C5FFCB20FEF7BFFF3920AA
:10460000FEF7BFFF2C20FEF7BCFF0020FEF7B9FF2E
:104610003420FEF7B6FF0220FEF7B3FFF720FEF7C7
:10462000ADFF2020FEF7ADFFEA20FEF7A7FF002038
:10463000FEF7A7FF0020FEF7A4FFC020FEF79EFFB5
:104640001B20FEF79EFFC120FEF798FF0120FEF71A
:1046500098FFC520FEF792FF3020FEF792FF302032
:10466000FEF78FFFC720FEF789FFB720FEF789FF0F
:104670003620FEF783FF4820FEF783FF3A20FEF73F
:104680007DFF5520FEF77DFFB120FEF777FF00206C
:10469000FEF777FF1A20FEF774FFB620FEF76EFFD5
:1046A0000A20FEF76EFF00E097E0A220FEF769FF08
:1046B000F220FEF763FF0020FEF763FF2620FEF7DF
:1046C0005DFF0120FEF75DFFE020FEF757FF0F20A2
:1046D000FEF757FF2A20FEF754FF2820FEF751FF70
:1046E0000820FEF74EFF0E20FEF74BFF0820FEF7D6
:1046F00048FF5420FEF745FFA920FEF742FF432064
:10470000FEF73FFF0A20FEF73CFF0F20FEF739FFC0
:104710000020FEF736FF0020FEF733FF0020FEF7F3
:1047200030FF0020FEF72DFFE120FEF727FF0020DD
:10473000FEF727FF1520FEF724FF1720FEF721FFC5
:104740000720FEF71EFF1120FEF71BFF0620FEF7D5
:1047500018FF2B20FEF715FF5620FEF712FF3C2016
:10476000FEF70FFF0520FEF70CFF1020FEF709FFF4
:104770000F20FEF706FF3F20FEF703FF3F20FEF766
:1047800000FF0F20FEF7FDFE2B20FEF7F7FE0020B6
:10479000FEF7F7FE0020FEF7F4FE0120FEF7F1FE23
:1047A0003F20FEF7EEFE2A20FEF7E8FE0020FEF78F
:1047B000E8FE0020FEF7E5FE0020FEF7E2FEEF2017
:1047C000FEF7DFFE1120FEF7D9FE782003F07DFC16
:1047D0002920FEF7D3FE03F025B96748808846F606
:1047E000040188427ED11120FEF7C8FE142003F098
:1047F0006CFCD020FEF7C2FE0720FEF7C2FE42206E
:10480000FEF7BFFE1D20FEF7BCFED120FEF7B6FE70
:104810000020FEF7B6FE1A20FEF7B3FE0920FEF7D1
:10482000B0FED220FEF7AAFE0120FEF7AAFE22204B
:10483000FEF7A7FEC020FEF7A1FE1020FEF7A1FEA6
:104840003B20FEF79EFE0020FEF79BFE0220FEF7B7
:1048500098FE1120FEF795FEC520FEF78FFE03207F
:10486000FEF78FFEC820FEF789FE0020FEF789FEC6
:104870002520FEF786FE2120FEF783FE0520FEF7A9
:1048800080FE0020FEF77DFE0A20FEF77AFE6520FE
:10489000FEF777FE2520FEF774FE7720FEF771FE07
:1048A0005020FEF76EFE0F20FEF76BFE0020FEF795
:1048B00068FEF820FEF762FE0120FEF762FEFE2091
:1048C000FEF75CFE0020FEF75CFE0220FEF759FEBC
:1048D0002020FEF753FE3620FEF750FE0820FEF79C
:1048E00050FE00E02AE03A20FEF748FE5520FEF791
:1048F00048FE2B20FEF742FE0020FEF742FE00207D
:10490000FEF73FFE0120FEF73CFE3F20FEF739FE9A
:104910002A20FEF733FE0020FEF733FE0020FEF7CC
:1049200030FE0120FEF72DFEDF20FEF72AFE782064
:1049300003F0CBFB2920FEF721FE4CE70E488088D0
:1049400045F21031884240F08487ED20FEF716FED4
:104950000120FEF716FEFE20FEF713FEEE20FEF706
:104960000DFEDE20FEF70DFE2120FEF70AFEF120EF
:10497000FEF704FE012009E03A400020204C4344A9
:104980002049443A25780D0A00000000FEF7F9FDA1
:10499000DF20FEF7F3FD1020FEF7F3FDC420FEF745
:1049A000EDFD8F20FEF7EDFDC620FEF7E7FD0020B0
:1049B000FEF7E7FDE220FEF7E4FDE220FEF7E1FD71
:1049C000E220FEF7DEFDBF20FEF7D8FDAA20FEF7AD
:1049D000D8FDB020FEF7D2FD0D20FEF7D2FD00205D
:1049E000FEF7CFFD0D20FEF7CCFD0020FEF7C9FD40
:1049F0001120FEF7C6FD0020FEF7C3FD1920FEF7CB
:104A0000C0FD0020FEF7BDFD2120FEF7BAFD00200D
:104A1000FEF7B7FD2D20FEF7B4FD0020FEF7B1FD37
:104A20003D20FEF7AEFD0020FEF7ABFD5D20FEF75A
:104A3000A8FD0020FEF7A5FD5D20FEF7A2FD0020E9
:104A4000FEF79FFDB120FEF799FD8020FEF799FD4E
:104A50000020FEF796FD8B20FEF793FD0020FEF769
:104A600090FD9620FEF78DFD0020FEF78AFDB22016
:104A7000FEF784FD0020FEF784FD0020FEF781FD97
:104A80000220FEF77EFD0020FEF77BFD0320FEF7EF
:104A900078FD0020FEF775FDB320FEF76FFD0020C6
:104AA000FEF76FFD0020FEF76CFD0020FEF769FDAC
:104AB0000020FEF766FD0020FEF763FD0020FEF7F4
:104AC00060FD0020FEF75DFD0020FEF75AFD00208E
:104AD000FEF757FD0020FEF754FD0020FEF751FDC4
:104AE0000020FEF74EFD0020FEF74BFD0020FEF7F4
:104AF00048FD0020FEF745FD0020FEF742FD0020A6
:104B0000FEF73FFD0020FEF73CFD0020FEF739FDDB
:104B10000020FEF736FD0020FEF733FD0020FEF7F3
:104B200030FD0020FEF72DFD0020FEF72AFDB42009
:104B3000FEF724FD8B20FEF724FD0020FEF721FD6B
:104B40009620FEF71EFD0020FEF71BFDA120FEF7BC
:104B500018FD0020FEF715FDB520FEF70FFD022021
:104B6000FEF70FFD0020FEF70CFD0320FEF709FD08
:104B70000020FEF706FD0420FEF703FD0020FEF7EF
:104B800000FDB620FEF7FAFC0020FEF7FAFC00203C
:104B9000FEF7F7FCB720FEF7F1FC0020FEF7F1FC72
:104BA0000020FEF7EEFC3F20FEF7EBFC0020FEF7B6
:104BB000E8FC5E20FEF7E5FC0020FEF7E2FC642046
:104BC000FEF7DFFC0020FEF7DCFC8C20FEF7D9FCB2
:104BD0000020FEF7D6FCAC20FEF7D3FC0020FEF749
:104BE000D0FCDC20FEF7CDFC0020FEF7CAFC7020D4
:104BF000FEF7C7FC0020FEF7C4FC9020FEF7C1FCC6
:104C00000020FEF7BEFCEB20FEF7BBFC0020FEF709
:104C1000B8FCDC20FEF7B5FC0020FEF7B2FCB820A3
:104C2000FEF7ACFC0020FEF7ACFC0020FEF7A9FC70
:104C30000020FEF7A6FC0020FEF7A3FC0020FEF7F4
:104C4000A0FC0020FEF79DFC0020FEF79AFC00204F
:104C5000FEF797FCBA20FEF791FC2420FEF791FCAA
:104C60000020FEF78EFC0020FEF78BFC0020FEF7F4
:104C700088FCC120FEF782FC2020FEF782FC002089
:104C8000FEF77FFC5420FEF77CFC0020FEF779FC49
:104C9000FF20FEF776FC0020FEF773FCC220FEF733
:104CA0006DFC0A20FEF76DFC0020FEF76AFC042074
:104CB000FEF767FC0020FEF764FCC320FEF75EFCF5
:104CC0003C20FEF75EFC0020FEF75BFC3A20FEF77E
:104CD00058FC0020FEF755FC3920FEF752FC00205E
:104CE000FEF74FFC3720FEF74CFC0020FEF749FC96
:104CF0003C20FEF746FC0020FEF743FC3620FEF782
:104D000040FC0020FEF73DFC3220FEF73AFC00207C
:104D1000FEF737FC2F20FEF734FC0020FEF731FCB5
:104D20002C20FEF72EFC0020FEF72BFC2920FEF79E
:104D300028FC0020FEF725FC2620FEF722FC0020A0
:104D4000FEF71FFC2420FEF71CFC0020FEF719FCD8
:104D50002420FEF716FC0020FEF713FC2320FEF7AC
:104D600010FC0020FEF70DFC3C20FEF70AFC0020A2
:104D7000FEF707FC3620FEF704FC0020FEF701FCDE
:104D80003220FEF7FEFB0020FEF7FBFB2F20FEF794
:104D9000F8FB0020FEF7F5FB2C20FEF7F2FB0020CD
:104DA000FEF7EFFB2920FEF7ECFB0020FEF7E9FB06
:104DB0002620FEF7E6FB0020FEF7E3FB2420FEF7AB
:104DC000E0FB0020FEF7DDFB2420FEF7DAFB0020ED
:104DD000FEF7D7FB2320FEF7D4FB0020FEF7D1FB24
:104DE000C420FEF7CBFB6220FEF7CBFB0020FEF7D2
:104DF000C8FB0520FEF7C5FB0020FEF7C2FB8420A0
:104E0000FEF7BFFB0020FEF7BCFBF020FEF7B9FB6E
:104E10000020FEF7B6FB1820FEF7B3FB0020FEF7DC
:104E2000B0FBA420FEF7ADFB0020FEF7AAFB182084
:104E3000FEF7A7FB0020FEF7A4FB5020FEF7A1FB26
:104E40000020FEF79EFB0C20FEF79BFB0020FEF7E8
:104E500098FB1720FEF795FB0020FEF792FB9520AC
:104E6000FEF78FFB0020FEF78CFBF320FEF789FB9B
:104E70000020FEF786FBE620FEF783FB0020FEF70E
:104E800080FBC520FEF77AFB3220FEF77AFB00207C
:104E9000FEF777FB4420FEF774FB0020FEF771FB62
:104EA0006520FEF76EFB0020FEF76BFB7620FEF719
:104EB00068FB0020FEF765FB8820FEF762FB002000
:104EC000FEF75FFBC620FEF759FB2020FEF759FBDB
:104ED0000020FEF756FB1720FEF753FB0020FEF7DD
:104EE00050FB0120FEF74DFB0020FEF74AFBC720D8
:104EF000FEF744FB0020FEF744FB0020FEF741FBD9
:104F00000020FEF73EFB0020FEF73BFBC820FEF72B
:104F100035FB0020FEF735FB0020FEF732FB0020BA
:104F2000FEF72FFB0020FEF72CFBC920FEF726FB27
:104F30000020FEF726FB0020FEF723FB0020FEF7F3
:104F400020FB0020FEF71DFB0020FEF71AFB0020CF
:104F5000FEF717FB0020FEF714FB0020FEF711FB05
:104F60000020FEF70EFB0020FEF70BFB0020FEF7F3
:104F700008FB0020FEF705FB0020FEF702FB0020E7
:104F8000FEF7FFFA0020FEF7FCFA0020FEF7F9FA20
:104F9000E020FEF7F3FA1620FEF7F3FA0020FEF702
:104FA000F0FA1C20FEF7EDFA0020FEF7EAFA2120C5
:104FB000FEF7E7FA0020FEF7E4FA3620FEF7E1FA02
:104FC0000020FEF7DEFA4620FEF7DBFA0020FEF7AF
:104FD000D8FA5220FEF7D5FA0020FEF7D2FA642064
:104FE000FEF7CFFA0020FEF7CCFA7A20FEF7C9FAD6
:104FF0000020FEF7C6FA8B20FEF7C3FA0020FEF76A
:10500000C0FA9920FEF7BDFA0020FEF7BAFAA820F0
:10501000FEF7B7FA0020FEF7B4FAB920FEF7B1FAAE
:105020000020FEF7AEFAC420FEF7ABFA0020FEF730
:10503000A8FACA20FEF7A5FA0020FEF7A2FAD220AD
:10504000FEF79FFA0020FEF79CFAD920FEF799FAA6
:105050000020FEF796FAE020FEF793FA0020FEF714
:1050600090FAF320FEF78DFA0020FEF78AFAE1208D
:10507000FEF784FA1620FEF784FA0020FEF781FA84
:105080001C20FEF77EFA0020FEF77BFA2220FEF7B6
:1050900078FA0020FEF775FA3620FEF772FA002043
:1050A000FEF76FFA4520FEF76CFA0020FEF769FA6A
:1050B0005220FEF766FA0020FEF763FA6420FEF73E
:1050C00060FA0020FEF75DFA7A20FEF75AFA002017
:1050D000FEF757FA8B20FEF754FA0020FEF751FA3C
:1050E0009920FEF74EFA0020FEF74BFAA820FEF7B3
:1050F00048FA0020FEF745FAB920FEF742FA0020F0
:10510000FEF73FFAC420FEF73CFA0020FEF739FA1A
:10511000CA20FEF736FA0020FEF733FAD220FEF757
:1051200030FA0020FEF72DFAD820FEF72AFA0020E8
:10513000FEF727FAE020FEF724FA0020FEF721FA16
:10514000F320FEF71EFA0020FEF71BFAE220FEF71E
:1051500015FA0520FEF715FA0020FEF712FA0B20CB
:10516000FEF70FFA0020FEF70CFA1B20FEF709FAF3
:105170000020FEF706FA3420FEF703FA0020FEF7BF
:1051800000FA4420FEF7FDF90020FEF7FAF94F205F
:10519000FEF7F7F90020FEF7F4F96120FEF7F1F9C8
:1051A0000020FEF7EEF97920FEF7EBF90020FEF77C
:1051B000E8F98820FEF7E5F90020FEF7E2F99720EC
:1051C000FEF7DFF90020FEF7DCF9A620FEF7D9F99B
:1051D0000020FEF7D6F9B720FEF7D3F90020FEF73E
:1051E000D0F9C220FEF7CDF90020FEF7CAF9C7209A
:1051F000FEF7C7F90020FEF7C4F9D120FEF7C1F988
:105200000020FEF7BEF9D620FEF7BBF90020FEF71E
:10521000B8F9DD20FEF7B5F90020FEF7B2F9F3206A
:10522000FEF7AFF90020FEF7ACF9E320FEF7A6F990
:105230000520FEF7A6F90020FEF7A3F90A20FEF7E5
:10524000A0F90020FEF79DF91C20FEF79AF9002036
:10525000FEF797F93320FEF794F90020FEF791F955
:105260004420FEF78EF90020FEF78BF95020FEF760
:1052700088F90020FEF785F96220FEF782F9002008
:10528000FEF77FF97820FEF77CF90020FEF779F928
:105290008820FEF776F90020FEF773F99720FEF7D5
:1052A00070F90020FEF76DF9A620FEF76AF90020DC
:1052B000FEF767F9B720FEF764F90020FEF761F901
:1052C000C220FEF75EF90020FEF75BF9C720FEF76B
:1052D00058F90020FEF755F9D120FEF752F90020C9
:1052E000FEF74FF9D520FEF74CF90020FEF749F9FB
:1052F000DD20FEF746F90020FEF743F9F320FEF724
:1053000040F90020FEF73DF9E420FEF737F90120CF
:10531000FEF737F90020FEF734F90120FEF731F9E6
:105320000020FEF72EF90220FEF72BF90020FEF7F1
:1053300028F92A20FEF725F90020FEF722F93C2063
:10534000FEF71FF90020FEF71CF94B20FEF719F9B4
:105350000020FEF716F95D20FEF713F90020FEF796
:1053600010F97420FEF70DF90020FEF70AF98420E9
:10537000FEF707F90020FEF704F99320FEF701F984
:105380000020FEF7FEF8A220FEF7FBF80020FEF753
:10539000F8F8B320FEF7F5F80020FEF7F2F8BE208B
:1053A000FEF7EFF80020FEF7ECF8C420FEF7E9F86E
:1053B0000020FEF7E6F8CD20FEF7E3F80020FEF728
:1053C000E0F8D320FEF7DDF80020FEF7DAF8DD2064
:1053D000FEF7D7F80020FEF7D4F8F320FEF7D1F857
:1053E0000020FEF7CEF8E520FEF7C8F80020FEF713
:1053F000C8F80020FEF7C5F80020FEF7C2F800202C
:10540000FEF7BFF80220FEF7BCF80020FEF7B9F85F
:105410002920FEF7B6F80020FEF7B3F83C20FEF78F
:10542000B0F80020FEF7ADF84B20FEF7AAF80020F8
:10543000FEF7A7F85D20FEF7A4F80020FEF7A1F81C
:105440007420FEF79EF80020FEF79BF88420FEF7FC
:1054500098F80020FEF795F89320FEF792F80020C8
:10546000FEF78FF8A220FEF78CF80020FEF789F8EF
:10547000B320FEF786F80020FEF783F8BE20FEF783
:1054800080F80020FEF77DF8C420FEF77AF80020AF
:10549000FEF777F8CD20FEF774F80020FEF771F8DC
:1054A000D320FEF76EF80020FEF76BF8DC20FEF745
:1054B00068F80020FEF765F8F320FEF762F8002098
:1054C000FEF75FF8E620FEF759F81120FEF759F8CD
:1054D0000020FEF756F83420FEF753F80020FEF7C0
:1054E00050F85620FEF74DF80020FEF74AF87620D7
:1054F000FEF747F80020FEF744F87720FEF741F862
:105500000020FEF73EF86620FEF73BF80020FEF78D
:1055100038F88820FEF735F80020FEF732F8992099
:10552000FEF72FF80020FEF72CF8BB20FEF729F835
:105530000020FEF726F89920FEF723F80020FEF75A
:1055400020F86620FEF71DF80020FEF71AF8552017
:10555000FEF717F80020FEF714F85520FEF711F8B3
:105560000020FEF70EF84520FEF70BF80020FEF7AE
:1055700008F84320FEF705F80020FEF702F8442063
:10558000FDF7FFFF0020FDF7FCFFE720FDF7F6FF2A
:105590003220FDF7F6FF0020FDF7F3FF5520FDF761
:1055A000F0FF0020FDF7EDFF7620FDF7EAFF002079
:1055B000FDF7E7FF6620FDF7E4FF0020FDF7E1FFC0
:1055C0006720FDF7DEFF0020FDF7DBFF6720FDF71A
:1055D000D8FF0020FDF7D5FF8720FDF7D2FF002080
:1055E000FDF7CFFF9920FDF7CCFF0020FDF7C9FFA5
:1055F000BB20FDF7C6FF0020FDF7C3FF9920FDF794
:10560000C0FF0020FDF7BDFF7720FDF7BAFF0020A7
:10561000FDF7B7FF4420FDF7B4FF0020FDF7B1FF11
:105620005620FDF7AEFF0020FDF7ABFF2320FDF76E
:10563000A8FF0020FDF7A5FF3320FDF7A2FF002003
:10564000FDF79FFF4520FDF79CFF0020FDF799FF28
:10565000E820FDF793FF0020FDF793FF0020FDF702
:1056600090FF9920FDF78DFF0020FDF78AFF87202E
:10567000FDF787FF0020FDF784FF8820FDF781FFFD
:105680000020FDF77EFF7720FDF77BFF0020FDF770
:1056900078FF6620FDF775FF0020FDF772FF882078
:1056A000FDF76FFF0020FDF76CFFAA20FDF769FFF3
:1056B0000020FDF766FFBB20FDF763FF0020FDF72C
:1056C00060FF9920FDF75DFF0020FDF75AFF66207F
:1056D000FDF757FF0020FDF754FF5520FDF751FF60
:1056E0000020FDF74EFF5520FDF74BFF0020FDF792
:1056F00048FF4420FDF745FF0020FDF742FF44200E
:10570000FDF73FFF0020FDF73CFF5520FDF739FF77
:105710000020FDF736FFE920FDF730FFAA20FDF756
:1057200030FF0020FDF72DFF0020FDF72AFF0020AD
:10573000FDF727FF0020FDF721FFAA20FDF721FF3D
:10574000CF20FDF71BFF0020FDF71BFF0020FDF71A
:1057500018FF0020FDF715FF0020FDF712FF0020C5
:10576000FDF70FFF0020FDF70CFF0020FDF709FFFC
:105770000020FDF706FF0020FDF703FF0020FDF7E6
:1057800000FF0020FDF7FDFE0020FDF7FAFE0020DF
:10579000FDF7F7FE0020FDF7F4FE0020FDF7F1FE17
:1057A0000020FDF7EEFE0020FDF7EBFEF020FDF7F8
:1057B000E5FE0020FDF7E5FE5020FDF7E2FE0020AB
:1057C000FDF7DFFE0020FDF7DCFE0020FDF7D9FE2F
:1057D000F320FDF7D3FE0020FDF7D3FEF920FDF7FF
:1057E000CDFE0620FDF7CDFE1020FDF7CAFE2920D4
:1057F000FDF7C7FE0020FDF7C4FE3A20FDF7BEFE10
:105800005520FDF7BEFE1120FDF7B8FE642002F022
:105810005CFC2920FDF7B2FE3520FDF7AFFE00202D
:10582000FDF7AFFE5120FDF7A9FEFF20FDF7A9FE11
:105830005320FDF7A3FE2C20FDF7A3FE5520FDF716
:105840009DFE8220FDF79DFE2C20FDF797FE02F0C5
:10585000E9B8FE48808845F2105188427ED1552132
:105860004FF47040FDF799FEAA214FF20100FDF7B9
:1058700094FE52214FF20200FDF78FFE08214FF2F5
:105880000300FDF78AFE01214FF20400FDF785FEBB
:105890000D214FF43040FDF780FE0D214BF2010049
:1058A000FDF77BFE0D214BF20200FDF776FE342161
:1058B0004FF43640FDF771FE34214BF20160FDF7E5
:1058C0006CFE34214BF20260FDF767FE0D214FF4B0
:1058D0003140FDF762FE0D214BF20110FDF75DFE38
:1058E0000D214BF20210FDF758FE34214FF43740E2
:1058F000FDF753FE34214BF20170FDF74EFE3421CB
:105900004BF20270FDF749FE00214FF43240FDF7E3
:1059100044FE00214BF20120FDF73FFE00214BF237
:105920000220FDF73AFE24214FF43840FDF735FE02
:1059300024214BF60100FDF730FE24214BF6020036
:10594000FDF72BFE01214FF43F40FDF726FE0F210E
:105950004FF43340FDF721FE0F2100E0FEE34BF250
:105960000130FDF71AFE0F214BF20230FDF715FE54
:1059700034214FF43940FDF710FE34214BF601106D
:10598000FDF70BFE34214BF60210FDF706FE082151
:105990004FF43540FDF701FE08214BF20150FDF7B1
:1059A000FCFD08214BF20250FDF7F7FD03214FF4F7
:1059B0004240FDF7F2FD24214FF43A40FDF7EDFDA2
:1059C00024214BF60120FDF7E8FD24214BF60220AF
:1059D000FDF7E3FD00214FF43C40FDF7DEFD7821AB
:1059E0004BF60140FDF7D9FD00214BF60240FDF7D3
:1059F000D4FD00214FF43D40FDF7CFFD78214BF65B
:105A00000150FDF7CAFD00214BF60250FDF7C5FD20
:105A100000214FF43E40FDF7C0FD64214BF60160CC
:105A2000FDF7BBFD00214FF45140FDF7B6FD3321DA
:105A30004DF20110FDF7B1FD00214DF20210FDF70E
:105A4000ACFD34214DF20310FDF7A7FD00214DF20E
:105A50000410FDF7A2FD3A214DF20510FDF79DFD62
:105A600000214DF20610FDF798FD4A214DF2071076
:105A7000FDF793FD00214DF20810FDF78EFD5C212E
:105A80004DF20910FDF789FD00214DF20A10FDF7D6
:105A900084FD81214DF20B10FDF77FFD00214DF2B9
:105AA0000C10FDF77AFDA6214DF20D10FDF775FDE6
:105AB00000214DF20E10FDF770FDE5214DF20F10A3
:105AC000FDF76BFD01214DF21010FDF766FD13216E
:105AD0004DF21110FDF761FD01214DF21210FDF79D
