:020000040800F2
:100000007047002055820008B1030008B3030008C0
:10001000B7030008BB030008BF030008000000008E
:10002000000000000000000000000000C303000802
:10003000C503000800000000C7030008C90300084A
:100040006F8200086F8200086F8200086F820008CC
:100050006F8200086F8200086F8200086F820008BC
:100060006F8200086F8200086F8200086F820008AC
:100070006F8200086F8200086F8200086F8200089C
:100080006F8200086F8200086F8200086F8200088C
:100090006F8200086F8200086F8200086F8200087C
:1000A0006F8200086F8200086F8200086F8200086C
:1000B0006F820008470700086F8200086F820008FF
:1000C0006F8200086F8200086F8200086F8200084C
:1000D0006F820008CB8100081D240008F920000869
:1000E0006F8200086F8200086F8200086F8200082C
:1000F0006F8200086F8200086F8200086F8200081C
:100100006F8200086F8200086F8200086F8200080B
:100110006F8200086F8200086F8200089D08000847
:100120006F8200086F8200086F8200086F820008EB
:1001300000F002F800F0A0F80AA090E8000C824459
:100140008344AAF10107DA4501D100F095F8AFF236
:10015000090EBAE80F0013F0010F18BFFB1A43F0A5
:10016000010318477C0E01009C0E01000A4410F8A0
:10017000014B14F00F0508BF10F8015B240908BFFC
:1001800010F8014B6D1E05D010F8013B6D1E01F8F3
:10019000013BF9D1641E03D0641E01F8015BFBD161
:1001A0009142E4D37047000000230024002500267C
:1001B000103A28BF78C1FBD8520728BF30C148BFCA
:1001C0000B6070476E290AF0858670290AF08B84CF
:1001D00066290FF07C8065290FF0798067290FF080
:1001E00076806129AFF3008003681B0A28BF41F0C5
:1001F000800169290AF0FC8364290AF0F9837529D2
:100200000AF0F6836F290BF08B8178290AF0578466
:10021000E9290BF02581E4290BF02281F5290BF067
:100220001F81EF290BF08881F8290AF056840368B2
:10023000DB0928BF41F0800163290BF0948073290A
:100240000BF09980E3290BF0E582F3290BF0EA82A9
:10025000002070471FB50BF041FA04000020002178
:100260000EF0AEF9401C6060002000210EF0BEF9D7
:10027000E0601FBD10B510BD0BF0BFFB1146FFF7CE
:10028000E9FF00F009F80BF02FFE03B4FFF7F2FFCF
:1002900003BC07F03FFF00004FF4A06007F0FAFF37
:1002A0009C21062001F048FB07F0CAFE642007F0FD
:1002B00004FF0121402008F06AFB4FF4E13007F011
:1002C00038FF41F61F4140F2E73000F011FA4FF4D9
:1002D000E13002F03BF803F0F2FF012003F0D1FD22
:1002E00001F014F900F062F900F084F902F0D2F99B
:1002F0004FF4165001F036FB44E023480068012813
:1003000001D101F07AFE2148007801281AD1204855
:100310000078012816D100201C49087003F050F81D
:100320001C48007801280DD11B480078401C1A4950
:1003300008701A480078401C184908701648007860
:1003400001F027F915480078322801DD02F0A2F902
:1003500013480068012802D10020114908601148A3
:10036000007801280ED100200E4908700E48006860
:10037000C0430E49C1F898010846D0F89401C04323
:10038000C1F89401B9E700001800002050000020D7
:1003900051000020F8000020E2000020E1000020D1
:1003A0004C0000205300002098012342000023420B
:1003B000704700BFFEE700BFFEE700BFFEE700BFDB
:1003C000FEE7704770477047704700000CB500208B
:1003D000019000906C48006840F480306A490860E1
:1003E00000BF6948006800F4003000900198401C8C
:1003F0000190009818B90198B0F5A06FF1D162484A
:10040000006800F4003010B10120009001E00020ED
:1004100000900098012843D15C48006840F010002B
:100420005A4908600846006820F003000860084642
:10043000006840F002000860534840685249486034
:100440000846406848600846406840F4806048605C
:100450000846406820F47C1048600846406840F434
:10046000E81048600846006840F08070086000BFEF
:100470004548006800F000700028F9D04248406804
:1004800020F00300404948600846406840F0020000
:10049000486000BF3C48406800F00C000828F9D1D3
:1004A0000CBD10B5FFF792FF10BD10B536480068BF
:1004B00040F001003449086008464068344908406B
:1004C0003149486008460068324908402E490860B2
:1004D0000846006820F4802008600846406820F440
:1004E000FE0048604FF41F008860FFF7DAFF4FF00E
:1004F00000602949086010BD10B5002100200022CD
:10050000214B5B6803F00C0121B1042906D00829B6
:1005100028D107E0214B224C236027E01F4B204CC1
:10052000236023E0184B5B6803F47010164B5B6884
:1005300003F48032022303EB904022B9194B43436A
:10054000174C23600DE0104B5B6803F4003323B1BC
:10055000144B4343124C236003E0104B4343104CB5
:10056000236003E00D4B0E4C236000BF00BF064B21
:100570005B68C3F303130C4CE15C094B1B68CB4075
:10058000074C236010BD0000001002400020024014
:100590000000FFF8FFFFF6FE08ED00E000127A0011
:1005A0000000002000093D000400002008B50121E2
:1005B000402008F0F9F92020ADF8000010208DF857
:1005C000030003208DF802006946094807F030FF58
:1005D0002021074807F0D9FF4020ADF80000694608
:1005E000034807F025FF4021014807F0CEFF08BD72
:1005F0000018014008B50121442008F0D5F91C205D
:10060000ADF8000048208DF803006946354807F032
:100610000FFF0120ADF8000028208DF80300694687
:10062000314807F005FF08BD10B5044614B101209C
:100630002E4908702D480078002837D0102129480D
:1006400007F089FF78B10821264807F084FF50B1F0
:100650000421244807F07FFF28B10121224807F038
:100660007AFF012822D10A2007F027FD00201F4928
:10067000087010211B4807F06EFF08B9012010BD5B
:100680000821184807F067FF08B90220F7E704219E
:10069000144807F060FF08B90320F0E70121124871
:1006A00007F059FF01281BD10420E8E710210D486D
:1006B00007F051FF012813D108210A4807F04BFF2A
:1006C00001280DD10421074807F045FF012807D173
:1006D0000121054807F03FFF10B9012003490870C8
:1006E0000020CCE700180140000801401400002061
:1006F0007FB505460C460121022008F062F9ADF8ED
:100700000850ADF804400020ADF80A00ADF806002E
:1007100001A9834808F084FC01221146804808F0B2
:10072000F6FF1D208DF8000001208DF801008DF8E6
:1007300002008DF80300684607F0B1FD01217848FA
:1007400008F0CAFF7FBD7FB50121754809F08DFA19
:1007500000287DD00121724809F098FA714800689C
:10076000401C704908607048007808B901F0F6F83C
:100770006E480078062804D2DFE800F00304058EF6
:10078000060789E088E087E086E0664800680A217D
:10079000B0FBF1F201FB120010B9012064490870AE
:1007A0006448007880B964480078401C6249087049
:1007B000084600784FF4967190FBF1F201FB1200AD
:1007C00010B901205B490870564800686421B0FBED
:1007D000F1F201FB120000284AD1584800780128A4
:1007E00046D10020554908704E4800680F21B0FBE3
:1007F000F1F201FB1200002837D15149514801F0B4
:10080000EEFB4F4803C8CDE900014E480CC84EA08E
:100810000AF07CF84A4803C8CDE90201494803C8F8
:10082000CDE90001504851490CC803C900F012FD40
:10083000044600224E4B0EF035FA4E4A03C24D4894
:100840000CC84DA00AF062F83E48D0E9001000E064
:1008500023E0464AC2E900103948D0E90010424A74
:10086000C2E9001001204B49086000204A49086095
:100870004A48007878B94A480068401C48490860EE
:10088000084600686421B0FBF1F201FB120010B9C8
:1008900001204249087000BF00BF7FBD10B5012193
:1008A000404809F0E2F968B13F48008840F4004050
:1008B0003D49088001213B4809F0E8F90021394809
:1008C00008F00AFF10BD7FB505460C460121202027
:1008D00008F077F8ADF80450ADF800400020ADF80E
:1008E0000600ADF8020069462E4808F099FB012287
:1008F00011462C4808F00BFF01212A4808F0ECFEB5
:1009000037208DF80C0000208DF80D008DF80E00BA
:1009100001208DF80F0003A807F0C1FC7FBD000087
:10092000000400405400002044000020E3000020A8
:10093000530000205000002058000020C900002073
:100940002800002020000020C2CBB2A8BAF3B5C412
:10095000B0D9B6C8B5D8CDBCCEB3B6C825662CBE06
:10096000ADB6C825660D0A00380000203000002012
:1009700000408F40D80000200D0AC1BDB4CEC9CFC1
:10098000B4ABB5C4BEE0C0EBCEAA256C666D0D0A53
:10099000000000001800002040000020520000204D
:1009A0005C00002000140040781F00202DE9F04179
:1009B00004460D46FE480CC8204629460EF072F942
:1009C00006460022FB4B0DF015FFBDE8F0812DE936
:1009D000F04F91B006460F4614461D463046394644
:1009E0000EF09CF81090002801DB109901E010999E
:1009F000494208460EF0EFF8CDE90A010DF0BAFDC4
:100A0000ED4AEE4BCDE90C010EF04CF9EA4AEC4B05
:100A1000CDE90E01304639460EF044F922462B4608
:100A2000CDE908010EF03EF922462B46CDE90C0136
:100A3000E148E2490EF036F922462B46CDE90401A1
:100A40000EF030F922462B46CDE908010020DD49A1
:100A50000EF028F900224FF08043CDE90401304622
:100A600039460EF01FF90022D74BCDE900010DF0F9
:100A700005FECDE90201DDE904230DF0FFFDCDE91E
:100A80000601DDE908230DF0F9FDCDE90A01DDE9F4
:100A90000C230DF0F3FD8246DDE90E230DF0EEFD93
:100AA0008046894600224FF08043304639460EF09A
:100AB000F9F88246BE480CC850460EF0F3F8CDE96E
:100AC00002010DF007FD0022C04BCDE904010EF03C
:100AD000E9F80022BE4BCDE90801304639460EF058
:100AE000E1F88246B2480CC850460EF0DBF8CDE97A
:100AF00002010DF0EFFC0022B44BCDE904010EF031
:100B0000D1F8CDE90601DDE908230DF0B7FD00229B
:100B10004FF08043CDE90A010EF0C4F80022A94B42
:100B2000CDE90C010DF066FE42464B46CDE90E01C3
:100B30000DF0A4FD804689460022A24B204629469E
:100B40000DF058FE82469A480CC850460EF0AAF89E
:100B5000CDE902010DF0BEFC00229E4BCDE904015F
:100B60000EF0A0F8CDE9080191480CC820462946AE
:100B70000EF098F8CDE904010DF0ACFC824600229D
:100B8000924B0EF08FF8CDE90601DDE908230DF058
:100B900075FD00224FF08043CDE90A010EF082F886
:100BA0000022884BCDE90C010DF024FE42464B4655
:100BB000CDE90E010DF062FD804689467C480CC8E7
:100BC000204629460EF06EF80022834BCDE9020143
:100BD0000DF010FE82460DF07DFC00227F4BCDE92A
:100BE00004010EF05FF800227D4BCDE9080120469C
:100BF00029460DF0FFFDCDE902016D480CC80298B1
:100C00000EF050F882460DF065FC0022754BCDE9E0
:100C100004010EF047F8CDE90601DDE908230DF0E7
:100C20002DFD00224FF08043CDE90A010EF03AF885
:100C30000022644BCDE90C010DF0DCFD42464B4631
:100C4000CDE90E010DF01AFD804689464046494621
:100C500011B0BDE8F08F2DE9F04F8FB004460D467E
:100C600092469B46204629460DF058FF0E900028DC
:100C700001DB0E9901E00E99494208460DF0ABFFE9
:100C8000CDE908010DF076FC4B4A4D4BCDE90A0148
:100C90000EF008F8484A4A4BCDE90C012046294697
:100CA0000EF000F852465B46CDE906010DF0FAFF62
:100CB000414A434BCDE90A01204629460DF0F2FF97
:100CC00022462B46CDE902010DF0ECFF52465B4671
:100CD000CDE9060100204FF080410DF0E3FF002236
:100CE000414BCDE90201204629460DF0C7FCCDE974
:100CF0000001DDE902230DF0C1FCCDE90401DDE9CD
:100D000006230DF0BBFCCDE90801DDE90A230DF057
:100D1000B5FC8046DDE90C230DF0B0FC06460F461D
:100D200000224FF08043204629460DF0BBFF80464D
:100D30001F480CC840460DF0B5FFCDE900010DF08D
:100D4000C9FB0022214BCDE902010DF0ABFF0022CF
:100D50001F4BCDE90601204629460DF0A3FF804632
:100D600013480CC840460DF09DFFCDE900010DF081
:100D7000B1FB0022154BCDE902010DF093FFCDE947
:100D80000401DDE906230DF079FC00224FF08043D9
:100D9000CDE908010DF086FF00220A4BCDE90A01DA
:100DA0000DF028FD32463B46CDE90C011EE0000067
:100DB00060000020008066409A9999999999C93FEE
:100DC0009999B93F00000840000059C00000344024
:100DD000000018400000444000003E400000744005
:100DE000000028400000644000C072400DF046FC46
:100DF00006460F460022FE4B204629460DF0FAFC1F
:100E0000CDE90001FB480CC800980DF04BFF80466F
:100E10000DF060FB0022F84BCDE902010DF042FF1E
:100E2000CDE90601F3480CC8204629460DF03AFFEB
:100E3000CDE902010DF04EFB80460022EF4B0DF094
:100E400031FFCDE90401DDE906230DF017FC002296
:100E50004FF08043CDE908010DF024FF0022E44B60
:100E6000CDE90A010DF0C6FC32463B46CDE90C0146
:100E70000DF004FC06460F460022E14B20462946B1
:100E80000DF0B8FC8046DB480CC840460DF00AFF68
:100E9000CDE900010DF01EFB0022DA4BCDE9020185
:100EA0000DF000FF0022D84BCDE90601204629466F
:100EB0000DF0A0FCCDE90001CE480CC800980DF063
:100EC000F1FE80460DF006FB0022D04BCDE9020179
:100ED0000DF0E8FECDE90401DDE906230DF0CEFBBF
:100EE00000224FF08043CDE908010DF0DBFE002227
:100EF000BF4BCDE90A010DF07DFC32463B46CDE902
:100F00000C010DF0BBFB06460F46304639460FB0CC
:100F1000BDE8F08F2DE9F04F93B004460D4616461C
:100F20001F460022BA4B204629460EF0E1F8002267
:100F3000B84BCDE90A01304639460EF0D9F8CDE973
:100F40000801DDE90A23FFF742FD82468B460022B5
:100F5000AF4B204629460EF0CBF80022AD4BCDE931
:100F60000A01304639460EF0C3F8CDE90801DDE943
:100F70000A23FFF770FECDE910010022A64B2046A0
:100F800029460DF037FCCDE90A019A480CC80A98A9
:100F90000DF088FECDE90E01DDE90E010DF09AFAA3
:100FA0008046894642464B469C4903C90DF07AFE6D
:100FB00042464B46CDE908010DF074FE0022984BE5
:100FC000CDE90A010DF0A2FF804689464046494618
:100FD0000DF0D0FACDE90C0140464946DDE90C237D
:100FE0000DF060FECDE904018C480CC800208C494E
:100FF0000EF07EF8CDE900018A480CC800980DF08B
:1010000051FECDE90201DDE904230DF0F3FBCDE94A
:10101000060178480CC806980DF044FE00227E4B6D
:10102000CDE90A01504659460DF03CFECDE90801D4
:10103000DDE90A230DF0DEFB82468B46DDE90E0179
:101040000CF0A8FCCDE904017649DDE90C2303C9C5
:101050000DF0D0FBCDE90201DDE904230DF022FE05
:10106000CDE9060163480CC806980DF01BFE00226E
:10107000694BCDE90A01DDE910010DF013FECDE960
:101080000801DDE90A230DF0B5FBCDE91001524658
:101090005B46204629460DF0F1FA1C9A03C2304601
:1010A0003946DDE910230DF0E9FA1D9A03C213B0A9
:1010B000BDE8F08F2DE9F04F8FB004460D4616467F
:1010C0001F46B046B946A246AB4657480CC85046E4
:1010D00059460DF0E7FDCDE902010DF0FBF9534A49
:1010E000534BCDE904010DF0DDFD52465B46CDE9E1
:1010F0000801504659460DF0D5FD42464B46CDE914
:101100000201404649460DF0CDFDCDE90001DDE983
:1011100002230DF0B3FACDE904010DF02BFACDE96D
:101120000601DDE908230DF0A9FACDE90C013E48DE
:101130000CC8404649460DF0B5FDCDE902010CF062
:1011400029FC3C4A3C4BCDE904010DF0ABFD424685
:101150004B46CDE90801504659460CF045FBCDE918
:101160000601DDE908230DF089FACDE90A01DDE980
:101170000A010CF00FFCCDE90601DDE90C230DF0AE
:1011800091FD2E4A2E4BCDE908010DF077FA199A00
:1011900003C2DDE90A010DF09DF9CDE90601DDE9A3
:1011A0000C230DF07FFD274A274BCDE908010DF0F8
:1011B00065FA189A03C20FB0BDE8F08F2DE9FF5F02
:1011C00004460D4616461F46DDE90EAB32463B4649
:1011D00020462946CDE900ABFFF79CFECDE900ABE8
:1011E000DBE90083DAE900014246CDE902012DE0A6
:1011F000000008406000002000004440000034402F
:1012000000003E4000C072400000284000C0624024
:101210000080414000405A40008066406800002045
:101220000000F03F7000002078000020F168E388A3
:10123000B5F8F43E54E41071732AC93E39B4C87647
:10124000BE9F7A3FFA7E6ABC7493783FFFF732FF05
:10125000BDE8FF9F2DE9F04F9BB006460F46924632
:101260009B4650485049CDE9180130463946FFF7B2
:101270009DFB80468946DDE92401FFF797FBCDE918
:10128000160140464946DDE916230DF031FFCDE950
:101290001401DDE92601FFF789FBCDE91001504675
:1012A0005946FFF783FBCDE90E01DDE910230DF070
:1012B0001FFFCDE9120100224FF08043DDE912014A
:1012C0000DF098FACDE900010DF004F900224FF07D
:1012D0008043CDE902010CF011FCCDE90601DDE906
:1012E00016010CF057FBCDE90201404649460CF0CF
:1012F00051FBCDE90001DDE902230DF0D3FCCDE97E
:101300000401DDE906230DF0CDFC00224FF08043FF
:10131000CDE90A01DDE914010DF06CFACDE9040113
:101320000DF0D8F800224FF08043CDE906010CF013
:10133000E5FBCDE90801DDE90A230DF09FF9CDE9D0
:101340000C010DF017F9CDE90E010CF005F80022A3
:101350004FF08043CDE910010DF0A4FC04460D468A
:1013600020462946DDE918230DF09CFC04460D4675
:1013700000220E4B204629460DF094FCCDE90C01CD
:101380000DF0FCFB0F900DF03DFC0022074BCDE96A
:1013900010010DF02FFA04460D46204629461BB0D9
:1013A000BDE8F08F8D976E1223EAB8400088C340E5
:1013B0000146088870472DE9F04105460E4617465C
:1013C000002407E036F81410284608F0CAFDAD1CCA
:1013D000601C84B2BC42F5DBBDE8F08130B5034649
:1013E0000C461546002207E01846FFF7E1FF24F8F7
:1013F00012009B1C501C82B2AA42F5DB30BD2DE9C5
:10140000F05F80468A461746B8F1006F02D3FB486A
:10141000804501D3BDE8F09F08F05BFCA8F1006BAC
:101420004FEADB25CBF34909C9F58064A74200DC0C
:101430003C464DE04FF0006101EBC5204A14F049F5
:10144000FFF7CCFF00260BE009EB0600EC4931F872
:1014500010004FF6FF71884200D003E0701C86B286
:10146000A642F1DB00BFA6421BDA4FF0006101EBA0
:10147000C52008F073FC002608E03AF8160006EBD9
:101480000901DF4A22F81100701C86B2A642F4DB83
:101490004FF0006101EBC5204A14D949FFF78BFFDB
:1014A00004E0224651464046FFF785FFA74200D19F
:1014B0000FE06D1C4FF000090AEB440AA044381BF2
:1014C00087B2B7F5806F02DD4FF4806400E03C46E0
:1014D000B0E700BF08F009FC00BF9BE713B5044666
:1014E000012201A92046FFF78AFF1CBD10B508F0B4
:1014F000CFFE0421C34808F0D4FEC2490861012090
:1015000048610C22C048FFF77AFF10BD10B50024D7
:101510000C22BC49BC48FFF761FFBA48406901286A
:1015200013D108F0B5FE0421B64808F0BAFE04460F
:10153000B4480069A04205D1B2480068401CB149D6
:10154000086002E00020AF494861AE4840690128C8
:1015500008D00120AB490860002048608860C8605E
:1015600001204861FFF7C2FFA6480168A7A009F063
:10157000CDF9A4484168AAA009F0C8F9A14881683A
:10158000AEA009F0C3F99F48C168B2A009F0BEF946
:1015900010BD10B50446601CB54909784843B449EC
:1015A000097801EB4101B0EB410F09DCB049097842
:1015B000B04A04FB01205222AF49FFF720FF39E077
:1015C000052C0CDD0B2C0ADCA11FA94A1278AB4BB1
:1015D00001FB02305222A849FFF711FF2AE00B2C31
:1015E0000DDD112C0BDCA4F10C01A14A1278A44BE7
:1015F00001FB02305222A049FFF701FF1AE00B2C39
:101600000DDD112C0BDCA4F11201994A12789D4BCF
:1016100001FB023052229849FFF7F1FE0AE0A4F1E3
:101620001801934A1278984B01FB023052229249DA
:10163000FFF7E5FE95A009F069F9601CC4B21E2C05
:1016400000DB002410BD10B50446601C88490978F1
:1016500048438749097801EB4101B0EB410F11DCA8
:1016600083490978834A04FB012052229049FFF7FD
:10167000B5FE00208E497E4A127888548DA009F06C
:1016800045F959E0052C14DD0B2C12DCA11F784A1A
:1016900012787A4B01FB023052228549FFF79EFEF9
:1016A00000208349724A1278885482A009F02EF9EA
:1016B00042E00B2C15DD112C13DCA4F10C016C4A5B
:1016C00012786F4B01FB023052227949FFF786FEF8
:1016D00000207749664A1278885476A009F016F9F6
:1016E0002AE00B2C15DD112C13DCA4F11201604A49
:1016F0001278644B01FB023052226D49FFF76EFEF7
:1017000000206B495A4A127888546AA009F0FEF802
:1017100012E0A4F11801564A12785B4B01FB02302B
:1017200052226349FFF75AFE00206149504A12785D
:10173000885460A009F0EAF8601C44B21E2C00DB5B
:10174000002410BD2DE9F04707468846B7F1006F29
:1017500002D32A48874201D3BDE8F08708F0B9FADE
:10176000A7F1006A4FEADA24CAF34909C9F580658E
:10177000A84500DC454621E04FF0006101EBC420A4
:101780004A141F49FFF72AFE00260BE009EB06006A
:101790001B4931F810004FF6FF71884200D003E07A
:1017A000701C86B2AE42F1DB00BFAE4205DA4FF0EC
:1017B000006101EBC42008F0D1FA00E0DCE700BFD3
:1017C00008F093FA00BFC7E72DE9F04706460F4639
:1017D000B6F1006F02D30948864201D3BDE8F08715
:1017E00008F077FAA6F1006A4FEADA28CAF3490945
:1017F000C9F58064A74200DC3C4682E0000008088E
:1018000096020020601F002000040108C9E8B1B85A
:10181000C6F4B6AFB4CECAFDA3BA25640D0A000063
:10182000C9CFB4ABB7FECEF1C6F7CAA7B0DCB4CE11
:10183000CAFDA3BA25640D0A00000000706F73741E
:101840004572726F7254696D6573A3BA25640D0A8F
:1018500000000000475053B3ACCAB1CEB4B6A8CE16
:10186000BBB4CECAFDA3BA25640D0A0D0A00000060
:10187000D000002000EC0008F101002000F000087A
:1018800000F4000800F8000800FC0008CEB4C9CF3E
:10189000B4ABB3C9B9A6B5C4475053CAFDBEDDD277
:1018A000D1B1A3B4E6464C4153480D0A0D0A0000DD
:1018B0004C01002025730D0A000000004FF000616C
:1018C00001EBC8204A141249FFF788FD00250BE000
:1018D00009EB05000E4931F810004FF6FF71884200
:1018E00000D003E0681C85B2A542F1DB00BFA54231
:1018F00003DA08A009F00AF804E00BA009F006F8E2
:1019000000E0DBE700BF08F0F0F900BF66E7000089
:1019100096020020BCECD1E9B5C4464C415348B214
:10192000BBCEAABFD50D0A00BCECD1E9B5C4464C6C
:10193000415348BFD50D0A0070B505460C4645F227
:10194000555008F085FC284608F085FC204608F034
:1019500085FC08F086FC08F089FC70BD10B508F025
:1019600080FC10BD10B586B004460121082007F0A8
:101970001BF80121880407F024F8FE4807F078F8E6
:101980004FF40060ADF8100004208DF8130004A996
:10199000F94806F04DFD00940020ADF80400ADF8C4
:1019A0000600ADF80800ADF80C000420ADF80A0000
:1019B0006946F04807F09FF80121EE4807F027F943
:1019C000012240F22551EB4807F02DF90122602158
:1019D000E84807F028F9002240F22771E54807F0AF
:1019E00022F927208DF8140002208DF8150001201F
:1019F0008DF816008DF8170005A806F050FC06B00B
:101A000010BD0021DD4A1160DD4A1170DD4A1180F0
:101A1000002005E00021DC4A42F82010411CC8B239
:101A20001428F7DB7047D94800790830D749087186
:101A300008460079182879DB0846007918380871BB
:101A40000846C078401CC870084680780D287CD2B3
:101A5000DFE800F07B0744082709280A0B290C2A35
:101A60000D0000BF00BF00BF00BF00BF00BFC748E0
:101A7000C0781F2814DDC548C0781F38C349C87016
:101A800008468078401C8870084680780C2807DD5E
:101A9000084680780C38887008460088401C08800A
:101AA00053E000BF00BF00BFB848C0781E2814DD57
:101AB000B648C0781E38B549C87008468078401CC2
:101AC0008870084680780C2807DD084680780C3836
:101AD000887008460088401C088036E0AB490988B9
:101AE0004FF4C87291FBF2F302FB131181B1A749C5
:101AF0000888C11700EB91718910A0EB8101B1B981
:101B0000A2490988642291FBF2F302FB131171B11F
:101B10009E48C0781D2817DD9C48C0781D389B4919
:101B2000C87008468078401C88700DE00EE0974829
:101B3000C0781C2808DD9548C0781C389349C870C7
:101B400008468078401C887000BF00BF704770470F
:101B50002DE9F04F8BB0002400200990089000265A
:101B600081460025824607902C218948006801F0B3
:101B7000DCF8099009980C287ED186A18448006879
:101B800009F0C5F8064685A18148006809F0BFF84C
:101B90008146A9EB0600089000BF03E0305D80EAB3
:101BA0000A0A641C08988442F8D3102206A909F195
:101BB000010009F074F8C0B20790079850457DD134
:101BC00077A008F0A3FE02217148006801F096F8A2
:101BD00005466878412872D175A008F097FE01216A
:101BE0006B48006801F08AF805460622691C7348B4
:101BF00009F0BEF80020714988710321644800682B
:101C000001F07CF805460922691C6D4809F0B0F81E
:101C100000206B49487205215D48006801F06EF8AC
:101C200005460A22691C674809F0A2F800206549A8
:101C3000887209215648006801F060F805460622BE
:101C4000691C614809F094F800205F4988715C487C
:101C50000BF08AFE5D4A03C25C4903C90CF05EFFCB
:101C6000642190FBF1F000FB01FB58460CF0B3FF40
:101C7000CDE90001554800E053E10CC800980DF093
:101C800045F907460022524B0CF0B4FDCDE90401A2
:101C90004E4903C90CF042FF642190FBF1F738462E
:101CA0000CF099FFCDE90201DDE904230CF0E6FC1C
:101CB000464A03C243480BF057FE01E02BE126E100
:101CC000444A03C2434903C90CF028FF642190FB36
:101CD000F1F000FB01FB58460CF07DFFCDE900015F
:101CE0003C480CC800980DF011F907460022384B0B
:101CF0000CF080FDCDE90401364903C90CF00EFF5C
:101D0000642190FBF1F738460CF065FFCDE9020144
:101D1000DDE904230CF0B2FC2E4A03C22E482F4901
:101D2000CDE900102B4829490CC803C9FFF746FA32
:101D300000222B4B284903C90CF078FF14D3002252
:101D4000284B254903C90DF0ABF80DD30022264BD3
:101D5000224903C90CF06AFF06D30022234B1F4916
:101D600003C90DF09DF84DD221A008F0CFFD0BB0B6
:101D7000BDE8F08F00480040000C01408C000020BE
:101D80009000002088000020541E0020980A0020A7
:101D9000940000204750524D430000002A000000EC
:101DA000CAFDBEDDD0A3D1E9B3C9B9A60D0A0000B2
:101DB00041B6A8CEBBD3D0D0A70D0A009800002012
:101DC000AF1E0020A41E00209F000020A8000020BD
:101DD00000004E40B8000020C0000020B0000020ED
:101DE00000005240000061400000324000004B40C3
:101DF000B3ACB3F6C1CBD6D0B9FAB5C4B7B6CEA79B
:101E000000000000FE4801780078401CFC4A107079
:101E1000B1B900240EE0FB48D0E90010FA4A02EB09
:101E2000C402C2E90010F94903C9F94A02EBC4022D
:101E300003C2641C0A2CEED30120F64908701AE094
:101E4000F04903C9F04AF34B1B7802EBC30203C20B
:101E5000EE4903C9EE4AEF4B1B7802EBC30203C203
:101E6000EC480078401CEB490870084600780A28C6
:101E700001DB00200870E8480079303800EB800072
:101E80004FF4FA6101EB4001E348407930380844EF
:101E9000E2490880E048C1788078303800EB800063
:101EA00001EB40003038DD498870DB48417800782C
:101EB000303800EB800001EB40003038D749C87063
:101EC000D74841780078303800EB800001EB4000C3
:101ED0003038D2490871D248C1788078303800EB68
:101EE000800001EB40003038CC494871CC48417942
:101EF0000079303800EB800001EB40003038C749F2
:101F00008871FFF790FD0120C64908700CE0C6A05B
:101F100008F0FCFC08E0C8A008F0F8FC0BB0BDE835
:101F2000F08FC9A008F0F2FC00BFF7E72DE9F04FF1
:101F300087B082464FF0000B00BF00BF00BF0020FB
:101F400004900590DAE902100C4605460E46074655
:101F500000BF28E00AEBCB0103C932463B46CDE97E
:101F600002010CF063FE02D20AEBCB00C0C80AEB00
:101F7000CB0103C922462B46CDE902010CF090FFAC
:101F800002D20AEBCB0030C80AEBCB0003C8CDE984
:101F90000201DDE904230CF071FBCDE904010BF132
:101FA000010000F0FF0BBBF10A0FD3DB22462B46EA
:101FB000DDE904010DF09CF832463B46CDE9000115
:101FC0000DF096F80022A44BCDE902010CF012FCB2
:101FD000804689464046494607B0BDE8F08F70B557
:101FE00005460C468848FFF7A1FFC5E9000188486F
:101FF000FFF79CFFC4E9000170BD00B595B000205B
:102000009649087096480078C0B984488079834919
:102010004979824A1279814BDB78CDE90032CDE9EA
:1020200002107E48837802888EA11C3008F07AFC6A
:102030008B480078401C8A49087058E077488179BD
:1020400042790079754BDB78CDE90030CDE902218A
:1020500072488378028883A1C01D08F063FC894818
:1020600003788948C06888498968874A5268CDE9F9
:102070001303CDE911218448006884490A6867493F
:10208000C91DCDE90E121090814903C9CDE90C019B
:10209000804803C8CDE90A017F4803787A48C268BE
:1020A000806879494968CDE90723CDE9051076486C
:1020B00001687648026859481C30CDE90321029036
:1020C000764803C8CDE90001754876490CC87648C2
:1020D00008F028FC754908700846017874A008F0DB
:1020E00015FC01205D49087000205D490870002042
:1020F0007549086015B000BD10B540F22551734810
:1021000006F076FE012879D140F225516F4806F09D
:1021100099FE6E4806F0ECFDC1B26D480288008859
:10212000401C6B4B18806B48815418460088801EF9
:102130006849085C0D2805D018460088401E085CD8
:102140000A285AD16248008863490968401A02285F
:102150004FD960486049096808446049604A12786C
:1021600041F8220000215A480088801E594A115423
:102170005A485B49097850F821000078242833D167
:1021800056485749097850F82100407847282BD104
:1021900052485349097850F821008078502823D1BB
:1021A0004E484F49097850F82100C07852281BD179
:1021B0004A484B49097850F8210000794D2813D13D
:1021C00046484749097850F82100407943280BD107
:1021D00042484349097850F82100424908600846BE
:1021E000006808B1FFF7B4FC3D480078401C3C494A
:1021F0000870374800883849086075E08EE00000B4
:10220000E0000020B0000020101F0020C0000020CF
:10221000C01E0020C80000209F000020980A002057
:1022200098000020C9000020475053CEB4B3C9B96C
:10223000A6B6A8CEBB0D0A00CAFDBEDDD0A3D1E96B
:10224000BACDCAA7B0DC0000C3BBD3D03132B8F6D8
:10225000B6BABAC50D0A00000000204051000020A7
:10226000CA000020253034642D253032642D2530FD
:10227000326420253032643A253032643A253032D7
:102280006400000081000020601F0020CC000020BE
:1022900020000020280000208000002030000020C6
:1022A00038000020080F0108F1010020D0000020B4
:1022B000B4F2B0FCCAFDBEDDC9CFB4ABB4F3D0A15B
:1022C00025640D0A000000001800002000480040AE
:1022D00088000020CA0A00208C000020541E002024
:1022E00090000020940000201348008841F28831BB
:1022F000884203DA1148007814280FDB00201049C7
:1023000008600E4908700C490880002404E0002091
:102310000C4941F82400641C142CF8D308210A4805
:1023200006F050FD012806D10821074806F057FDA8
:10233000054806F0DDFC10BD88000020900000205C
:102340008C000020541E00200048004010B586B0CC
:1023500004460121042006F027FB0121480406F071
:1023600030FB5F4806F084FB0420ADF8100003202A
:102370008DF8120018208DF8130004A9594806F0B2
:1023800057F80820ADF8100004208DF8130004A9B8
:10239000544806F04DF800940020ADF80400ADF864
:1023A0000600ADF80800ADF80C000C20ADF80A00EE
:1023B00069464B4806F09FFB0121494806F027FC7F
:1023C000012240F22551464806F02DFC01226021F1
:1023D000434806F028FC002240F22771404806F0EE
:1023E00022FC26208DF8140002208DF81500002014
:1023F0008DF8160001208DF8170005A805F04FFF95
:1024000041F61F416320FEF75EFA0020364908803E
:102410000021364807F060F906B010BD10B540F253
:1024200025512F4806F0E4FC00B32D4806F060FC6F
:10243000C4B22D48008800F40040B8B92A4800888A
:1024400041F28831884212DA0021284807F0D8FB8F
:102450002548008818B90121244807F03DF9224990
:102460000888411C204A1180D11C0C5405E01E48EC
:10247000008840F400401C4908800821184806F0F4
:10248000A1FC012806D10821154806F0A8FC144833
:1024900006F02EFC10BD0FB438B505A80090144806
:1024A000009A049908F020FA00200090104808F0E3
:1024B00040FC85B200240DE000BF4021084806F032
:1024C00081FC0028F9D00A48015D054806F00CFCA3
:1024D000601C84B2AC42EFDB38BC5DF814FB00003A
:1024E0000044004000080140781F00200014004014
:1024F0000333002070B504460025EB48008800F443
:102500000040A8B1E848008848F6FF71084341F24E
:102510008831884203DB0021E44880F88713214694
:10252000E148C01C08F0F3FB05460DB1284670BD1C
:102530000020FCE70021DC4A1180002005E0002299
:10254000D949C91C0A54411C88B241F288318842D9
:10255000F5DB70472DE9F04105460E4614464FF075
:1025600000084FF4967005F0A8FDFFF7E3FFFF2D7C
:102570000AD200BFCE48008800F040000028F9D001
:10258000CB49091D0D8005E02846FFF784FFC9A04F
:10259000FFF781FF9EB194B106E03046FFF7AAFF36
:1025A0000746012005F089FD601E041E01D0002FA2
:1025B000F3D00CB94FF0FF380FB14FF00008404690
:1025C000BDE8F08110B5002409E0601CC4B22146CA
:1025D000B9A008F09BF9142C01DD00F05BF841F282
:1025E0008832BBA1BBA0FFF7B5FF0028EDD1BCA08E
:1025F00008F08CF910BD70B541F28832B4A1BCA0CE
:10260000FFF7A8FF05462DB1BBA008F07FF9012018
:10261000A5498870AEA0FFF76DFF04465CB1A4F138
:1026200013010F22B94808F0A3FB0020B749C87373
:10263000B7A008F06BF970BD70B541F28832A4A163
:10264000B7A0FFF787FF05461DB9B7A008F05EF9F0
:1026500005E0BBA008F05AF9012093498870BEA09C
:10266000FFF748FF04466CB114222146A7483238D0
:1026700008F07EFB0020A54932390875B7A008F0A4
:1026800045F905E0AEA008F041F9012086498870BF
:1026900070BD704770B500250020B6490870B64976
:1026A0000870FEF723FFFFF7F4FF0120B14908701F
:1026B00000BF0EE029466D1CB0A008F027F9322DAE
:1026C00007D3B5A008F022F901207749887000BF30
:1026D000FEE74FF4FA727EA1B9A0FFF73BFF041E9C
:1026E000E8D11CB1B8A008F011F9AAE0BCA008F02C
:1026F0000DF941F2883276A1BFA0FFF72BFF044607
:102700001CB9BFA008F002F902E0C1A008F0FEF871
:1027100041F288326EA1C2A0FFF71CFF04461CB92B
:10272000C2A008F0F3F802E0C7A008F0EFF8FFF746
:1027300083FFFFF760FF02208E49087000250EE03E
:1027400029466D1CC7A008F0E1F8142D07D3CCA0D2
:1027500008F0DCF801205449887000BFFEE740F61D
:10276000B832D0A1D1A0FFF7F5FE041EE8D11CB904
:10277000D1A008F0CBF802E0D3A008F0C7F840F6EB
:10278000B832D5A1D6A0FFF7E5FE04461CB9D7A004
:1027900008F0BCF809E040F6B8324DA1DAA0FFF726
:1027A000D9FE0446DBA008F0B1F803207149087097
:1027B00041F2883246A1DFA0FFF7CCFE04461CB9E7
:1027C000DFA008F0A3F802E0E4A008F09FF80025DD
:1027D00014E0E9A0FFF78EFE064629466D1C32463E
:1027E000E7A008F093F8782D05D3ECA008F08EF858
:1027F00001202D498870322005F05FFC41F28832BB
:1028000033A1EFA0FFF7A6FE041EE2D18CB9DAA037
:10281000FFF770FE00F10C060B2231463B481030EA
:1028200008F0A6FA0020394910310873E7A008F033
:102830006DF804204F490870FFF7C4FE05204D498C
:10284000087070BD10B54FF47A72E5A1E7A0FFF7EC
:1028500081FE04461CB9E9A008F058F802E0EBA09C
:1028600008F054F84FF47A72ECA1EEA0FFF772FE74
:1028700004461CB9EEA008F049F802E0F1A008F007
:1028800045F84FF47A7212A1F3A0FFF763FE0446F5
:102890001CB9F5A008F03AF802E0FAA008F036F802
:1028A00041F288320AA1FBE1781F00207B2F002033
:1028B000004400400D0A0000475053BFAAC6F4CAA6
:1028C000A7B0DCB4CECAFD2E2E2E25630D0A000063
:1028D0004F4B000041542B4750533D310000000046
:1028E000475053B4F2BFAAB3C9B9A60D0A000000FD
:1028F00041542B47534E0000B2E9D1AF494D4549F1
:10290000BAC5CAA7B0DC0D0A00000000063B0020D3
:10291000494D4549BAC53A2025730D0A000000000B
:1029200041542B474D520000B2E9D1AFC4A3BFE9D7
:10293000C8EDBCFEB0E6B1BEB3C9B9A60D0A000031
:10294000B2E9D1AFC4A3BFE9C8EDBCFEB0E6B1BEE9
:10295000CAA7B0DC0D0A000056000000C4A3BFE9FE
:10296000C8EDBCFEB0E6B1BE3A20257320200D0AAA
:1029700000000000E3000020E1000020D5FDD4DAD3
:10298000B3F5CABCBBAF4154D6B8C1EEBCAF6060B2
:102990006025640D0A0000000D0AB3F5CABCBBAF88
:1029A0004154D6B8C1EEBCAFCAA7B0DCA3ACD5FDCC
:1029B000D4DAD6D8C6F4B5A5C6ACBBFA0D0A000069
:1029C00041540D0A00000000B3F5CABCBBAF41542E
:1029D000D6B8C1EEBCAFCAA7B0DC0D0A000000003B
:1029E000B3F5CABCBBAF4154D6B8C1EEBCAFB3C996
:1029F000B9A60D0A00000000415445300000000057
:102A0000B9D8B1D5BBD8CFD4B3C9B9A60D0A000087
:102A1000B9D8B1D5BBD8CFD4CAA7B0DC0D0A000055
:102A200041542B434D45453D32000000B4F2BFAA4E
:102A3000C9CFB1A8CFEACFB8B4EDCEF3D0C5CFA2FD
:102A4000B3C9B9A60D0A0000B4F2BFAAC9CFB1A894
:102A5000CFEACFB8B4EDCEF3D0C5CFA2CAA7B0DCD1
:102A60000D0A0000D5FDD4DAB2E9D1AF53494DBF0C
:102A7000A8D7B4CCAC60606025640D0A00000000EB
:102A80000D0ABCECB2E253494DBFA8CAA7B0DCA303
:102A9000ACD5FDD4DAD6D8C6F4B5A5C6ACBBFA0D14
:102AA0000A000000524541445900000041542B43A4
:102AB00050494E3F00000000D2D1B2E5C8EB534967
:102AC0004DBFA80D0A000000CEB4B2E5C8EB5349D3
:102AD0004DBFA80D0A00000043524547000000000A
:102AE00041542B435245473F00000000CDF8C2E758
:102AF000D2D1BEADD7A2B2E1A3ACD4DAC2FED3CE5E
:102B0000C4A3CABDCFC2000041542B435245473D28
:102B100031000000CDF8C2E7D2D1BEADD7A2B2E1FC
:102B2000A3ACD4DAC2FED3CEC4A3CABDCFC20D0AB1
:102B30000000000041542B434F50533D302C3000D7
:102B4000C9E8D6C3B3A4B8F1CABDD7D6C4B8CAFDC4
:102B5000D7D6B3C9B9A60D0A00000000C9E8D6C38C
:102B6000B3A4B8F1CABDD7D6C4B8CAFDD7D6CAA7D0
:102B7000B0DC0D0A000000002B434F50533A000018
:102B8000D5FDD4DABCECB2E2D0C5BAC56060602530
:102B90006420202025730D0A000000000D0ACBD10F
:102BA000CBF7D0C5BAC5CAA7B0DCA3ACD5FDD4DA83
:102BB000D6D8C6F4B5A5C6ACBBFA0D0A0000000015
:102BC00041542B434F50533F00000000BCECB2E295
:102BD000D0C5BAC5B3C9B9A62025730D0A00000037
:102BE000434C4F5345204F4B0000000041542B43B2
:102BF0004950434C4F53453D31000000B9D8B1D541
:102C0000C1ACBDD3B3C9B9A60D0A0000B9D8B1D5BE
:102C1000C1ACBDD3CAA7B0DC0D0A0000534855545F
:102C2000204F4B0041542B4349505348555400000A
:102C3000B9D8B1D5D2C6B6AFB3A1BEB0B3C9B9A6E3
:102C40000D0A0000B9D8B1D5D2C6B6AFB3A1BEB097
:102C5000CAA7B0DC0D0A000041542B4347434C4146
:102C600053533D2242220000C9E8D6C34750525375
:102C7000D2C6B6AFCCA8C0E0D0CDCEAA42B3C9B9B7
:102C8000A60D0A00C9E8D6C347505253D2C6B6AF04
:102C9000CCA8C0E0D0CDCEAA42CAA7B0DC0D0A00B5
:102CA000ECA0FFF757FC04461CB9EDA007F02EFE80
:102CB00002E0F0A007F02AFE41F28832AFF2F031D4
:102CC000F1A0FFF747FC04461CB9F6A007F01EFE72
:102CD00002E0F9A007F01AFE41F28832AFF210418B
:102CE000FAA0FFF737FC04461CB9FCA007F00EFE63
:102CF00002E0FEA007F00AFE204610BD10B5024615
:102D00000B46002400210AE0505C2C2805D1601CF1
:102D1000C4B29C4201D1501810BD481C81B24FF67C
:102D2000FF708142F0DB1046F6E710B502460B4615
:102D3000002000210AE0545C9C4202D1441CE0B215
:102D400002E0545C04B910BD4C1CA1B2F3E72DE9BC
:102D5000FF4F8DB0834615461E460020039002901B
:102D600081460190824658460E9907F0D0FF0746EB
:102D700027B94FF0FF3011B0BDE8F08F2C21584635
:102D8000FFF7D3FF0390039801282FD10E9807F087
:102D9000D0FF824601213846FFF7B0FF0446E01B12
:102DA000A0EB0A0002900BEB0A010AA8029A07F0B6
:102DB000DFFF00210AAA029811541DB10AA807F0EA
:102DC00061FF2860601C07F0B4FF81464A46611C21
:102DD00007A807F0CDFF002007A901F809001EB1E0
:102DE00007A807F04FFF30600020C4E703980228CF
:102DF0004AD10E9807F09DFF824601213846FFF721
:102E00007DFF0446E01BA0EB0A0002900BEB0A01D9
:102E10000AA8029A07F0ACFF00210AAA02981154EE
:102E20001DB10AA807F02EFF286002213846FFF7DF
:102E300065FF8046A8EB0400A0F101094A46611C29
:102E400007A807F095FF00200AA901F809001EB1A4
:102E500007A807F017FF306008F1010007F069FFCD
:102E6000019008F1010104A8019A07F081FF0020F8
:102E700004A901F809001A9820B104A807F002FF7C
:102E80001A990860002076E74FF0FF3073E77CB5B1
:102E900000200190002541F28832AFF2CC5197A07A
:102EA000FFF758FB04461CB196A007F02FFD10E079
:102EB00099A0FFF71FFB06460020034601AA98A130
:102EC00000903046FFF743FF18B997A0019907F02B
:102ED0001DFD4FF47A7298A199A0FFF73BFB0446C1
:102EE00014B14FF0FF307CBD93A0FFF703FB054604
:102EF000E879312801D10020F5E7FFF7A3FCF2E7DC
:102F000010B59AB0914B924A92A101A807F00AFD20
:102F100041F28832AFF2486101A8FFF71BFB04467B
:102F20001CB993A007F0F2FC02E096A007F0EEFCBB
:102F300020461AB010BD70B500254FF4FA6296A174
:102F400098A0FFF707FB041E04D19AA007F0DEFC4F
:102F500005251EE09EA0FFF7CDFA20B19EA007F048
:102F6000D5FC042515E0A2A0FFF7C4FA20B1A2A069
:102F700007F0CCFC03250CE0A5A0FFF7BBFA20B1BD
:102F8000A5A007F0C3FC022503E0A9A007F0BEFC42
:102F90000125012D06D0022D05D0032D06D0042DCC
:102FA00011D104E000BFFFF74DFC00BF00BFFFF7E9
:102FB000A7FF041E03D1A3A007F0A8FC02E0A5A070
:102FC00007F0A4FC00BF00BF00BF204670BD2DE984
:102FD000FC41064600240120A24908700DE0601C57
:102FE000C4B22146A0A007F091FC0A2C02DDA4A0E7
:102FF00007F08CFC322005F060F8FFF79CFF071EFD
:10300000EDD1A64B3246A6A1A94807F08BFCA849F2
:10301000AFF2FC6007F07AFCA54807F08AFE85B2A3
:103020002946AFF2AC5007F071FCA148484BA14AC9
:10303000A149CDE90050A14807F074FC41F2883263
:103040009FA1A0A0FFF786FA002801D198493FE18F
:1030500060E1000041542B43474154543D3100008E
:10306000B8BDD7C547505253D2B5CEF1B3C9B9A6F2
:103070000D0A0000B8BDD7C547505253D2B5CEF1A6
:10308000CAA7B0DC0D0A000041542B434744434F0C
:103090004E543D312C224950222C22434D4E455452
:1030A00022000000C9E8D6C3504450B2CECAFDB3D6
:1030B000C9B9A60D0A000000C9E8D6C3504450B2F1
:1030C000CECAFDCAA7B0DC0D0A00000041542B4354
:1030D000474143543D312C3120000000BCA4BBEEDD
:1030E000504450B3C9B9A60D0A000000BCA4BBEE01
:1030F000504450CAA7B0DC0D0A00000041542B43D5
:1031000053510000B2E9D1AFD0C5BAC5D6CAC1BFCC
:10311000CAA7B0DC0D0A00002B4353513A0000004F
:103120002B4353513A200000D0C5BAC5D6CAC1BFFF
:10313000A3BA25640D0A00002B43474154543A00BA
:1031400041542B43474154543F000000F2000020FB
:10315000E400002041542B43495053544152543D04
:1031600022544350222C222573222C257300000068
:10317000BDA8C1A2544350B5C4C1ACBDD3B3C9B9F5
:10318000A60D0A00BDA8C1A2544350B5C4C1ACBD30
:10319000D3CAA7B0DC0D0A00434F4E4E454354201E
:1031A0004F4B000041542B43495053544154555305
:1031B00000000000B5B1C7B0C1ACBDD3D7B4CCAC32
:1031C0003A434F4E4E45434B204F4B0D0A000000F3
:1031D000434C4F5345000000B5B1C7B0C1ACBDD39F
:1031E000D7B4CCAC3A495020434C4F53450D0A005C
:1031F0004750525341435400B5B1C7B0C1ACBDD3E1
:10320000D7B4CCAC3A475052534143540D0A000056
:10321000494E495449414C00B5B1C7B0C1ACBDD3CA
:10322000D7B4CCAC3A494E495449414C0D0A000040
:10323000B5B1C7B0C1ACBDD3D7B4CCAC3ACEB4D61F
:10324000AA0D0A00544350C1ACBDD3B3C9B9A60DF1
:103250000A000000544350C1ACBDD3CAA7B0DC0D76
:103260000A000000F7000020544350C1ACBDD3B3A6
:10327000F6CFD6D2ECB3A32E2E2E25630D0A000076
:10328000544350C1ACBDD3B9CAD5CF2E2E2ED7BC16
:10329000B1B8D6D8C6F40D0A000000001401002011
:1032A0006C6F673D2573266B65793D2573000000C3
:1032B000263B0020F9000020740F0108523C00203A
:1032C0003E00000041542B43495053454E440000FA
:1032D00075A007F01BFB7949AFF6C410FFF7DBF8C8
:1032E0000A2004F0EAFE41F28832AFF24C111A20B3
:1032F000FFF730F928B9FFF71DF971A007F006FBB9
:1033000015E001207149087071A007F0FFFA4FF035
:10331000FF370CE0002211461B20FFF71BF90120AC
:103320006A4908706DA007F0F1FA4FF0FF370020EE
:103330006F4908703846BDE8FC817CB50026002541
:103340006CA0FFF7D7F8F8B16EA0FFF7D3F80546E9
:10335000D5B1002414E0281B00783E280ED1281B8C
:10336000461C0020287010200346C8229621CDE973
:103370000006322004F0F5FD30467CBD601C84B2AE
:1033800041F288308442E6DB0020F6E770B5002683
:1033900000255FA0FFF7AEF8051E0FD000240AE05D
:1033A000285D2C2805D12819461C0020287030469D
:1033B00070BD601C84B2285D0028F1D10020F7E7C1
:1033C0007CB55648FFF703FE051E03D154A007F055
:1033D0009DFA02E055A007F099FA3C4800780028D1
:1033E0004DD143480078002849D15349087000BFA7
:1033F0005148007828B95148008800F4004000285E
:10340000F6D04FF6FF7000F028FF4C48C01C0C218E
:10341000C8234FF49672CDE900100A21084604F043
:10342000D3FDFFF7B3FF002823D000202749087001
:1034300043A007F06BFA4648007800B3012410E07F
:103440002046FEF700F94348FFF7C1FD051E03D1F2
:1034500033A007F05BFA02E034A007F057FA601CD3
:1034600044B23B4800788442EADD002038490870C5
:1034700005E001201549087037A007F047FA4FF41E
:10348000FA62AFF2E421AFF69C00FFF763F805465D
:1034900025B9AFF6980007F039FA03E0AFF69400CB
:1034A00007F034FA7CBD000043495053454E442098
:1034B000444154413A25730D0A000000523C00205B
:1034C000504F5354B3C9B9A60D0A0000F8000020AC
:1034D000504F5354CAA7B0DC0D0A0000504F53544C
:1034E000CAA7B0DCA3ACC8A1CFFBB7A2CBCD00006C
:1034F000F7000020485454502F312E312032303004
:10350000204F4B003C2F737472696E673E000000C1
:103510002B4349505243563A00000000F10100206D
:10352000B7A2CBCDB3C9B9A60D0A0000B7A2CBCDC7
:10353000CAA7B0DC0D0A000052000020781F00204E
:10354000CAD5B5BDD5FDC8B7D3A6B4F00D0A0000E5
:10355000E20000204C010020CEB4CAD5B5BDD5FD97
:10356000C8B7D3A6B4F00D0A00000000F7490880E0
:103570007047F649891C0880704708B5F348801CDD
:1035800000880090BDF8000008BDF04A1080921C31
:103590001180704710B504462046FFF7E7FF05206D
:1035A00004F067FDFFF7E9FF10BDE9480089E7492E
:1035B00008807047E549891C0880704730B501468E
:1035C00001F01F04C1F34513CA0AE50205EB4315D8
:1035D0001544A8B230BD00BF011EA0F10102D0B257
:1035E000FAD1704710B503460C46D948808849F295
:1035F0004131884205D0D648808845F21031884252
:1036000014D1D3494889FFF7B1FF1812FFF7B1FF72
:10361000D8B2FFF7AEFFCE498889FFF7A7FF201287
:10362000FFF7A7FFE0B2FFF7A4FFABE0C848808830
:1036300046F6040188421DD1C5488079012804D18D
:10364000C3480088401EC01A83B2C1494889FFF7A9
:103650008DFF1812FFF78DFFD8B2FFF78AFFBC4924
:103660008889FFF783FF2012FFF783FFE0B2FFF79F
:1036700080FF87E0B648808841F66311884247D1D1
:10368000B3488079A8B9B2480088401EC01A83B2F6
:10369000AF494889FFF76AFF0020FFF76AFF002063
:1036A000FFF767FF1812FFF764FFD8B2FFF761FF5B
:1036B00016E0A7494889FFF759FF1812FFF759FF8D
:1036C000D8B2FFF756FFA2490988491EC1F30F205F
:1036D000FFF74FFF9E490978491EC8B2FFF749FF1F
:1036E0009B498889FFF742FF2012FFF742FFE0B2B3
:1036F000FFF73FFF96494988491EC1F30F20FFF7A6
:1037000038FF93498978491EC8B2FFF732FF39E084
:103710008F48808845F21051884220D18C494889D1
:10372000FFF724FF1812FFF724FF89494989491C34
:1037300088B2FFF71BFFD8B2FFF71BFF84498889C7
:10374000FFF714FF2012FFF714FF81498989491CF4
:1037500088B2FFF70BFFE0B2FFF70BFF12E07C48E7
:103760008079012804D17A480088401EC01A83B2AB
:10377000774948891946FFF708FF75498889214626
:10378000FFF703FF10BD2DE9F04105460E4600246A
:103790000027A0466E480088A84203DD6C48408898
:1037A000B04202DC0020BDE8F08131462846FFF738
:1037B00019FF6748808849F24131884211D0644836
:1037C000808846F6040188420BD06148808845F223
:1037D0001031884205D05E48808841F663118842E6
:1037E00003D12E20FFF7C2FE0DE05948808845F234
:1037F0001051884204D14FF43850FFF7B7FE02E071
:103800002220FFF7B3FE5248808849F220318842D7
:1038100002D10220FFF7DFFEFFF7AFFE04464C485F
:10382000808841F66311884201D12046BBE702201F
:10383000FFF7D1FEFFF7A1FE04464548808849F214
:10384000413188420BD04248808845F2103188428D
:1038500005D03F48808845F2105188420AD10220A5
:10386000FFF7B9FEFFF789FE8046E7B24FF6FF701B
:1038700000EA07273648808849F22531884216D069
:103880003348808844F23551884210D030488088CF
:10389000091F88420BD02E4880884BF20551884280
:1038A00005D02B4880884CF20551884201D1204632
:1038B00079E72748808849F2413188420BD0244873
:1038C000808845F21031884205D02148808845F231
:1038D0001051884207D1E012C002B91240EA4110EB
:1038E00040EAE8205FE72046FFF768FE5BE700B5A7
:1038F0001748808849F24131884211D014488088A5
:1039000046F6040188420BD01148808845F21031F8
:10391000884205D00E48808841F66311884203D161
:103920002920FFF723FE0FE00948808845F2105157
:10393000884204D14FF42450FFF718FE04E040F20F
:1039400073110720FFF721FE00BD0000FE07006C89
:103950003A40002000B5FD48808849F24131884254
:1039600011D0FA48808846F6040188420BD0F74807
:10397000808845F21031884205D0F448808841F6AD
:103980006311884203D12820FFF7F0FD0EE0EF48D5
:10399000808845F21051884204D14FF42050FFF73F
:1039A000E5FD03E000210720FFF7EFFD00BD70B546
:1039B000044600230026E548807901280BD1E3481E
:1039C000808846F60401884205D0E048808841F6A8
:1039D0006311884208D1DD488079F0B9DB488088DE
:1039E00041F66311884218D1082C15D2DFE804F0A3
:1039F0000406080A0C0E101206240DE007240BE042
:103A0000042409E0052407E0012405E0002403E084
:103A1000032401E0022400BF00BFCC48808849F2A3
:103A20004131884217D0C948808846F6040188424F
:103A300011D0C648808845F2103188420BD0C34867
:103A4000808845F21051884205D0C048808841F6F0
:103A5000631188427ED1082C1CD2DFE804F00406F2
:103A6000090C0F12151800BF14E043F0800311E099
:103A700043F040030EE043F0C0030BE043F02003AB
:103A800008E043F0600305E043F0A00302E043F0E8
:103A9000E00300BF00BFAD48808845F21051884266
:103AA00002D14FF4585600E03626A848808845F2E7
:103AB000103188420DD0A548808845F210518842C7
:103AC00007D0A248808841F66311884201D043F0B4
:103AD00008039E48808846F60401884201D143F0DD
:103AE000020319463046FFF750FD9848808841F69A
:103AF000631188421DD003F0200068B1934800880C
:103B000092494988884214DA9048058840888F494C
:103B10000880084645800CE08C4800888B4949881D
:103B2000884206DD8948058840888849088008461B
:103B300045808648808845F21051884254D1834997
:103B40004889FFF713FD0020FFF713FD7F494989DE
:103B5000491C00E077E088B2FFF708FD0020FFF77E
:103B600008FD7A494989891C88B2FFF7FFFC77492B
:103B70000988491EC1F30F20FFF7FBFC73494989EF
:103B8000C91C88B2FFF7F2FC70490978491EC8B217
:103B9000FFF7EFFC6D498889FFF7E8FC0020FFF78D
:103BA000E8FC6A498989491C88B2FFF7DFFC0020DC
:103BB000FFF7DFFC65498989891C88B2FFF7D6FCCD
:103BC00062494988491EC1F30F20FFF7D2FC5F49C3
:103BD0008989C91C88B2FFF7C9FC5C498978491EEC
:103BE000C8B2FFF7C6FC55E058494889FFF7BEFC4C
:103BF0000020FFF7BEFC0020FFF7BBFC53490988FB
:103C0000491EC1F30F20FFF7B4FC50490978491E43
:103C1000C8B2FFF7AEFC4D498889FFF7A7FC00202A
:103C2000FFF7A7FC0020FFF7A4FC48494988491E7C
:103C3000C1F30F20FFF79DFC44498978491EC8B2A3
:103C4000FFF797FC26E0082C1CD2DFE804F00407FD
:103C50000A0D0F12151843F0300313E043F0100360
:103C600010E043F020030DE000BF0BE043F0380309
:103C700008E043F0280305E043F0180302E043F0B6
:103C8000080300BF00BF032643F4805319463046A3
:103C9000FFF77BFC70BD30B504460D462946204633
:103CA000FFF7A0FCFFF781FC29480088294908801C
:103CB00030BD30B503460C4615462448808849F28D
:103CC0004131884205D02148808845F21031884230
:103CD00014D11E494889FFF749FC1812FFF749FC27
:103CE000D8B2FFF746FC19498889FFF73FFC20123C
:103CF000FFF73FFCE0B2FFF73CFC93E013488088FD
:103D000045F21051884227D110494889FFF72EFC0F
:103D10001812FFF72EFC0D494989491C88B2FFF79C
:103D200025FCD8B2FFF725FC08498889FFF71EFC5F
:103D30002012FFF71EFC05498989491C88B2FFF74C
:103D400015FCE0B2FFF715FC6CE000003A400020E3
:103D5000280100200008006CFC48808841F66311AF
:103D6000884228D1F948807920B9F8480088401E57
:103D7000C01A83B2F5494889FFF7F8FB1812FFF71C
:103D8000F8FBD8B2FFF7F5FB1812FFF7F2FBD8B239
:103D9000FFF7EFFBED498889FFF7E8FB2012FFF7FB
:103DA000E8FBE0B2FFF7E5FB2012FFF7E2FBE0B231
:103DB000FFF7DFFB36E0E548808846F604018842DD
:103DC0001DD1E2488079012804D1E0480088401ED6
:103DD000C01A83B2DD494889FFF7C8FB1812FFF704
:103DE000C8FBD8B2FFF7C5FBD8498889FFF7BEFBEF
:103DF0002012FFF7BEFBE0B2FFF7BBFB12E0D34897
:103E00008079012804D1D1480088401EC01A83B2AD
:103E1000CE4948891946FFF7B8FBCC498889214625
:103E2000FFF7B3FBC9480089C9490880881C058091
:103E300030BD2DE9F0470446BE20FFF797FB052073
:103E4000FFF797FB20460AF0DDFE07464FF066328B
:103E5000C04B0AF027FF05460AF090FE1FFA80F9D2
:103E60004846FFF786FB0120FFF783FBFF20FFF7A3
:103E700080FB0020FFF77DFB0020FFF77AFBBDE809
:103E8000F08710B50446002C66D1B0498871F02047
:103E900008804FF4A07048800846808849F241317C
:103EA00088420BD0A948808846F60401884205D094
:103EB000A648808845F2103188421AD12C20A349A7
:103EC00008812A2048812B2088810846808846F670
:103ED0000401884205D09D48808845F2103188420F
:103EE00006D14FF4A070994908804FF4F0704880D3
:103EF000A1E09648808845F21051884210D14FF4D5
:103F00003050924908814FF4285048814FF42C508A
:103F100088814FF4F07008804FF4487048808AE040
:103F20008A48808841F6631188420DD12C20874948
:103F300008812B2048812A2088814FF4F070088066
:103F40004FF44870488076E0222080490881202084
:103F50004881212088816EE001207C4988714FF4DE
:103F6000A0700880F02048800846808849F24131DE
:103F7000884205D07548808845F21031884207D1C3
:103F80002C20724908812A2048812B2088813FE01B
:103F90006E48808846F60401884207D12C206B4980
:103FA00008812B2048812A20888131E06748808859
:103FB00045F21051884210D14FF4305063490881C6
:103FC0004FF4285048814FF42C5088814FF44870AA
:103FD00008804FF4F07048801AE05C48808841F611
:103FE000631188420DD12C20584908812A2048812C
:103FF0002B2088814FF4487008804FF4F07048807F
:1040000006E0222051490881212048812020888112
:104010004E48808846F60401884205D04B48808887
:1040200045F21031884206D14FF4F07047490880BC
:104030004FF4A07048800020FFF7B9FC10BD2DE9B7
:10404000F04F86B004460D469046994604EB0800B2
:10405000401E86B205EB0900401E87B23B488088AF
:1040600049F24131884215D03848808845F21031F4
:1040700088420FD03548808846F60401884209D02E
:1040800032488079012826D13048808841F6631172
:10409000884220D12D494889FFF768FA2012FFF79E
:1040A00068FAE0B2FFF765FA3012FFF762FAF0B291
:1040B000FFF75FFA25498889FFF758FA2812FFF7BA
:1040C00058FAE8B2FFF755FA3812FFF752FAF8B289
:1040D000FFF74FFABEE01D48808841F66311884221
:1040E0003AD11A480088A0EB0800001B84B205EB07
:1040F0000900401E1FFA80F914494889FFF736FA73
:104100002012FFF736FAE0B2FFF733FA04EB0801AA
:10411000491EC1F30F20FFF72CFA04EB0801491EDA
:10412000C8B2FFF726FA09498889FFF71FFA281253
:10413000FFF71FFAE8B2FFF71CFA4FEA2920FFF752
:1041400018FA09F0FF00FFF714FA83E03A40002064
:10415000FE07006C66660440FE48808845F21051F8
:10416000884244D1FB494889FFF700FA2012FFF743
:1041700000FAF8494989491C88B2FFF7F7F9E0B21B
:10418000FFF7F7F9F3494989891C88B2FFF7EEF97F
:104190003012FFF7EEF9EF494989C91C88B2FFF7E1
:1041A000E5F9F0B2FFF7E5F9EA498889FFF7DEF9AA
:1041B0002812FFF7DEF9E7498989491C88B2FFF721
:1041C000D5F9E8B2FFF7D5F9E2498989891C88B2A7
:1041D000FFF7CCF93812FFF7CCF9DE498989C91C01
:1041E00088B2FFF7C3F9F8B2FFF7C3F932E0D94854
:1041F000807901280ED1AA46BB46D6480088801B8C
:10420000401E80B20190D3480088001B401E80B23F
:10421000009003E0A246B346019500975020059018
:10422000512004905220039053200290514605984B
:10423000FFF7ABF959460498FFF7A7F901990398DE
:10424000FFF7A3F900990298FFF79FF92946204646
:10425000FFF7C8F906B0BDE8F08F70B50446002638
:10426000BC48058840884543BA48808846F6040122
:10427000884216D1B7488079012812D10020B5496B
:1042800088712A2048812B20888100210846FFF769
:10429000A9F90120AF4988712B2048812A20888103
:1042A00003E000210846FFF79DF9FFF77EF900269D
:1042B00002E0A9480480761CAE42FAD370BD00B576
:1042C0009FB00121080204F062FB01214FF4B47099
:1042D00004F06AFB0120ADF8780010208DF87B0017
:1042E00003208DF87A001EA99C4804F0A1F84CF236
:1042F0003370ADF8780018208DF87B0003208DF81E
:104300007A001EA9964804F093F84FF68070ADF835
:10431000780018208DF87B0003208DF87A001EA904
:10432000904804F085F841F20100ADF878001820BB
:104330008DF87B0003208DF87A001EA98A4804F0CE
:1043400077F801200890002009900F200A900020A3
:104350000B900C900D900E90019002900320039012
:104360000020049005900690079006200F900020F2
:10437000109011901020129000201390159014901E
:10438000169017904FF480501890002019904FF419
:1043900080401A9000201B9008A81C9001A81D9036
:1043A0000FA805F0E5FF0121062006F049F93220AB
:1043B00003F083FE0020FFF7EDF866498880084689
:1043C0008088FF280ADB084680884FF6FF71884204
:1043D00004D060488088B0F5134F7CD1D320FFF71C
:1043E000C5F8FFF7CAF85B498880FFF7C6F8594956
:1043F0008880FFF7C2F857498880084680884FF6C2
:10440000FF7101EA002053498880FFF7B6F851494F
:10441000898808434F4988800846808849F241319D
:10442000884258D0BF20FFF7A1F8FFF7A6F8494906
:104430008880FFF7A2F847498880FFF79EF8454932
:104440008880FFF79AF843498880084680884FF6AD
:10445000FF7101EA00203F498880FFF78EF83D494F
:10446000898808433B4988800846808846F60401CD
:10447000884230D0D420FFF779F8FFF77EF835492D
:104480008880FFF77AF833498880FFF776F831495A
:104490008880084680884FF6FF7101EA00202D4988
:1044A0008880FFF76AF82B49898808432949888062
:1044B0000846808845F21031884263D04FF45A4054
:1044C000FFF754F8FFF759F8224988804FF45B4012
:1044D000FFF74CF800E055E0FFF74FF81D498880E2
:1044E000084680884FF6FF7101EA0020194988804C
:1044F0004FF45C40FFF73AF8FFF73FF81549898819
:1045000008431449888008468088B0F5004F02D1DE
:1045100045F2105088800F48808845F2105188423B
:1045200030D0A120FFF722F8FFF727F8094988804B
:10453000FFF723F807498880084680884FF6FF7107
:1045400001EA002003498880FFF717F801498988AC
:1045500008430BE03A4000200008006C000C0140CA
:10456000001401400018014000200140FE498880ED
:104570000846808845F26171884203D141F6631094
:10458000F9498880F8488188F8A006F0BFF9F64814
:10459000808849F2413188427ED1CF20FEF7E6FF84
:1045A0000020FEF7E6FFC120FEF7E3FF3020FEF714
:1045B000E0FFED20FEF7DAFF6420FEF7DAFF0320CC
:1045C000FEF7D7FF1220FEF7D4FF8120FEF7D1FFC0
:1045D000E820FEF7CBFF8520FEF7CBFF1020FEF78B
:1045E000C8FF7A20FEF7C5FFCB20FEF7BFFF3920BA
:1045F000FEF7BFFF2C20FEF7BCFF0020FEF7B9FF3F
:104600003420FEF7B6FF0220FEF7B3FFF720FEF7D7
:10461000ADFF2020FEF7ADFFEA20FEF7A7FF002048
:10462000FEF7A7FF0020FEF7A4FFC020FEF79EFFC5
:104630001B20FEF79EFFC120FEF798FF0120FEF72A
:1046400098FFC520FEF792FF3020FEF792FF302042
:10465000FEF78FFFC720FEF789FFB720FEF789FF1F
:104660003620FEF783FF4820FEF783FF3A20FEF74F
:104670007DFF5520FEF77DFFB120FEF777FF00207C
:10468000FEF777FF1A20FEF774FFB620FEF76EFFE5
:104690000A20FEF76EFF00E097E0A220FEF769FF18
:1046A000F220FEF763FF0020FEF763FF2620FEF7EF
:1046B0005DFF0120FEF75DFFE020FEF757FF0F20B2
:1046C000FEF757FF2A20FEF754FF2820FEF751FF80
:1046D0000820FEF74EFF0E20FEF74BFF0820FEF7E6
:1046E00048FF5420FEF745FFA920FEF742FF432074
:1046F000FEF73FFF0A20FEF73CFF0F20FEF739FFD1
:104700000020FEF736FF0020FEF733FF0020FEF703
:1047100030FF0020FEF72DFFE120FEF727FF0020ED
:10472000FEF727FF1520FEF724FF1720FEF721FFD5
:104730000720FEF71EFF1120FEF71BFF0620FEF7E5
:1047400018FF2B20FEF715FF5620FEF712FF3C2026
:10475000FEF70FFF0520FEF70CFF1020FEF709FF04
:104760000F20FEF706FF3F20FEF703FF3F20FEF776
:1047700000FF0F20FEF7FDFE2B20FEF7F7FE0020C6
:10478000FEF7F7FE0020FEF7F4FE0120FEF7F1FE33
:104790003F20FEF7EEFE2A20FEF7E8FE0020FEF79F
:1047A000E8FE0020FEF7E5FE0020FEF7E2FEEF2027
:1047B000FEF7DFFE1120FEF7D9FE782003F07DFC26
:1047C0002920FEF7D3FE03F025B96748808846F616
:1047D000040188427ED11120FEF7C8FE142003F0A8
:1047E0006CFCD020FEF7C2FE0720FEF7C2FE42207E
:1047F000FEF7BFFE1D20FEF7BCFED120FEF7B6FE81
:104800000020FEF7B6FE1A20FEF7B3FE0920FEF7E1
:10481000B0FED220FEF7AAFE0120FEF7AAFE22205B
:10482000FEF7A7FEC020FEF7A1FE1020FEF7A1FEB6
:104830003B20FEF79EFE0020FEF79BFE0220FEF7C7
:1048400098FE1120FEF795FEC520FEF78FFE03208F
:10485000FEF78FFEC820FEF789FE0020FEF789FED6
:104860002520FEF786FE2120FEF783FE0520FEF7B9
:1048700080FE0020FEF77DFE0A20FEF77AFE65200E
:10488000FEF777FE2520FEF774FE7720FEF771FE17
:104890005020FEF76EFE0F20FEF76BFE0020FEF7A5
:1048A00068FEF820FEF762FE0120FEF762FEFE20A1
:1048B000FEF75CFE0020FEF75CFE0220FEF759FECC
:1048C0002020FEF753FE3620FEF750FE0820FEF7AC
:1048D00050FE00E02AE03A20FEF748FE5520FEF7A1
:1048E00048FE2B20FEF742FE0020FEF742FE00208D
:1048F000FEF73FFE0120FEF73CFE3F20FEF739FEAB
:104900002A20FEF733FE0020FEF733FE0020FEF7DC
:1049100030FE0120FEF72DFEDF20FEF72AFE782074
:1049200003F0CBFB2920FEF721FE4CE70E488088E0
:1049300045F21031884240F08487ED20FEF716FEE4
:104940000120FEF716FEFE20FEF713FEEE20FEF716
:104950000DFEDE20FEF70DFE2120FEF70AFEF120FF
:10496000FEF704FE012009E03A400020204C4344B9
:104970002049443A25780D0A00000000FEF7F9FDB1
:10498000DF20FEF7F3FD1020FEF7F3FDC420FEF755
:10499000EDFD8F20FEF7EDFDC620FEF7E7FD0020C0
:1049A000FEF7E7FDE220FEF7E4FDE220FEF7E1FD81
:1049B000E220FEF7DEFDBF20FEF7D8FDAA20FEF7BD
:1049C000D8FDB020FEF7D2FD0D20FEF7D2FD00206D
:1049D000FEF7CFFD0D20FEF7CCFD0020FEF7C9FD50
:1049E0001120FEF7C6FD0020FEF7C3FD1920FEF7DB
:1049F000C0FD0020FEF7BDFD2120FEF7BAFD00201E
:104A0000FEF7B7FD2D20FEF7B4FD0020FEF7B1FD47
:104A10003D20FEF7AEFD0020FEF7ABFD5D20FEF76A
:104A2000A8FD0020FEF7A5FD5D20FEF7A2FD0020F9
:104A3000FEF79FFDB120FEF799FD8020FEF799FD5E
:104A40000020FEF796FD8B20FEF793FD0020FEF779
:104A500090FD9620FEF78DFD0020FEF78AFDB22026
:104A6000FEF784FD0020FEF784FD0020FEF781FDA7
:104A70000220FEF77EFD0020FEF77BFD0320FEF7FF
:104A800078FD0020FEF775FDB320FEF76FFD0020D6
:104A9000FEF76FFD0020FEF76CFD0020FEF769FDBC
:104AA0000020FEF766FD0020FEF763FD0020FEF704
:104AB00060FD0020FEF75DFD0020FEF75AFD00209E
:104AC000FEF757FD0020FEF754FD0020FEF751FDD4
:104AD0000020FEF74EFD0020FEF74BFD0020FEF704
:104AE00048FD0020FEF745FD0020FEF742FD0020B6
:104AF000FEF73FFD0020FEF73CFD0020FEF739FDEC
:104B00000020FEF736FD0020FEF733FD0020FEF703
:104B100030FD0020FEF72DFD0020FEF72AFDB42019
:104B2000FEF724FD8B20FEF724FD0020FEF721FD7B
:104B30009620FEF71EFD0020FEF71BFDA120FEF7CC
:104B400018FD0020FEF715FDB520FEF70FFD022031
:104B5000FEF70FFD0020FEF70CFD0320FEF709FD18
:104B60000020FEF706FD0420FEF703FD0020FEF7FF
:104B700000FDB620FEF7FAFC0020FEF7FAFC00204C
:104B8000FEF7F7FCB720FEF7F1FC0020FEF7F1FC82
:104B90000020FEF7EEFC3F20FEF7EBFC0020FEF7C6
:104BA000E8FC5E20FEF7E5FC0020FEF7E2FC642056
:104BB000FEF7DFFC0020FEF7DCFC8C20FEF7D9FCC2
:104BC0000020FEF7D6FCAC20FEF7D3FC0020FEF759
:104BD000D0FCDC20FEF7CDFC0020FEF7CAFC7020E4
:104BE000FEF7C7FC0020FEF7C4FC9020FEF7C1FCD6
:104BF0000020FEF7BEFCEB20FEF7BBFC0020FEF71A
:104C0000B8FCDC20FEF7B5FC0020FEF7B2FCB820B3
:104C1000FEF7ACFC0020FEF7ACFC0020FEF7A9FC80
:104C20000020FEF7A6FC0020FEF7A3FC0020FEF704
:104C3000A0FC0020FEF79DFC0020FEF79AFC00205F
:104C4000FEF797FCBA20FEF791FC2420FEF791FCBA
:104C50000020FEF78EFC0020FEF78BFC0020FEF704
:104C600088FCC120FEF782FC2020FEF782FC002099
:104C7000FEF77FFC5420FEF77CFC0020FEF779FC59
:104C8000FF20FEF776FC0020FEF773FCC220FEF743
:104C90006DFC0A20FEF76DFC0020FEF76AFC042084
:104CA000FEF767FC0020FEF764FCC320FEF75EFC05
:104CB0003C20FEF75EFC0020FEF75BFC3A20FEF78E
:104CC00058FC0020FEF755FC3920FEF752FC00206E
:104CD000FEF74FFC3720FEF74CFC0020FEF749FCA6
:104CE0003C20FEF746FC0020FEF743FC3620FEF792
:104CF00040FC0020FEF73DFC3220FEF73AFC00208D
:104D0000FEF737FC2F20FEF734FC0020FEF731FCC5
:104D10002C20FEF72EFC0020FEF72BFC2920FEF7AE
:104D200028FC0020FEF725FC2620FEF722FC0020B0
:104D3000FEF71FFC2420FEF71CFC0020FEF719FCE8
:104D40002420FEF716FC0020FEF713FC2320FEF7BC
:104D500010FC0020FEF70DFC3C20FEF70AFC0020B2
:104D6000FEF707FC3620FEF704FC0020FEF701FCEE
:104D70003220FEF7FEFB0020FEF7FBFB2F20FEF7A4
:104D8000F8FB0020FEF7F5FB2C20FEF7F2FB0020DD
:104D9000FEF7EFFB2920FEF7ECFB0020FEF7E9FB16
:104DA0002620FEF7E6FB0020FEF7E3FB2420FEF7BB
:104DB000E0FB0020FEF7DDFB2420FEF7DAFB0020FD
:104DC000FEF7D7FB2320FEF7D4FB0020FEF7D1FB34
:104DD000C420FEF7CBFB6220FEF7CBFB0020FEF7E2
:104DE000C8FB0520FEF7C5FB0020FEF7C2FB8420B0
:104DF000FEF7BFFB0020FEF7BCFBF020FEF7B9FB7F
:104E00000020FEF7B6FB1820FEF7B3FB0020FEF7EC
:104E1000B0FBA420FEF7ADFB0020FEF7AAFB182094
:104E2000FEF7A7FB0020FEF7A4FB5020FEF7A1FB36
:104E30000020FEF79EFB0C20FEF79BFB0020FEF7F8
:104E400098FB1720FEF795FB0020FEF792FB9520BC
:104E5000FEF78FFB0020FEF78CFBF320FEF789FBAB
:104E60000020FEF786FBE620FEF783FB0020FEF71E
:104E700080FBC520FEF77AFB3220FEF77AFB00208C
:104E8000FEF777FB4420FEF774FB0020FEF771FB72
:104E90006520FEF76EFB0020FEF76BFB7620FEF729
:104EA00068FB0020FEF765FB8820FEF762FB002010
:104EB000FEF75FFBC620FEF759FB2020FEF759FBEB
:104EC0000020FEF756FB1720FEF753FB0020FEF7ED
:104ED00050FB0120FEF74DFB0020FEF74AFBC720E8
:104EE000FEF744FB0020FEF744FB0020FEF741FBE9
:104EF0000020FEF73EFB0020FEF73BFBC820FEF73C
:104F000035FB0020FEF735FB0020FEF732FB0020CA
:104F1000FEF72FFB0020FEF72CFBC920FEF726FB37
:104F20000020FEF726FB0020FEF723FB0020FEF703
:104F300020FB0020FEF71DFB0020FEF71AFB0020DF
:104F4000FEF717FB0020FEF714FB0020FEF711FB15
:104F50000020FEF70EFB0020FEF70BFB0020FEF703
:104F600008FB0020FEF705FB0020FEF702FB0020F7
:104F7000FEF7FFFA0020FEF7FCFA0020FEF7F9FA30
:104F8000E020FEF7F3FA1620FEF7F3FA0020FEF712
:104F9000F0FA1C20FEF7EDFA0020FEF7EAFA2120D5
:104FA000FEF7E7FA0020FEF7E4FA3620FEF7E1FA12
:104FB0000020FEF7DEFA4620FEF7DBFA0020FEF7BF
:104FC000D8FA5220FEF7D5FA0020FEF7D2FA642074
:104FD000FEF7CFFA0020FEF7CCFA7A20FEF7C9FAE6
:104FE0000020FEF7C6FA8B20FEF7C3FA0020FEF77A
:104FF000C0FA9920FEF7BDFA0020FEF7BAFAA82001
:10500000FEF7B7FA0020FEF7B4FAB920FEF7B1FABE
:105010000020FEF7AEFAC420FEF7ABFA0020FEF740
:10502000A8FACA20FEF7A5FA0020FEF7A2FAD220BD
:10503000FEF79FFA0020FEF79CFAD920FEF799FAB6
:105040000020FEF796FAE020FEF793FA0020FEF724
:1050500090FAF320FEF78DFA0020FEF78AFAE1209D
:10506000FEF784FA1620FEF784FA0020FEF781FA94
:105070001C20FEF77EFA0020FEF77BFA2220FEF7C6
:1050800078FA0020FEF775FA3620FEF772FA002053
:10509000FEF76FFA4520FEF76CFA0020FEF769FA7A
:1050A0005220FEF766FA0020FEF763FA6420FEF74E
:1050B00060FA0020FEF75DFA7A20FEF75AFA002027
:1050C000FEF757FA8B20FEF754FA0020FEF751FA4C
:1050D0009920FEF74EFA0020FEF74BFAA820FEF7C3
:1050E00048FA0020FEF745FAB920FEF742FA002000
:1050F000FEF73FFAC420FEF73CFA0020FEF739FA2B
:10510000CA20FEF736FA0020FEF733FAD220FEF767
:1051100030FA0020FEF72DFAD820FEF72AFA0020F8
:10512000FEF727FAE020FEF724FA0020FEF721FA26
:10513000F320FEF71EFA0020FEF71BFAE220FEF72E
:1051400015FA0520FEF715FA0020FEF712FA0B20DB
:10515000FEF70FFA0020FEF70CFA1B20FEF709FA03
:105160000020FEF706FA3420FEF703FA0020FEF7CF
:1051700000FA4420FEF7FDF90020FEF7FAF94F206F
:10518000FEF7F7F90020FEF7F4F96120FEF7F1F9D8
:105190000020FEF7EEF97920FEF7EBF90020FEF78C
:1051A000E8F98820FEF7E5F90020FEF7E2F99720FC
:1051B000FEF7DFF90020FEF7DCF9A620FEF7D9F9AB
:1051C0000020FEF7D6F9B720FEF7D3F90020FEF74E
:1051D000D0F9C220FEF7CDF90020FEF7CAF9C720AA
:1051E000FEF7C7F90020FEF7C4F9D120FEF7C1F998
:1051F0000020FEF7BEF9D620FEF7BBF90020FEF72F
:10520000B8F9DD20FEF7B5F90020FEF7B2F9F3207A
:10521000FEF7AFF90020FEF7ACF9E320FEF7A6F9A0
:105220000520FEF7A6F90020FEF7A3F90A20FEF7F5
:10523000A0F90020FEF79DF91C20FEF79AF9002046
:10524000FEF797F93320FEF794F90020FEF791F965
:105250004420FEF78EF90020FEF78BF95020FEF770
:1052600088F90020FEF785F96220FEF782F9002018
:10527000FEF77FF97820FEF77CF90020FEF779F938
:105280008820FEF776F90020FEF773F99720FEF7E5
:1052900070F90020FEF76DF9A620FEF76AF90020EC
:1052A000FEF767F9B720FEF764F90020FEF761F911
:1052B000C220FEF75EF90020FEF75BF9C720FEF77B
:1052C00058F90020FEF755F9D120FEF752F90020D9
:1052D000FEF74FF9D520FEF74CF90020FEF749F90B
:1052E000DD20FEF746F90020FEF743F9F320FEF734
:1052F00040F90020FEF73DF9E420FEF737F90120E0
:10530000FEF737F90020FEF734F90120FEF731F9F6
:105310000020FEF72EF90220FEF72BF90020FEF701
:1053200028F92A20FEF725F90020FEF722F93C2073
:10533000FEF71FF90020FEF71CF94B20FEF719F9C4
:105340000020FEF716F95D20FEF713F90020FEF7A6
:1053500010F97420FEF70DF90020FEF70AF98420F9
:10536000FEF707F90020FEF704F99320FEF701F994
:105370000020FEF7FEF8A220FEF7FBF80020FEF763
:10538000F8F8B320FEF7F5F80020FEF7F2F8BE209B
:10539000FEF7EFF80020FEF7ECF8C420FEF7E9F87E
:1053A0000020FEF7E6F8CD20FEF7E3F80020FEF738
:1053B000E0F8D320FEF7DDF80020FEF7DAF8DD2074
:1053C000FEF7D7F80020FEF7D4F8F320FEF7D1F867
:1053D0000020FEF7CEF8E520FEF7C8F80020FEF723
:1053E000C8F80020FEF7C5F80020FEF7C2F800203C
:1053F000FEF7BFF80220FEF7BCF80020FEF7B9F870
:105400002920FEF7B6F80020FEF7B3F83C20FEF79F
:10541000B0F80020FEF7ADF84B20FEF7AAF8002008
:10542000FEF7A7F85D20FEF7A4F80020FEF7A1F82C
:105430007420FEF79EF80020FEF79BF88420FEF70C
:1054400098F80020FEF795F89320FEF792F80020D8
:10545000FEF78FF8A220FEF78CF80020FEF789F8FF
:10546000B320FEF786F80020FEF783F8BE20FEF793
:1054700080F80020FEF77DF8C420FEF77AF80020BF
:10548000FEF777F8CD20FEF774F80020FEF771F8EC
:10549000D320FEF76EF80020FEF76BF8DC20FEF755
:1054A00068F80020FEF765F8F320FEF762F80020A8
:1054B000FEF75FF8E620FEF759F81120FEF759F8DD
:1054C0000020FEF756F83420FEF753F80020FEF7D0
:1054D00050F85620FEF74DF80020FEF74AF87620E7
:1054E000FEF747F80020FEF744F87720FEF741F872
:1054F0000020FEF73EF86620FEF73BF80020FEF79E
:1055000038F88820FEF735F80020FEF732F89920A9
:10551000FEF72FF80020FEF72CF8BB20FEF729F845
:105520000020FEF726F89920FEF723F80020FEF76A
:1055300020F86620FEF71DF80020FEF71AF8552027
:10554000FEF717F80020FEF714F85520FEF711F8C3
:105550000020FEF70EF84520FEF70BF80020FEF7BE
:1055600008F84320FEF705F80020FEF702F8442073
:10557000FDF7FFFF0020FDF7FCFFE720FDF7F6FF3A
:105580003220FDF7F6FF0020FDF7F3FF5520FDF771
:10559000F0FF0020FDF7EDFF7620FDF7EAFF002089
:1055A000FDF7E7FF6620FDF7E4FF0020FDF7E1FFD0
:1055B0006720FDF7DEFF0020FDF7DBFF6720FDF72A
:1055C000D8FF0020FDF7D5FF8720FDF7D2FF002090
:1055D000FDF7CFFF9920FDF7CCFF0020FDF7C9FFB5
:1055E000BB20FDF7C6FF0020FDF7C3FF9920FDF7A4
:1055F000C0FF0020FDF7BDFF7720FDF7BAFF0020B8
:10560000FDF7B7FF4420FDF7B4FF0020FDF7B1FF21
:105610005620FDF7AEFF0020FDF7ABFF2320FDF77E
:10562000A8FF0020FDF7A5FF3320FDF7A2FF002013
:10563000FDF79FFF4520FDF79CFF0020FDF799FF38
:10564000E820FDF793FF0020FDF793FF0020FDF712
:1056500090FF9920FDF78DFF0020FDF78AFF87203E
:10566000FDF787FF0020FDF784FF8820FDF781FF0D
:105670000020FDF77EFF7720FDF77BFF0020FDF780
:1056800078FF6620FDF775FF0020FDF772FF882088
:10569000FDF76FFF0020FDF76CFFAA20FDF769FF03
:1056A0000020FDF766FFBB20FDF763FF0020FDF73C
:1056B00060FF9920FDF75DFF0020FDF75AFF66208F
:1056C000FDF757FF0020FDF754FF5520FDF751FF70
:1056D0000020FDF74EFF5520FDF74BFF0020FDF7A2
:1056E00048FF4420FDF745FF0020FDF742FF44201E
:1056F000FDF73FFF0020FDF73CFF5520FDF739FF88
:105700000020FDF736FFE920FDF730FFAA20FDF766
:1057100030FF0020FDF72DFF0020FDF72AFF0020BD
:10572000FDF727FF0020FDF721FFAA20FDF721FF4D
:10573000CF20FDF71BFF0020FDF71BFF0020FDF72A
:1057400018FF0020FDF715FF0020FDF712FF0020D5
:10575000FDF70FFF0020FDF70CFF0020FDF709FF0C
:105760000020FDF706FF0020FDF703FF0020FDF7F6
:1057700000FF0020FDF7FDFE0020FDF7FAFE0020EF
:10578000FDF7F7FE0020FDF7F4FE0020FDF7F1FE27
:105790000020FDF7EEFE0020FDF7EBFEF020FDF708
:1057A000E5FE0020FDF7E5FE5020FDF7E2FE0020BB
:1057B000FDF7DFFE0020FDF7DCFE0020FDF7D9FE3F
:1057C000F320FDF7D3FE0020FDF7D3FEF920FDF70F
:1057D000CDFE0620FDF7CDFE1020FDF7CAFE2920E4
:1057E000FDF7C7FE0020FDF7C4FE3A20FDF7BEFE20
:1057F0005520FDF7BEFE1120FDF7B8FE642002F033
:105800005CFC2920FDF7B2FE3520FDF7AFFE00203D
:10581000FDF7AFFE5120FDF7A9FEFF20FDF7A9FE21
:105820005320FDF7A3FE2C20FDF7A3FE5520FDF726
:105830009DFE8220FDF79DFE2C20FDF797FE02F0D5
:10584000E9B8FE48808845F2105188427ED1552142
:105850004FF47040FDF799FEAA214FF20100FDF7C9
:1058600094FE52214FF20200FDF78FFE08214FF205
:105870000300FDF78AFE01214FF20400FDF785FECB
:105880000D214FF43040FDF780FE0D214BF2010059
:10589000FDF77BFE0D214BF20200FDF776FE342171
:1058A0004FF43640FDF771FE34214BF20160FDF7F5
:1058B0006CFE34214BF20260FDF767FE0D214FF4C0
:1058C0003140FDF762FE0D214BF20110FDF75DFE48
:1058D0000D214BF20210FDF758FE34214FF43740F2
:1058E000FDF753FE34214BF20170FDF74EFE3421DB
:1058F0004BF20270FDF749FE00214FF43240FDF7F4
:1059000044FE00214BF20120FDF73FFE00214BF247
:105910000220FDF73AFE24214FF43840FDF735FE12
:1059200024214BF60100FDF730FE24214BF6020046
:10593000FDF72BFE01214FF43F40FDF726FE0F211E
:105940004FF43340FDF721FE0F2100E0FEE34BF260
:105950000130FDF71AFE0F214BF20230FDF715FE64
:1059600034214FF43940FDF710FE34214BF601107D
:10597000FDF70BFE34214BF60210FDF706FE082161
:105980004FF43540FDF701FE08214BF20150FDF7C1
:10599000FCFD08214BF20250FDF7F7FD03214FF407
:1059A0004240FDF7F2FD24214FF43A40FDF7EDFDB2
:1059B00024214BF60120FDF7E8FD24214BF60220BF
:1059C000FDF7E3FD00214FF43C40FDF7DEFD7821BB
:1059D0004BF60140FDF7D9FD00214BF60240FDF7E3
:1059E000D4FD00214FF43D40FDF7CFFD78214BF66B
:1059F0000150FDF7CAFD00214BF60250FDF7C5FD31
:105A000000214FF43E40FDF7C0FD64214BF60160DC
:105A1000FDF7BBFD00214FF45140FDF7B6FD3321EA
:105A20004DF20110FDF7B1FD00214DF20210FDF71E
:105A3000ACFD34214DF20310FDF7A7FD00214DF21E
:105A40000410FDF7A2FD3A214DF20510FDF79DFD72
:105A500000214DF20610FDF798FD4A214DF2071086
:105A6000FDF793FD00214DF20810FDF78EFD5C213E
:105A70004DF20910FDF789FD00214DF20A10FDF7E6
:105A800084FD81214DF20B10FDF77FFD00214DF2C9
:105A90000C10FDF77AFDA6214DF20D10FDF775FDF6
:105AA00000214DF20E10FDF770FDE5214DF20F10B3
:105AB000FDF76BFD01214DF21010FDF766FD13217E
:105AC0004DF21110FDF761FD01214DF21210FDF7AD
:105AD0005CFD54214DF21310FDF757FD01214DF2ED
