:020000040800F2
:100000007847002089820008B5030008B70300087C
:10001000BB030008BF030008C30300080000000082
:10002000000000000000000000000000C7030008FE
:10003000C903000800000000CB030008CD0300083E
:10004000A3820008A3820008A3820008A3820008FC
:10005000A3820008A3820008A3820008A3820008EC
:10006000A3820008A3820008A3820008A3820008DC
:10007000A3820008A3820008A3820008A3820008CC
:10008000A3820008A3820008A3820008A3820008BC
:10009000A3820008A3820008A3820008A3820008AC
:1000A000A3820008A3820008A3820008A38200089C
:1000B000A38200084B070008A3820008A38200085F
:1000C000A3820008A3820008A3820008A38200087C
:1000D000A3820008FF81000819240008CD20000831
:1000E000A3820008A3820008A3820008A38200085C
:1000F000A3820008A3820008A3820008A38200084C
:10010000A3820008A3820008A3820008A38200083B
:10011000A3820008A3820008A382000899080008AF
:10012000A3820008A3820008A3820008A38200081B
:1001300000F002F800F0A0F80AA090E8000C824459
:100140008344AAF10107DA4501D100F095F8AFF236
:10015000090EBAE80F0013F0010F18BFFB1A43F0A5
:1001600001031847B40E0100D40E01000A4410F830
:10017000014B14F00F0508BF10F8015B240908BFFC
:1001800010F8014B6D1E05D010F8013B6D1E01F8F3
:10019000013BF9D1641E03D0641E01F8015BFBD161
:1001A0009142E4D37047000000230024002500267C
:1001B000103A28BF78C1FBD8520728BF30C148BFCA
:1001C0000B6070476E290AF09F8670290AF0A5849B
:1001D00066290FF0968065290FF0938067290FF04C
:1001E00090806129AFF3008003681B0A28BF41F0AB
:1001F000800169290AF0168464290AF0138475299C
:100200000AF010846F290BF0A58178290AF0718417
:10021000E9290BF03F81E4290BF03C81F5290BF033
:100220003981EF290BF0A281F8290AF07084036864
:10023000DB0928BF41F0800163290BF0AE807329F0
:100240000BF0B380E3290BF0FF82F3290BF004835A
:10025000002070471FB50BF05BFA0400002000215E
:100260000EF0C8F9401C6060002000210EF0D8F9A3
:10027000E0601FBD10B510BD0BF0D9FB1146FFF7B4
:10028000E9FF00F009F80BF049FE03B4FFF7F2FFB5
:1002900003BC07F059FF00004FF4A06008F014F809
:1002A0009C21062001F028FB07F0E4FE642007F003
:1002B0001EFF0121402008F084FB4FF4E13007F0DD
:1002C00052FF41F61F4140F2E73000F013FA4FF4BD
:1002D000E13002F039F804F00CF8012003F0EBFDF6
:1002E00001F012F900F064F900F086F902F05CFA0E
:1002F0004FF4165001F016FB48E0012000F096F98B
:10030000044623480068012801D101F060FE21481D
:10031000007801281AD120480078012816D1002041
:100320001C49087003F04FF8042C0FD11B4880685B
:10033000401C1A4988601A480078401C1849087007
:100340001649097A491EC8B201F022F9144800780A
:10035000322801DD02F028FA12480068012802D193
:100360000020104908601048007801280ED10020B4
:100370000D4908700D480068C0430D49C1F8980147
:100380000846D0F89401C043C1F89401B5E70000D5
:10039000180000205000002051000020601F0020A5
:1003A000E20000204C00002053000020980123426E
:1003B00000002342704700BFFEE700BFFEE700BF1A
:1003C000FEE700BFFEE770477047704770470000C8
:1003D0000CB50020019000906C48006840F480301B
:1003E0006A49086000BF6948006800F40030009066
:1003F0000198401C0190009818B90198B0F5A06FC1
:10040000F1D16248006800F4003010B10120009082
:1004100001E0002000900098012843D15C4800686A
:1004200040F010005A4908600846006820F00300B8
:1004300008600846006840F00200086053484068C1
:10044000524948600846406848600846406840F4A1
:10045000806048600846406820F47C104860084688
:10046000406840F4E81048600846006840F080703A
:10047000086000BF4548006800F000700028F9D00F
:100480004248406820F00300404948600846406800
:1004900040F00200486000BF3C48406800F00C009B
:1004A0000828F9D10CBD10B5FFF792FF10BD10B5AB
:1004B0003648006840F0010034490860084640684A
:1004C00034490840314948600846006832490840CC
:1004D0002E4908600846006820F48020086008461D
:1004E000406820F4FE0048604FF41F008860FFF76A
:1004F000DAFF4FF000602949086010BD10B50021F7
:1005000000200022214B5B6803F00C0121B104297B
:1005100006D0082928D107E0214B224C236027E090
:100520001F4B204C236023E0184B5B6803F47010D2
:10053000164B5B6803F48032022303EB904022B930
:10054000194B4343174C23600DE0104B5B6803F4D9
:10055000003323B1144B4343124C236003E0104B90
:100560004343104C236003E00D4B0E4C236000BF4F
:1005700000BF064B5B68C3F303130C4CE15C094BF3
:100580001B68CB40074C236010BD000000100240E8
:10059000002002400000FFF8FFFFF6FE08ED00E03B
:1005A00000127A000000002000093D000400002035
:1005B00008B50121402008F011FA2020ADF8000014
:1005C00010208DF8030003208DF8020069460948C9
:1005D00007F048FF2021074807F0F1FF4020ADF861
:1005E00000006946034807F03DFF4021014807F03D
:1005F000E6FF08BD0018014008B50121442008F0BD
:10060000EDF91C20ADF8000048208DF80300694684
:10061000354807F027FF0120ADF8000028208DF8AD
:1006200003006946314807F01DFF08BD10B50446B8
:1006300014B101202E4908702D480078002837D0C9
:100640001021294807F0A1FF78B10821264807F0BA
:100650009CFF50B10421244807F097FF28B10121E5
:10066000224807F092FF012822D10A2007F03FFD1F
:1006700000201F49087010211B4807F086FF08B9A9
:10068000012010BD0821184807F07FFF08B902209B
:10069000F7E70421144807F078FF08B90320F0E7D2
:1006A0000121124807F071FF01281BD10420E8E75F
:1006B00010210D4807F069FF012813D108210A48CD
:1006C00007F063FF01280DD10421074807F05DFF03
:1006D000012807D10121054807F057FF10B9012073
:1006E000034908700020CCE70018014000080140D1
:1006F000140000207FB505460C460121022008F0B9
:100700007AF9ADF80850ADF804400020ADF80A00C1
:10071000ADF8060001A9814808F09CFC01221146B1
:100720007E4809F00EF81D208DF8000001208DF89C
:1007300001008DF802008DF80300684607F0C9FD3E
:100740000121764808F0E2FF7FBD7FB501217348A3
:1007500009F0A5FA00287DD00121704809F0B0FA0F
:100760006F48007808B901F0D9F86E48007806287B
:1007700004D2DFE800F00304058F06078AE089E071
:1007800088E087E068480068401C674908600846C0
:1007900000680A21B0FBF1F201FB120010B9012040
:1007A000624908706248007880B962480078401C4D
:1007B00060490870084600784FF4967190FBF1F29A
:1007C00001FB120010B90120594908705648006811
:1007D0000A21B0FBF1F201FB1200002846D1564875
:1007E0000078012842D10020534908704E48006823
:1007F0009621B0FBF1F201FB1200002833D14F49E2
:100800004F4801F0D6FB4D4803C8CDE900014C48E4
:100810000CC84CA00AF094F8484803C8CDE902017E
:10082000474903C9CDE900014E484F490CC803C9E7
:1008300000F00EFD044600224C4B0EF04DFA4C4ADF
:1008400003C24B480CC84BA00AF07AF83C4903C9D4
:10085000454A00E01FE003C2384903C9414A03C2C8
:1008600001204B49086000204A4908604A48007846
:1008700078B94A480068401C484908600846006842
:100880006421B0FBF1F201FB120010B901204249D2
:10089000087000BF00BF7FBD10B50121404809F0BE
:1008A000FEF968B13F48008840F400403D490880A7
:1008B00001213B4809F004FA0021394808F026FFDD
:1008C00010BD7FB505460C460121202008F093F8A5
:1008D000ADF80450ADF800400020ADF80600ADF8CA
:1008E000020069462E4808F0B5FB012211462C484B
:1008F00008F027FF01212A4808F008FF37208DF86B
:100900000C0000208DF80D008DF80E0001208DF8F0
:100910000F0003A807F0DDFC7FBD000000040040CD
:1009200044000020E3000020540000205300002079
:100930005000002058000020C9000020280000209E
:1009400020000020C2CBB2A8BAF3B5C4B0D9B6C853
:10095000B5D8CDBCCEB3B6C825662CBEADB6C825BD
:10096000660D0A00380000203000002000408F4053
:10097000D80000200D0AC1BDB4CEC9CFB4ABB5C4F8
:10098000BEE0C0EBCEAA256C666D0D0A000000002B
:100990001800002040000020520000205C000020D1
:1009A000001400407C1F00202DE9F04104460D4654
:1009B000FE480CC8204629460EF08EF90646002255
:1009C000FB4B0DF031FFBDE8F0812DE9F04F91B008
:1009D00006460F4614461D46304639460EF0B8F816
:1009E0001090002801DB109901E010994942084657
:1009F0000EF00BF9CDE90A010DF0D6FDED4AEE4BF4
:100A0000CDE90C010EF068F9EA4AEC4BCDE90E0194
:100A1000304639460EF060F922462B46CDE90801F2
:100A20000EF05AF922462B46CDE90C01E148E24985
:100A30000EF052F922462B46CDE904010EF04CF996
:100A400022462B46CDE908010020DD490EF044F98D
:100A500000224FF08043CDE90401304639460EF0C4
:100A60003BF90022D74BCDE900010DF021FECDE985
:100A70000201DDE904230DF01BFECDE90601DDE9ED
:100A800008230DF015FECDE90A01DDE90C230DF078
:100A90000FFE8246DDE90E230DF00AFE80468946F0
:100AA00000224FF08043304639460EF015F9824659
:100AB000BE480CC850460EF00FF9CDE902010DF00A
:100AC00023FD0022C04BCDE904010EF005F9002200
:100AD000BE4BCDE90801304639460EF0FDF882469E
:100AE000B2480CC850460EF0F7F8CDE902010DF0FF
:100AF0000BFD0022B44BCDE904010EF0EDF8CDE979
:100B00000601DDE908230DF0D3FD00224FF08043FC
:100B1000CDE90A010EF0E0F80022A94BCDE90C0165
:100B20000DF082FE42464B46CDE90E010DF0C0FDB0
:100B3000804689460022A24B204629460DF074FECD
:100B400082469A480CC850460EF0C6F8CDE902011C
:100B50000DF0DAFC00229E4BCDE904010EF0BCF84A
:100B6000CDE9080191480CC8204629460EF0B4F89A
:100B7000CDE904010DF0C8FC82460022924B0EF034
:100B8000ABF8CDE90601DDE908230DF091FD002267
:100B90004FF08043CDE90A010EF09EF80022884B09
:100BA000CDE90C010DF040FE42464B46CDE90E0169
:100BB0000DF07EFD804689467C480CC820462946BB
:100BC0000EF08AF80022834BCDE902010DF02CFED5
:100BD00082460DF099FC00227F4BCDE904010EF016
:100BE0007BF800227D4BCDE90801204629460DF017
:100BF0001BFECDE902016D480CC802980EF06CF89E
:100C000082460DF081FC0022754BCDE904010EF007
:100C100063F8CDE90601DDE908230DF049FD002266
:100C20004FF08043CDE90A010EF056F80022644BE4
:100C3000CDE90C010DF0F8FD42464B46CDE90E0121
:100C40000DF036FD804689464046494611B0BDE864
:100C5000F08F2DE9F04F8FB004460D4692469B462B
:100C6000204629460DF074FF0E90002801DB0E99F6
:100C700001E00E99494208460DF0C7FFCDE9080191
:100C80000DF092FC4B4A4D4BCDE90A010EF024F8D1
:100C9000484A4A4BCDE90C01204629460EF01CF883
:100CA00052465B46CDE906010EF016F8414A434B29
:100CB000CDE90A01204629460EF00EF822462B46C1
:100CC000CDE902010EF008F852465B46CDE9060177
:100CD00000204FF080410DF0FFFF0022414BCDE995
:100CE0000201204629460DF0E3FCCDE90001DDE9D3
:100CF00002230DF0DDFCCDE90401DDE906230DF052
:100D0000D7FCCDE90801DDE90A230DF0D1FC8046CE
:100D1000DDE90C230DF0CCFC06460F4600224FF017
:100D20008043204629460DF0D7FF80461F480CC857
:100D300040460DF0D1FFCDE900010DF0E5FB0022AA
:100D4000214BCDE902010DF0C7FF00221F4BCDE979
:100D50000601204629460DF0BFFF804613480CC807
:100D600040460DF0B9FFCDE900010DF0CDFB0022AA
:100D7000154BCDE902010DF0AFFFCDE90401DDE92E
:100D800006230DF095FC00224FF08043CDE90801C9
:100D90000DF0A2FF00220A4BCDE90A010DF044FD3F
:100DA00032463B46CDE90C011EE000006000002009
:100DB000008066409A9999999999C93F9999B93F44
:100DC00000000840000059C00000344000001840F6
:100DD0000000444000003E400000744000002840F5
:100DE0000000644000C072400DF062FC06460F46F1
:100DF0000022FE4B204629460DF016FDCDE90001EC
:100E0000FB480CC800980DF067FF80460DF07CFB96
:100E10000022F84BCDE902010DF05EFFCDE906019D
:100E2000F3480CC8204629460DF056FFCDE90201D3
:100E30000DF06AFB80460022EF4B0DF04DFFCDE92F
:100E40000401DDE906230DF033FC00224FF080435E
:100E5000CDE908010DF040FF0022E44BCDE90A0185
:100E60000DF0E2FC32463B46CDE90C010DF020FCD2
:100E700006460F460022E14B204629460DF0D4FCE1
:100E80008046DB480CC840460DF026FFCDE9000146
:100E90000DF03AFB0022DA4BCDE902010DF01CFF08
:100EA0000022D84BCDE90601204629460DF0BCFCB6
:100EB000CDE90001CE480CC800980DF00DFF80462A
:100EC0000DF022FB0022D04BCDE902010DF004FF12
:100ED000CDE90401DDE906230DF0EAFB00224FF025
:100EE0008043CDE908010DF0F7FE0022BF4BCDE9AC
:100EF0000A010DF099FC32463B46CDE90C010DF09C
:100F0000D7FB06460F46304639460FB0BDE8F08F96
:100F10002DE9F04F93B004460D4616461F460022B9
:100F2000BA4B204629460EF0FDF80022B84BCDE919
:100F30000A01304639460EF0F5F8CDE90801DDE941
:100F40000A23FFF742FD82468B460022AF4B204624
:100F500029460EF0E7F80022AD4BCDE90A013046F4
:100F600039460EF0DFF8CDE90801DDE90A23FFF785
:100F700070FECDE910010022A64B204629460DF057
:100F800053FCCDE90A019A480CC80A980DF0A4FE5A
:100F9000CDE90E01DDE90E010DF0B6FA8046894675
:100FA00042464B469C4903C90DF096FE42464B46CD
:100FB000CDE908010DF090FE0022984BCDE90A0121
:100FC0000DF0BEFF80468946404649460DF0ECFADA
:100FD000CDE90C0140464946DDE90C230DF07CFECD
:100FE000CDE904018C480CC800208C490EF09AF819
:100FF000CDE900018A480CC800980DF06DFECDE9DE
:101000000201DDE904230DF00FFCCDE9060178486B
:101010000CC806980DF060FE00227E4BCDE90A0157
:10102000504659460DF058FECDE90801DDE90A2386
:101030000DF0FAFB82468B46DDE90E010CF0C4FC94
:10104000CDE904017649DDE90C2303C90DF0ECFB81
:10105000CDE90201DDE904230DF03EFECDE90601F4
:1010600063480CC806980DF037FE0022694BCDE9A5
:101070000A01DDE910010DF02FFECDE90801DDE9DF
:101080000A230DF0D1FBCDE9100152465B46204604
:1010900029460DF00DFB1C9A03C230463946DDE9A6
:1010A00010230DF005FB1D9A03C213B0BDE8F08FAD
:1010B0002DE9F04F8FB004460D4616461F46B04648
:1010C000B946A246AB4657480CC8504659460DF0A3
:1010D00003FECDE902010DF017FA534A534BCDE957
:1010E00004010DF0F9FD52465B46CDE9080150467A
:1010F00059460DF0F1FD42464B46CDE9020140460E
:1011000049460DF0E9FDCDE90001DDE902230DF0CE
:10111000CFFACDE904010DF047FACDE90601DDE98A
:1011200008230DF0C5FACDE90C013E480CC8404635
:1011300049460DF0D1FDCDE902010CF045FC3C4AD9
:101140003C4BCDE904010DF0C7FD42464B46CDE9CD
:101150000801504659460CF061FBCDE90601DDE976
:1011600008230DF0A5FACDE90A01DDE90A010CF02A
:101170002BFCCDE90601DDE90C230DF0ADFD2E4A77
:101180002E4BCDE908010DF093FA199A03C2DDE95F
:101190000A010DF0B9F9CDE90601DDE90C230DF0E6
:1011A0009BFD274A274BCDE908010DF081FA189ADB
:1011B00003C20FB0BDE8F08F2DE9FF5F04460D4676
:1011C00016461F46DDE90EAB32463B462046294611
:1011D000CDE900ABFFF79CFECDE900ABDBE9008376
:1011E000DAE900014246CDE902012DE000000840A5
:1011F00060000020000044400000344000003E40F9
:1012000000C072400000284000C0624000804140A1
:1012100000405A4000806640680000200000F03F17
:101220007000002078000020F168E388B5F8F43EF3
:1012300054E41071732AC93E39B4C876BE9F7A3F10
:10124000FA7E6ABC7493783FFFF732FFBDE8FF9FD8
:101250002DE9F04F9BB006460F4692469B465048FC
:101260005049CDE9180130463946FFF79DFB8046CD
:101270008946DDE92401FFF797FBCDE916014046D9
:101280004946DDE916230DF04DFFCDE91401DDE9F6
:101290002601FFF789FBCDE9100150465946FFF7BB
:1012A00083FBCDE90E01DDE910230DF03BFFCDE915
:1012B000120100224FF08043DDE912010DF0B4FA73
:1012C000CDE900010DF020F900224FF08043CDE977
:1012D00002010CF02DFCCDE90601DDE916010CF050
:1012E00073FBCDE90201404649460CF06DFBCDE9A8
:1012F0000001DDE902230DF0EFFCCDE90401DDE999
:1013000006230DF0E9FC00224FF08043CDE90A01ED
:10131000DDE914010DF088FACDE904010DF0F4F8CF
:1013200000224FF08043CDE906010CF001FCCDE92D
:101330000801DDE90A230DF0BBF9CDE90C010DF040
:1013400033F9CDE90E010CF021F800224FF0804373
:10135000CDE910010DF0C0FC04460D46204629469B
:10136000DDE918230DF0B8FC04460D4600220E4BB3
:10137000204629460DF0B0FCCDE90C010DF018FC1B
:101380000F900DF059FC0022074BCDE910010DF034
:101390004BFA04460D46204629461BB0BDE8F08FA7
:1013A0008D976E1223EAB8400088C3400146088832
:1013B00070472DE9F04105460E461746002407E028
:1013C00036F81410284608F0E6FDAD1C601C84B207
:1013D000BC42F5DBBDE8F08130B503460C4615464E
:1013E000002207E01846FFF7E1FF24F812009B1CDB
:1013F000501C82B2AA42F5DB30BD2DE9F05F804679
:101400008A461746B8F1006F02D3F948804501D3E8
:10141000BDE8F09F08F077FCA8F1006B4FEADB25F0
:10142000CBF34909C9F58064A74200DC3C464DE096
:101430004FF0006101EBC5204A14EE49FFF7CCFFE5
:1014400000260BE009EB0600EA4931F810004FF6E0
:10145000FF71884200D003E0701C86B2A642F1DB27
:1014600000BFA6421BDA4FF0006101EBC52008F077
:101470008FFC002608E03AF8160006EB0901DD4A69
:1014800022F81100701C86B2A642F4DB4FF0006116
:1014900001EBC5204A14D749FFF78BFF04E0224631
:1014A00051464046FFF785FFA74200D10FE06D1C73
:1014B0004FF000090AEB440AA044381B87B2B7F585
:1014C000806F02DD4FF4806400E03C46B0E700BF6F
:1014D00008F025FC00BF9BE713B50446012201A9D3
:1014E0002046FFF78AFF1CBD10B508F0EBFE052172
:1014F000C14808F0F0FEC0494861012088610E2211
:10150000BE48FFF77AFF10BD10B500240E22BA497D
:10151000BA48FFF761FFB8488069012813D108F085
:10152000D1FE0521B44808F0D6FE0446B248406911
:10153000A04205D1B0480068401CAF49086002E0F5
:101540000020AD498861AC488069012809D001209C
:10155000A9490860002048608860C86008610120CF
:101560008861FFF7C1FFA4480168A5A009F0E8F968
:10157000A1484168A7A009F0E3F99F48C168ACA061
:1015800009F0DEF99C480169AFA009F0D9F910BD56
:1015900010B50446601CB34909784843B14909783D
:1015A00001EB4101B0EB410F09DCAE490978AE4ACD
:1015B00004FB01205222AD49FFF71FFF39E0052C43
:1015C0000CDD0B2C0ADCA11FA64A1278A84B01FBEC
:1015D00002305222A549FFF710FF2AE00B2C0DDD47
:1015E000112C0BDCA4F10C019E4A1278A14B01FBDB
:1015F000023052229D49FFF700FF1AE00B2C0DDD4F
:10160000112C0BDCA4F11201964A12789A4B01FBC3
:10161000023052229549FFF7F0FE0AE0A4F11801CA
:10162000904A1278954B01FB023052228F49FFF706
:10163000E4FE93A009F084F910BD10B50446601CC7
:101640008849097848438749097801EB4101B0EBA3
:10165000410F0EDC83490978834A04FB01205222A2
:101660009049FFF7B9FE00208E497E4A12788854CF
:101670004DE0052C11DD0B2C0FDCA11F794A1278EF
:101680007B4B01FB023052228649FFF7A5FE00206A
:101690008449744A1278885439E00B2C12DD112CDD
:1016A00010DCA4F10C016F4A1278724B01FB02307E
:1016B00052227C49FFF790FE00207A49694A12784D
:1016C000885424E00B2C12DD112C10DCA4F1120143
:1016D000644A1278684B01FB023052227149FFF7CD
:1016E0007BFE00206F495F4A127888540FE0A4F116
:1016F00018015C4A1278614B01FB023052226949A1
:10170000FFF76AFE00206749564A1278885410BDD8
:101710002DE9F04707468846B7F1006F02D33448F9
:10172000874201D3BDE8F08708F0EDFAA7F1006A1F
:101730004FEADA24CAF34909C9F58065A84500DCF7
:10174000454621E04FF0006101EBC4204A142949CD
:10175000FFF742FE00260BE009EB0600254931F8B1
:1017600010004FF6FF71884200D003E0701C86B273
:10177000AE42F1DB00BFAE4205DA4FF0006101EB93
:10178000C42008F005FB00E0DCE700BF08F0C7FA62
:1017900000BFC7E72DE9F04706460F46B6F1006FD8
:1017A00002D31348864201D3BDE8F08708F0ABFAB4
:1017B000A6F1006A4FEADA28CAF34909C9F580643C
:1017C000A74200DC3C467EE04FF0006101EBC82000
:1017D0004A140849FFF700FE002567E009EB050001
:1017E000044931F810004FF6FF7188425CD05FE089
:1017F0000000080894020020601F00200004010877
:10180000C9E8B1B8C6F4B6AFB4CECAFDA3BA256470
:101810000D0A0000C9CFB4ABB7FECEF1C6F7CAA718
:10182000B0DCB4CECAFDA3BA25640D0A00000000E6
:10183000706F73744572726F7254696D6573A3BA79
:1018400025640D0A00000000475053B3ACCAB1CE66
:10185000B4B6A8CEBBB4CECAFDA3BA25640D0A0D9A
:101860000A000000D000002000080108F00100205C
:10187000000C0108001001080014010800180108FC
:10188000CEB4C9CFB4ABB3C9B9A6B5C4475053CAD7
:10189000FDBEDDD2D1B1A3B4E6464C4153480D0A9A
:1018A0000D0A00004C010020681C85B2A54295DBA2
:1018B00000BFA54203DA07A009F042F804E00AA03D
:1018C00009F03EF800E07FE700BF08F028FA00BF0B
:1018D0006AE70000BCECD1E9B5C4464C415348B2BC
:1018E000BBCEAABFD50D0A00BCECD1E9B5C4464CAD
:1018F000415348BFD50D0A0070B505460C4645F268
:10190000555008F0BFFC284608F0BFFC204608F000
:10191000BFFC08F0C0FC08F0C3FC70BD10B508F0B7
:10192000BAFC10BD10B586B004460121082007F0AE
:1019300055F80121880407F05EF8FE4807F0B2F878
:101940004FF40060ADF8100004208DF8130004A9D6
:10195000F94806F087FD00940020ADF80400ADF8CA
:101960000600ADF80800ADF80C000420ADF80A0040
:101970006946F04807F0D9F80121EE4807F061F90F
:10198000012240F22551EB4807F067F9012260215E
:10199000E84807F062F9002240F22771E54807F0B5
:1019A0005CF927208DF8140002208DF81500012025
:1019B0008DF816008DF8170005A806F08AFC06B011
:1019C00010BD0021DD4A1160DD4A1170DD4A118031
:1019D000002005E00021DC4A42F82010411CC8B27A
:1019E0001428F7DB7047D94800790830D7490871C7
:1019F00008460079182879DB0846007918380871FC
:101A00000846C078401CC870084680780D287CD2F3
:101A1000DFE800F07B0744082709280A0B290C2A75
:101A20000D0000BF00BF00BF00BF00BF00BFC74820
:101A3000C0781F2814DDC548C0781F38C349C87056
:101A400008468078401C8870084680780C2807DD9E
:101A5000084680780C38887008460088401C08804A
:101A600053E000BF00BF00BFB848C0781E2814DD97
:101A7000B648C0781E38B549C87008468078401C02
:101A80008870084680780C2807DD084680780C3876
:101A9000887008460088401C088036E0AB490988F9
:101AA0004FF4C87291FBF2F302FB131181B1A74905
:101AB0000888C11700EB91718910A0EB8101B1B9C1
:101AC000A2490988642291FBF2F302FB131171B160
:101AD0009E48C0781D2817DD9C48C0781D389B495A
:101AE000C87008468078401C88700DE00EE097486A
:101AF000C0781C2808DD9548C0781C389349C87008
:101B000008468078401C887000BF00BF8F4800885E
:101B1000B0F5FC6F1BDD8D4880780C2803DD8B4809
:101B20008078012813DB8948C0781F2803DD8748A7
:101B3000C07801280BDB85480079182807DC83482A
:101B400040793C2803DC814880793C2807DD00206F
:101B50007E4908808870C870087148718871704724
:101B60002DE9F04F8BB0002400200990089000264A
:101B700081460025824607902C217548006801F0B7
:101B800006F9099009980C287DD172A17048006867
:101B900009F0D7F8064671A16D48006809F0D1F840
:101BA0008146A9EB0600089000BF03E0305D80EAA3
:101BB0000A0A641C08988442F8D3102206A909F185
:101BC000010009F086F8C0B20790079850457DD112
:101BD00002215F48006801F0C3F805466878412893
:101BE00075D15FA008F0ACFE01215948006801F0F2
:101BF000B7F805460622691C5C4809F0D3F80020B6
:101C00005A49887103215248006801F0A9F8054635
:101C10000922691C564809F0C5F800205449487249
:101C200005214B48006801F09BF805460A22691C13
:101C3000504809F0B7F800204E49887209214448FD
:101C4000006801F08DF805460622691C4A4809F033
:101C5000A9F800204849887145480BF09FFE474A83
:101C600003C2464903C90CF073FF642190FBF1F0F5
:101C700000FB01FB58460CF0C8FFCDE900013F48CE
:101C80000CC8009800E036E10DF05AF90746002232
:101C90003B4B0CF0C9FDCDE90401384903C90CF0F8
:101CA00057FF642190FBF1F738460CF0AEFFCDE909
:101CB0000201DDE904230CF0FBFC304A03C22D488D
:101CC0000BF06CFE2F4A03C22E4901E00FE10AE13E
:101CD00003C90CF03DFF642190FBF1F000FB01FB18
:101CE00058460CF092FFCDE9000126480CC8009838
:101CF0000DF026F907460022214B0CF095FDCDE9A9
:101D00000401204903C90CF023FF642190FBF1F783
:101D100038460CF07AFFCDE90201DDE904230CF02E
:101D2000C7FC184A03C218481849CDE900101548E5
:101D300012492DE000480040000C01408C000020BA
:101D40009000002088000020541E0020980A0020E7
:101D5000940000204750524D430000002A0000002C
:101D600041B6A8CEBBD3D0D0A70D0A009800002062
:101D7000AF1E0020A41E00209F000020A80000200D
:101D800000004E40B8000020C0000020B00000203D
:101D90000CC803C9FFF710FA0022FE4BFE4903C925
:101DA0000CF05EFF14D30022FC4BFB4903C90DF07D
:101DB00091F80DD30022FA4BFA4903C90CF050FFF9
:101DC00006D30022F84BF74903C90DF083F805D27A
:101DD000F6A008F0B5FD0BB0BDE8F08FF84801782B
:101DE0000078401CF64A1070B1B900240EE0ED48AE
:101DF000D0E90010F34A02EBC402C2E90010E64940
:101E000003C9F14A02EBC40203C2641C0A2CEED3DC
:101E10000120EE4908701AE0E24903C9E94AEB4B98
:101E20001B7802EBC30203C2DB4903C9E64AE74B56
:101E30001B7802EBC30203C2E4480078401CE3496C
:101E40000870084600780A2801DB00200870E04886
:101E50000079303800EB80004FF4FA6101EB40016B
:101E6000DB48407930380844DA490880D848C178DE
:101E70008078303800EB800001EB40003038D549E5
:101E80008870D34841780078303800EB800001EB4F
:101E900040003038CF49C870CF484178007830389A
:101EA00000EB800001EB40003038CA490871CA4895
:101EB000C1788078303800EB800001EB400030388A
:101EC000C4494871C44841790079303800EB80003A
:101ED00001EB40003038BF498871FFF784FD0120D5
:101EE000BE4908700AE0BEA008F02AFD06E0C0A0C6
:101EF00008F026FD6FE7C2A008F022FD00BF6AE7E8
:101F00002DE9F04F87B082464FF0000B00BF00BFB5
:101F100000BF002004900590DAE902100C46054647
:101F20000E46074600BF28E00AEBCB0103C9324644
:101F30003B46CDE902010CF093FE02D20AEBCB0046
:101F4000C0C80AEBCB0103C922462B46CDE90201EA
:101F50000CF0C0FF02D20AEBCB0030C80AEBCB007A
:101F600003C8CDE90201DDE904230CF0A1FBCDE9B2
:101F700004010BF1010000F0FF0BBBF10A0FD3DBF2
:101F800022462B46DDE904010DF0CCF832463B46F3
:101F9000CDE900010DF0C6F800229D4BCDE902010C
:101FA0000CF042FC804689464046494607B0BDE8F1
:101FB000F08F70B505460C468248FFF7A1FFC5E9D2
:101FC00000018148FFF79CFFC4E9000170BD00B526
:101FD00095B000208F4908708F480078C0B97D48BF
:101FE00080797C4949797B4A12797A4BDB78CDE953
:101FF0000032CDE9021077488378028887A11C302F
:1020000008F0AAFC84480078401C8349087058E016
:1020100070488179427900796E4BDB78CDE90030E8
:10202000CDE902216B48837802887CA1C01D08F0AD
:1020300093FC82480378824800698149C968804AD4
:102040005268CDE91303CDE911217D4800687D492F
:102050000A686049C91DCDE90E1210907A4903C97A
:10206000CDE90C01794803C8CDE90A017848037825
:1020700073480269C06872494968CDE90723CDE910
:1020800005106F4801686F48026852481C30CDE95E
:10209000032102906F4803C8CDE900016E486F49E3
:1020A0000CC86F4808F058FC6E4908700846017863
:1020B0006DA008F045FC01205649087000205649E3
:1020C000087000206E49086015B000BD10B540F2E0
:1020D00025516C4806F0A6FE012857D140F2255143
:1020E000684806F0C9FE674806F01CFEC1B26648A3
:1020F00002880088401C644B18806448815418464C
:102100000088801E6149085C0D2805D018460088AB
:10211000401E085C0A283AD15B4800885C4909687F
:10212000401A022834D9594859490968084459497C
:10213000594A127841F82200002153480088801E35
:10214000524A115453485449097850F821000078F4
:1021500024281ED14F485049097850F82100407872
:10216000472816D14B484C49097850F8210080780F
:1021700050280ED147484849097850F82100C078C6
:10218000522806D143484449097887E0C2E0A7E0D5
:10219000A2E09CE000005240C0000020000061402E
:1021A00000003240B000002000004B40B3ACB3F65A
:1021B000C1CBD6D0B9FAB5C4B7B6CEA700000000DF
:1021C000E1000020101F0020C01E0020C8000020D9
:1021D0009F000020980A002098000020C9000020DD
:1021E000475053CEB4B3C9B9A6B6A8CEBB0D0A00AA
:1021F000CAFDBEDDD0A3D1E9BACDCAA7B0DC0000CC
:10220000C3BBD3D03132B8F6B6BABAC50D0A000096
:102210000000204051000020CA0000202530346416
:102220002D253032642D2530326420253032643A39
:10223000253032643A2530326400000081000020ED
:10224000601F0020CC00002020000020280000207B
:10225000800000203000002038000020400F0108DE
:10226000F0010020D0000020B4F2B0FCCAFDBEDDB9
:10227000C9CFB4ABB4F3D0A125640D0A00000000AF
:10228000180000200048004088000020CA0A0020F2
:102290008C000020541E00209000002050F82100E7
:1022A00000794D2813D122482249097850F821009D
:1022B000407943280BD11E481E49097850F8210067
:1022C0001D4908600846006808B1FFF749FC194835
:1022D0000078401C174908701848008818490860A1
:1022E0001648008841F28831884203DA11480078A4
:1022F00014280FDB0020124908600E4908700F49AE
:102300000880002404E00020094941F82400641CEE
:10231000142CF8D308210B4806F06EFD012806D1D5
:102320000821084806F075FD064806F0FBFC10BDC4
:10233000541E0020900000209400002088000020FF
:102340008C0000200048004010B586B004460121F2
:10235000042006F043FB0121480406F04CFB5F48D3
:1023600006F0A0FB0420ADF8100003208DF8120049
:1023700018208DF8130004A9594806F073F80820B6
:10238000ADF8100004208DF8130004A9544806F09D
:1023900069F800940020ADF80400ADF80600ADF82F
:1023A0000800ADF80C000C20ADF80A0069464B4857
:1023B00006F0BBFB0121494806F043FC012240F234
:1023C0002551464806F049FC01226021434806F0A9
:1023D00044FC002240F22771404806F03EFC2620D3
:1023E0008DF8140002208DF8150000208DF81600DD
:1023F00001208DF8170005A805F06BFF41F61F417D
:102400006320FEF75EFA0020364908800021364836
:1024100007F07CF906B010BD10B540F225512F48E9
:1024200006F000FD00B32D4806F07CFCC4B22D4838
:10243000008800F40040B8B92A48008841F2883189
:10244000884212DA0021284807F0F4FB254800886A
:1024500018B90121244807F059F922490888411C7C
:10246000204A1180D11C0C5405E01E48008840F41D
:1024700000401C4908800821184806F0BDFC0128CE
:1024800006D10821154806F0C4FC144806F04AFCA1
:1024900010BD0FB438B505A800901448009A0499EF
:1024A00008F03CFA00200090104808F05CFC85B26F
:1024B00000240DE000BF4021084806F09DFC0028E4
:1024C000F9D00A48015D054806F028FC601C84B27A
:1024D000AC42EFDB38BC5DF814FB00000044004068
:1024E000000801407C1F002000140040073300203A
:1024F00070B504460025F348008800F40040A8B1F8
:10250000F048008848F6FF71084341F2883188425C
:1025100003DB0021EC4880F887132146E948C01C02
:1025200008F00FFC05460DB1284670BD0020FCE701
:102530000021E44A1180002005E00022E149C91C85
:102540000A54411C88B241F288318842F5DB704759
:102550002DE9F04105460E4614464FF000084FF4B1
:10256000967005F0C4FDFFF7E3FFFF2D0AD200BF10
:10257000D648008800F040000028F9D0D349091D52
:102580000D8005E02846FFF784FFD1A0FFF781FF0B
:102590009EB194B106E03046FFF7AAFF074601203E
:1025A00005F0A5FD601E041E01D0002FF3D00CB96C
:1025B0004FF0FF380FB14FF000084046BDE8F08102
:1025C00010B5002409E0601CC4B22146C1A008F087
:1025D000B7F9142C01DD00F0E7F843F69822C3A107
:1025E000C3A0FFF7B5FF0028EDD1C4A008F0A8F9FB
:1025F00010BD10B54FF47A72C4A1C7A0FFF7A8FFB1
:1026000004461CB9C8A008F09BF902E0CAA008F073
:1026100097F94FF47A72CCA1CDA0FFF799FF044649
:102620001CB9CEA008F08CF902E0D1A008F088F91E
:102630004FF47A72ADA1D3A0FFF78AFF04461CB90C
:10264000D4A008F07DF902E0D9A008F079F941F2B0
:102650008832A6A1DDA0FFF77BFF04461CB9DEA0EF
:1026600008F06EF902E0E1A008F06AF941F2883260
:102670009EA1E3A0FFF76CFF04461CB9E7A008F099
:102680005FF902E0EAA008F05BF941F2883297A115
:10269000ECA0FFF75DFF04461CB9EEA008F050F96E
:1026A00002E0F0A008F04CF9204610BD70B541F2F0
:1026B00088328EA1EFA0FFF74BFF05462DB1EFA0AA
:1026C00008F03EF901207F49887088A0FFF710FFCD
:1026D00004465CB1A4F113010F22ED4808F062FB3F
:1026E0000020EB49C873EBA008F02AF970BD70B563
:1026F00041F288327DA1EBA0FFF72AFF05461DB904
:10270000EAA008F01DF905E0EEA008F019F9012093
:102710006C498870F1A0FFF7EBFE04466CB11422FF
:102720002146DB48323808F03DFB0020D8493239D9
:102730000875EBA008F004F905E0E2A008F000F944
:1027400001206049887070BD08B50121082006F09D
:1027500045F90620ADF8000010208DF80300032095
:102760008DF802006946E44805F07CFE0020E3494C
:1027700008600120E249C1F888014FF47A7005F041
:10278000B6FC0020DD49091D0860322005F0AFFCD1
:102790000120DB49C1F8840140F6B83005F0A7FC00
:1027A0000020D649086008BD70B500250020D54935
:1027B0000870D5490870FEF797FEFFF7C5FF0120A6
:1027C000D049087000BF0EE029466D1CCFA008F06C
:1027D000B7F8322D07D3D4A008F0B2F80120394958
:1027E000887000BFFEE74FF4FA7240A1D8A0FFF74F
:1027F000AFFE041EE8D11CB1D7A008F0A1F8AEE2EC
:10280000DBA008F09DF841F2883238A1DEA0FFF786
:102810009FFE04461CB9DEA008F092F802E0E0A09A
:1028200008F08EF841F2883230A1E1A0FFF790FE67
:1028300004461CB9E1A008F083F802E0E6A008F025
:102840007FF8FFF754FFFFF731FF0220AD49087012
:1028500000250EE029466D1CE6A008F071F8142D45
:1028600007D3EBA008F06CF801201649887000BF70
:10287000FEE740F6B832EFA1F0A0FFF769FE041EB4
:10288000E8D11CB9F0A008F05BF802E0F2A008F073
:1028900057F840F6B832F4A1F5A0FFF759FE044608
:1028A0001CB9F6A008F04CF809E040F6B8320FA1C8
:1028B000F9A0FFF74DFE0446FAA008F041F8032006
:1028C00000E200007C1F00207F2F00200044004019
:1028D0000D0A000041475053BFAAC6F4CAA7B0DC96
:1028E000B4CECAFD2E2E2E25640D0A004F4B0000DB
:1028F00041542B414750533D310000004147505354
:10290000B4F2BFAAB3C9B9A60D0A0000434C4F5395
:1029100045204F4B0000000041542B434950434C8D
:102920004F53453D31000000B9D8B1D5C1ACBDD33E
:10293000B3C9B9A60D0A0000B9D8B1D5C1ACBDD391
:10294000CAA7B0DC0D0A000053485554204F4B0075
:1029500041542B434950534855540000B9D8B1D580
:10296000D2C6B6AFB3A1BEB0B3C9B9A60D0A0000B6
:10297000B9D8B1D5D2C6B6AFB3A1BEB0CAA7B0DC84
:102980000D0A000041542B4347434C4153533D2211
:1029900042220000C9E8D6C347505253D2C6B6AF50
:1029A000CCA8C0E0D0CDCEAA42B3C9B9A60D0A00CA
:1029B000C9E8D6C347505253D2C6B6AFCCA8C0E080
:1029C000D0CDCEAA42CAA7B0DC0D0A0041542B4399
:1029D000474154543D310000B8BDD7C5475052530C
:1029E000D2B5CEF1B3C9B9A60D0A0000B8BDD7C59E
:1029F00047505253D2B5CEF1CAA7B0DC0D0A000041
:102A000041542B434744434F4E543D312C224950AF
:102A1000222C22434D4E455422000000C9E8D6C363
:102A2000504450B2CECAFDB3C9B9A60D0A00000089
:102A3000C9E8D6C3504450B2CECAFDCAA7B0DC0D17
:102A40000A00000041542B43474143543D312C318F
:102A500020000000BCA4BBEE504450B3C9B9A60D81
:102A60000A000000BCA4BBEE504450CAA7B0DC0D65
:102A70000A00000041542B47534E0000B2E9D1AF89
:102A8000494D4549BAC5CAA7B0DC0D0A000000008F
:102A90000A3B0020494D4549BAC53A2025730D0A25
:102AA0000000000041542B474D520000B2E9D1AF65
:102AB000C4A3BFE9C8EDBCFEB0E6B1BEB3C9B9A6B8
:102AC0000D0A0000B2E9D1AFC4A3BFE9C8EDBCFE56
:102AD000B0E6B1BECAA7B0DC0D0A00005600000087
:102AE000C4A3BFE9C8EDBCFEB0E6B1BE3A20257371
:102AF00020200D0A00000000000C014084812142CA
:102B000000802142E3000020E2000020D5FDD4DA5D
:102B1000B3F5CABCBBAF4154D6B8C1EEBCAF606020
:102B20006025640D0A0000000D0AB3F5CABCBBAFF6
:102B30004154D6B8C1EEBCAFCAA7B0DCA3ACD5FD3A
:102B4000D4DAD6D8C6F4B5A5C6ACBBFA0D0A0000D7
:102B500041540D0A00000000B3F5CABCBBAF41549C
:102B6000D6B8C1EEBCAFCAA7B0DC0D0A00000000A9
:102B7000B3F5CABCBBAF4154D6B8C1EEBCAFB3C904
:102B8000B9A60D0A000000004154453000000000C5
:102B9000B9D8B1D5BBD8CFD4B3C9B9A60D0A0000F6
:102BA000B9D8B1D5BBD8CFD4CAA7B0DC0D0A0000C4
:102BB00041542B434D45453D32000000B4F2BFAABD
:102BC000C9CFB1A8CFEACFB8B4EDCEF3D0C5CFA26C
:102BD000B3C9B9A60D0A0000B4F2BFAAC9CFB1A803
:102BE000CFEACFB8B4EDCEF3D0C5CFA2CAA7B0DC40
:102BF0000D0A0000D5FDD4DAB2E9D1AF53494DBF7B
:102C0000A8D7B4CCAC60606025640D0A0000000059
:102C10000D0ABCECB2E253494DBFA8CAA7B0DCA371
:102C2000ACD5FDD4DAD6D8C6F4B5A5C6ACBBFA0D82
:102C30000A000000524541445900000041542B4312
:102C400050494E3F00000000D2D1B2E5C8EB5349D5
:102C50004DBFA80D0A000000CEB4B2E5C8EB534941
:102C60004DBFA80D0A000000435245470000000078
:102C700041542B435245473F00000000CDF8C2E7C6
:102C8000D2D1BEADD7A2B2E1A3ACD4DAC2FED3CECC
:102C9000C4A3CABDCFC2000041542B435245473D97
:102CA00031000000CDF8C2E7D2D1BEADD7A2B2E16B
:102CB000A3ACD4DAC2FED3CEC4A3CABDCFC20D0A20
:102CC00000000000E549087041F28832AFF2E431BB
:102CD000E3A0FFF73DFC04461CB9E4A007F030FE7A
:102CE00002E0E9A007F02CFE002514E0EDA0FFF7BC
:102CF000FFFB064629466D1C3246ECA007F020FE7D
:102D0000782D05D3F0A007F01BFE0120F74988704D
:102D1000322005F0ECF941F28832AFF23041F4A0F4
:102D2000FFF716FC041EE1D17CB9DEA0FFF7E0FB43
:102D300000F10C060B223146F04808F033F8002071
:102D4000EE490873EEA007F0FBFDFFF752FC0420EC
:102D5000C2490870FFF734FC0520C049087070BDF7
:102D600010B502460B46002400210AE0505C2C28D6
:102D700005D1601CC4B29C4201D1501810BD481C42
:102D800081B24FF6FF708142F0DB1046F6E710B5D6
:102D900002460B46002000210AE0545C9C4202D10E
:102DA000441CE0B202E0545C04B910BD4C1CA1B25A
:102DB000F3E72DE9FF4F8DB0834615461E460020F0
:102DC0000390029081460190824658460E9907F082
:102DD000B8FF074627B94FF0FF3011B0BDE8F08FBC
:102DE0002C215846FFF7D3FF0390039801282FD1D9
:102DF0000E9807F0B8FF824601213846FFF7B0FF72
:102E00000446E01BA0EB0A0002900BEB0A010AA8A3
:102E1000029A07F0C7FF00210AAA029811541DB1B7
:102E20000AA807F049FF2860601C07F09CFF814654
:102E30004A46611C07A807F0B5FF002007A901F862
:102E400009001EB107A807F037FF30600020C4E773
:102E5000039802284AD10E9807F085FF8246012187
:102E60003846FFF77DFF0446E01BA0EB0A00029006
:102E70000BEB0A010AA8029A07F094FF00210AAAA4
:102E8000029811541DB10AA807F016FF286002210C
:102E90003846FFF765FF8046A8EB0400A0F1010962
:102EA0004A46611C07A807F07DFF00200AA901F827
:102EB00009001EB107A807F0FFFE306008F101000D
:102EC00007F051FF019008F1010104A8019A07F0F1
:102ED00069FF002004A901F809001A9820B104A88C
:102EE00007F0EAFE1A990860002076E74FF0FF30FD
:102EF00073E77CB500200190002541F28832AFF2E3
:102F0000146184A0FFF724FB04461CB183A007F0E2
:102F100017FD10E086A0FFF7EBFA064600200346F7
:102F200001AA85A100903046FFF743FF18B984A09D
:102F3000019907F005FD4FF47A7285A186A0FFF78D
:102F400007FB044614B14FF0FF307CBD80A0FFF7B3
:102F5000CFFA0546E879312801D10020F5E7FFF7DF
:102F600048FBF2E710B59AB07E4B7F4A7FA101A8DB
:102F700007F0F2FC41F28832AFF2906101A8FFF74E
:102F8000E7FA04461CB980A007F0DAFC02E083A04F
:102F900007F0D6FC20461AB010BD70B500254FF4DE
:102FA000FA6283A185A0FFF7D3FA041E04D187A09B
:102FB00007F0C6FC05251EE08BA0FFF799FA20B1AB
:102FC0008BA007F0BDFC042515E08FA0FFF790FA59
:102FD00020B18FA007F0B4FC03250CE092A0FFF70E
:102FE00087FA20B192A007F0ABFC022503E096A07F
:102FF00007F0A6FC0125012D06D0022D05D0032DDA
:1030000006D0042D11D104E000BFFFF7F2FA00BF93
:1030100000BFFFF7A7FF041E03D190A007F090FCAC
:1030200002E092A007F08CFC00BF00BF00BF20466A
:1030300070BD2DE9FC410646002401208F4908702F
:1030400000208F49087031E1601CC4B221468DA078
:1030500007F076FC0A2C00DD20E124E1E3000020EB
:1030600041542B434F50533D302C3000C9E8D6C358
:10307000B3A4B8F1CABDD7D6C4B8CAFDD7D6B3C9B0
:10308000B9A60D0A00000000C9E8D6C3B3A4B8F180
:10309000CABDD7D6C4B8CAFDD7D6CAA7B0DC0D0AF8
:1030A000000000002B434F50533A0000D5FDD4DA06
:1030B000BCECB2E2D0C5BAC56060602564202020B7
:1030C00025730D0A000000000D0ACBD1CBF7D0C547
:1030D000BAC5CAA7B0DCA3ACD5FDD4DAD6D8C6F43D
:1030E000B5A5C6ACBBFA0D0A000000007C1F00208D
:1030F00041542B434F50533F000000001A3B002027
:10310000BCECB2E2D0C5BAC5B3C9B9A62025730DCF
:103110000A00000041542B4353510000B2E9D1AFE3
:10312000D0C5BAC5D6CAC1BFCAA7B0DC0D0A000057
:103130002B4353513A0000002B4353513A200000D7
:10314000D0C5BAC5D6CAC1BFA3BA25640D0A00004E
:103150002B43474154543A0041542B434741545464
:103160003F000000F2000020E400002041542B4307
:10317000495053544152543D22544350222C22254D
:1031800073222C2573000000BDA8C1A2544350B582
:10319000C4C1ACBDD3B3C9B9A60D0A00BDA8C1A2B4
:1031A000544350B5C4C1ACBDD3CAA7B0DC0D0A00AE
:1031B000434F4E4E454354204F4B000041542B4348
:1031C000495053544154555300000000B5B1C7B0A5
:1031D000C1ACBDD3D7B4CCAC3A434F4E4E45434BB4
:1031E000204F4B0D0A000000434C4F534500000098
:1031F000B5B1C7B0C1ACBDD3D7B4CCAC3A495020FF
:10320000434C4F53450D0A0047505253414354001D
:10321000B5B1C7B0C1ACBDD3D7B4CCAC3A475052AE
:10322000534143540D0A0000494E495449414C0052
:10323000B5B1C7B0C1ACBDD3D7B4CCAC3A494E4997
:103240005449414C0D0A0000B5B1C7B0C1ACBDD363
:10325000D7B4CCAC3ACEB4D6AA0D0A00544350C170
:10326000ACBDD3B3C9B9A60D0A000000544350C188
:10327000ACBDD3CAA7B0DC0D0A000000F7000020E7
:10328000F8000020544350C1ACBDD3B3F6CFD6D222
:10329000ECB3A32E2E2E25630D0A00007EA007F0AE
:1032A0004FFBFFF781FA322004F021FFFFF775FE94
:1032B000071E7FF4C9AE7F4B32467FA1824807F0DC
:1032C0004BFB8149AFF2082007F03AFB7E4807F03C
:1032D0004AFD85B22946AFF2D06007F031FB7A484B
:1032E0007A4B7B4A7B49CDE900507B4807F034FBA1
:1032F00041F2883279A17AA0FFF72AF9002822D179
:1033000071497AA007F01CFB7349AFF24C20FFF71C
:10331000C0F80A2004F0EBFE41F28832AFF26811E7
:103320001A20FFF715F928B9FFF702F974A007F082
:1033300007FB15E001207549087075A007F000FB38
:103340004FF0FF370CE0002211461B20FFF700F979
:1033500001206E49087071A007F0F2FA4FF0FF37B4
:103360000020734908703846BDE8FC817CB5002612
:10337000002570A0FFF7BCF818B372A0FFF7B8F8EB
:103380000546F5B1002418E0281B00783E2812D12C
:10339000281B461C00202870142004F0A8FE0C20D6
:1033A000C8234FF496726421CDE900060A2004F088
:1033B00025FE30467CBD601C84B241F288308442D8
:1033C000E2DB0020F6E770B54FF6FF7000F05FFF1C
:1033D0005F48FFF72EFE051E03D15EA007F0B0FA8E
:1033E00002E05FA007F0ACFA4848007800283ED120
:1033F0004F48007800283AD15C49087000BF5B480C
:10340000007828B95A48008800F400400028F6D017
:10341000FFF7ACFF002824D000203C49087055A0DD
:1034200007F08EFA5748806808B3012411E0611E46
:1034300048B2FEF702F95448FFF7FBFD051E03D121
:1034400044A007F07DFA02E045A007F079FA601C7D
:1034500044B24C488068A042E9D2002049498860C3
:1034600005E001202949087048A007F069FA4FF4E7
:10347000FA62AFF2BC21AFF66030FFF769F805469B
:1034800025B9AFF65C3007F05BFA03E0AFF65830D1
:1034900007F056FA70BD0000544350C1ACBDD3B91B
:1034A000CAD5CF2E2E2ED7BCB1B8D6D8C6F40D0AA9
:1034B00000000000140100206C6F673D2573266B2F
:1034C00065793D25730000002A3B0020E4000020C0
:1034D000F9000020AC0F0108563C00203E0000001F
:1034E00041542B43495053454E44000043495053E7
:1034F000454E4420444154413A25730D0A000000D2
:10350000504F5354B3C9B9A60D0A0000F80000206B
:10351000504F5354CAA7B0DC0D0A0000504F53540B
:10352000CAA7B0DCA3ACC8A1CFFBB7A2CBCD00002B
:10353000F7000020485454502F312E3120323030C3
:10354000204F4B003C2F737472696E673E00000081
:10355000F0010020B7A2CBCDB3C9B9A60D0A000077
:10356000B7A2CBCDCAA7B0DC0D0A000052000020E4
:103570007C1F0020CAD5B5BDD5FDC8B7D3A6B4F011
:103580000D0A0000601F00204C010020CEB4CAD5F7
:10359000B5BDD5FDC8B7D3A6B4F00D0A0000000034
:1035A000F74908807047F649891C0880704708B5BC
:1035B000F348801C00880090BDF8000008BDF04A68
:1035C0001080921C1180704710B504462046FFF70A
:1035D000E7FF052004F067FDFFF7E9FF10BDE948AC
:1035E0000089E74908807047E549891C08807047D1
:1035F00030B5014601F01F04C1F34513CA0AE502C4
:1036000005EB43151544A8B230BD00BF011EA0F163
:103610000102D0B2FAD1704710B503460C46D94822
:10362000808849F24131884205D0D648808845F2E9
:103630001031884214D1D3494889FFF7B1FF1812DD
:10364000FFF7B1FFD8B2FFF7AEFFCE498889FFF789
:10365000A7FF2012FFF7A7FFE0B2FFF7A4FFABE040
:10366000C848808846F6040188421DD1C548807943
:10367000012804D1C3480088401EC01A83B2C14942
:103680004889FFF78DFF1812FFF78DFFD8B2FFF7BB
:103690008AFFBC498889FFF783FF2012FFF783FF69
:1036A000E0B2FFF780FF87E0B648808841F66311FB
:1036B000884247D1B3488079A8B9B2480088401EF3
:1036C000C01A83B2AF494889FFF76AFF0020FFF7AD
:1036D0006AFF0020FFF767FF1812FFF764FFD8B2F8
:1036E000FFF761FF16E0A7494889FFF759FF181255
:1036F000FFF759FFD8B2FFF756FFA2490988491EC4
:10370000C1F30F20FFF74FFF9E490978491EC8B249
:10371000FFF749FF9B498889FFF742FF2012FFF717
:1037200042FFE0B2FFF73FFF96494988491EC1F3C7
:103730000F20FFF738FF93498978491EC8B2FFF779
:1037400032FF39E08F48808845F21051884220D1FD
:103750008C494889FFF724FF1812FFF724FF894995
:103760004989491C88B2FFF71BFFD8B2FFF71BFF3E
:1037700084498889FFF714FF2012FFF714FF81495D
:103780008989491C88B2FFF70BFFE0B2FFF70BFFF6
:1037900012E07C488079012804D17A480088401ED4
:1037A000C01A83B2774948891946FFF708FF75495F
:1037B00088892146FFF703FF10BD2DE9F04105463A
:1037C0000E4600240027A0466E480088A84203DD6C
:1037D0006C484088B04202DC0020BDE8F0813146F0
:1037E0002846FFF719FF6748808849F2413188422F
:1037F00011D06448808846F6040188420BD06148A5
:10380000808845F21031884205D05E48808841F6B4
:103810006311884203D12E20FFF7C2FE0DE0594804
:10382000808845F21051884204D14FF43850FFF798
:10383000B7FE02E02220FFF7B3FE5248808849F22B
:103840002031884202D10220FFF7DFFEFFF7AFFEF2
:1038500004464C48808841F66311884201D12046D5
:10386000BBE70220FFF7D1FEFFF7A1FE0446454863
:10387000808849F2413188420BD04248808845F225
:103880001031884205D03F48808845F21051884267
:103890000AD10220FFF7B9FEFFF789FE8046E7B2A2
:1038A0004FF6FF7000EA07273648808849F2253135
:1038B000884216D03348808844F23551884210D06F
:1038C00030488088091F88420BD02E4880884BF2F0
:1038D0000551884205D02B4880884CF2055188421A
:1038E00001D1204679E72748808849F24131884252
:1038F0000BD02448808845F21031884205D02148F9
:10390000808845F21051884207D1E012C002B912F6
:1039100040EA411040EAE8205FE72046FFF768FEF2
:103920005BE700B51748808849F24131884211D0E1
:103930001448808846F6040188420BD011488088DC
:1039400045F21031884205D00E48808841F6631157
:10395000884203D12920FFF723FE0FE00948808821
:1039600045F21051884204D14FF42450FFF718FE5D
:1039700004E040F273110720FFF721FE00BD0000B4
:10398000FE07006C3E40002000B5FD48808849F2EB
:103990004131884211D0FA48808846F604018842B5
:1039A0000BD0F748808845F21031884205D0F448A2
:1039B000808841F66311884203D12820FFF7F0FD8B
:1039C0000EE0EF48808845F21051884204D14FF450
:1039D0002050FFF7E5FD03E000210720FFF7EFFD92
:1039E00000BD70B5044600230026E5488079012813
:1039F0000BD1E348808846F60401884205D0E048B0
:103A0000808841F66311884208D1DD488079F0B999
:103A1000DB48808841F66311884218D1082C15D202
:103A2000DFE804F00406080A0C0E101206240DE06C
:103A300007240BE0042409E0052407E0012405E045
:103A4000002403E0032401E0022400BF00BFCC48AF
:103A5000808849F24131884217D0C948808846F6AB
:103A60000401884211D0C648808845F2103188424E
:103A70000BD0C348808845F21051884205D0C04819
:103A8000808841F6631188427ED1082C1CD2DFE881
:103A900004F00406090C0F12151800BF14E043F0DF
:103AA000800311E043F040030EE043F0C0030BE05D
:103AB00043F0200308E043F0600305E043F0A00377
:103AC00002E043F0E00300BF00BFAD48808845F24C
:103AD0001051884202D14FF4585600E03626A848CB
:103AE000808845F2103188420DD0A548808845F283
:103AF0001051884207D0A248808841F6631188425D
:103B000001D043F008039E48808846F604018842AD
:103B100001D143F0020319463046FFF750FD9848A3
:103B2000808841F6631188421DD003F0200068B1FF
:103B30009348008892494988884214DA9048058859
:103B400040888F490880084645800CE08C480088F2
:103B50008B494988884206DD89480588408888491C
:103B60000880084645808648808845F21051884282
:103B700054D183494889FFF713FD0020FFF713FD57
:103B80007F494989491C00E077E088B2FFF708FDCA
:103B90000020FFF708FD7A494989891C88B2FFF7A0
:103BA000FFFC77490988491EC1F30F20FFF7FBFC92
:103BB00073494989C91C88B2FFF7F2FC704909783A
:103BC000491EC8B2FFF7EFFC6D498889FFF7E8FC92
:103BD0000020FFF7E8FC6A498989491C88B2FFF791
:103BE000DFFC0020FFF7DFFC65498989891C88B26A
:103BF000FFF7D6FC62494988491EC1F30F20FFF741
:103C0000D2FC5F498989C91C88B2FFF7C9FC5C49AD
:103C10008978491EC8B2FFF7C6FC55E05849488963
:103C2000FFF7BEFC0020FFF7BEFC0020FFF7BBFC47
:103C300053490988491EC1F30F20FFF7B4FC5049CE
:103C40000978491EC8B2FFF7AEFC4D498889FFF7D5
:103C5000A7FC0020FFF7A7FC0020FFF7A4FC4849C1
:103C60004988491EC1F30F20FFF79DFC444989781C
:103C7000491EC8B2FFF797FC26E0082C1CD2DFE8EB
:103C800004F004070A0D0F12151843F0300313E077
:103C900043F0100310E043F020030DE000BF0BE001
:103CA00043F0380308E043F0280305E043F018032D
:103CB00002E043F0080300BF00BF032643F4805333
:103CC00019463046FFF77BFC70BD30B504460D4603
:103CD00029462046FFF7A0FCFFF781FC2948008811
:103CE0002949088030BD30B503460C4615462448A6
:103CF000808849F24131884205D02148808845F2C8
:103D00001031884214D11E494889FFF749FC181226
:103D1000FFF749FCD8B2FFF746FC19498889FFF73D
:103D20003FFC2012FFF73FFCE0B2FFF73CFC93E0C2
:103D30001348808845F21051884227D1104948899C
:103D4000FFF72EFC1812FFF72EFC0D494989491C7C
:103D500088B2FFF725FCD8B2FFF725FC084988890F
:103D6000FFF71EFC2012FFF71EFC05498989491C3C
:103D700088B2FFF715FCE0B2FFF715FC6CE000001D
:103D80003E400020280100200008006CFC4880888C
:103D900041F66311884228D1F948807920B9F84862
:103DA0000088401EC01A83B2F5494889FFF7F8FB26
:103DB0001812FFF7F8FBD8B2FFF7F5FB1812FFF760
:103DC000F2FBD8B2FFF7EFFBED498889FFF7E8FB7C
:103DD0002012FFF7E8FBE0B2FFF7E5FB2012FFF748
:103DE000E2FBE0B2FFF7DFFB36E0E548808846F60D
:103DF000040188421DD1E2488079012804D1E048BD
:103E00000088401EC01A83B2DD494889FFF7C8FB0D
:103E10001812FFF7C8FBD8B2FFF7C5FBD84988894D
:103E2000FFF7BEFB2012FFF7BEFBE0B2FFF7BBFBC4
:103E300012E0D3488079012804D1D1480088401E7F
:103E4000C01A83B2CE4948891946FFF7B8FBCC495E
:103E500088892146FFF7B3FBC9480089C949088012
:103E6000881C058030BD2DE9F0470446BE20FFF7D1
:103E700097FB0520FFF797FB20460AF0DDFE07467B
:103E80004FF06632C04B0AF027FF05460AF090FE5D
:103E90001FFA80F94846FFF786FB0120FFF783FBF6
:103EA000FF20FFF780FB0020FFF77DFB0020FFF7DE
:103EB0007AFBBDE8F08710B50446002C66D1B04906
:103EC0008871F02008804FF4A070488008468088F0
:103ED00049F2413188420BD0A948808846F6040156
:103EE000884205D0A648808845F2103188421AD110
:103EF0002C20A34908812A2048812B20888108464C
:103F0000808846F60401884205D09D48808845F2A5
:103F10001031884206D14FF4A070994908804FF4BF
:103F2000F0704880A1E09648808845F210518842A0
:103F300010D14FF43050924908814FF428504881F5
:103F40004FF42C5088814FF4F07008804FF4487083
:103F500048808AE08A48808841F6631188420DD102
:103F60002C20874908812B2048812A2088814FF402
:103F7000F07008804FF44870488076E02220804935
:103F8000088120204881212088816EE001207C4921
:103F900088714FF4A0700880F0204880084680881F
:103FA00049F24131884205D07548808845F2103188
:103FB000884207D12C20724908812A2048812B2071
:103FC00088813FE06E48808846F60401884207D128
:103FD0002C206B4908812B2048812A20888131E0E0
:103FE0006748808845F21051884210D14FF4305014
:103FF000634908814FF4285048814FF42C50888140
:104000004FF4487008804FF4F07048801AE05C4824
:10401000808841F6631188420DD12C2058490881CF
:104020002A2048812B2088814FF4487008804FF463
:10403000F070488006E02220514908812120488103
:10404000202088814E48808846F60401884205D0A9
:104050004B48808845F21031884206D14FF4F07009
:10406000474908804FF4A07048800020FFF7B9FC52
:1040700010BD2DE9F04F86B004460D469046994696
:1040800004EB0800401E86B205EB0900401E87B213
:104090003B48808849F24131884215D038488088B1
:1040A00045F2103188420FD03548808846F6040129
:1040B000884209D032488079012826D1304880884A
:1040C00041F66311884220D12D494889FFF768FAEB
:1040D0002012FFF768FAE0B2FFF765FA3012FFF737
:1040E00062FAF0B2FFF75FFA25498889FFF758FABC
:1040F0002812FFF758FAE8B2FFF755FA3812FFF71F
:1041000052FAF8B2FFF74FFABEE01D48808841F638
:10411000631188423AD11A480088A0EB0800001BBE
:1041200084B205EB0900401E1FFA80F91449488942
:10413000FFF736FA2012FFF736FAE0B2FFF733FA4C
:1041400004EB0801491EC1F30F20FFF72CFA04EB22
:104150000801491EC8B2FFF726FA09498889FFF706
:104160001FFA2812FFF71FFAE8B2FFF71CFA4FEA0E
:104170002920FFF718FA09F0FF00FFF714FA83E08F
:104180003E400020FE07006C66660440FE488088C2
:1041900045F21051884244D1FB494889FFF700FAA3
:1041A0002012FFF700FAF8494989491C88B2FFF745
:1041B000F7F9E0B2FFF7F7F9F3494989891C88B2AA
:1041C000FFF7EEF93012FFF7EEF9EF494989C91C04
:1041D00088B2FFF7E5F9F0B2FFF7E5F9EA49888917
:1041E000FFF7DEF92812FFF7DEF9E7498989491C54
:1041F00088B2FFF7D5F9E8B2FFF7D5F9E249898926
:10420000891C88B2FFF7CCF93812FFF7CCF9DE49E8
:104210008989C91C88B2FFF7C3F9F8B2FFF7C3F95F
:1042200032E0D948807901280ED1AA46BB46D6484B
:104230000088801B401E80B20190D3480088001B7C
:10424000401E80B2009003E0A246B346019500975D
:10425000502005905120049052200390532002904A
:1042600051460598FFF7ABF959460498FFF7A7F9AF
:1042700001990398FFF7A3F900990298FFF79FF9B6
:1042800029462046FFF7C8F906B0BDE8F08F70B5A3
:1042900004460026BC48058840884543BA488088C3
:1042A00046F60401884216D1B7488079012812D118
:1042B0000020B54988712A2048812B20888100215F
:1042C0000846FFF7A9F90120AF4988712B204881E2
:1042D0002A20888103E000210846FFF79DF9FFF7B7
:1042E0007EF9002602E0A9480480761CAE42FAD38B
:1042F00070BD00B59FB00121080204F062FB0121EE
:104300004FF4B47004F06AFB0120ADF8780010207F
:104310008DF87B0003208DF87A001EA99C4804F0DC
:10432000A1F84CF23370ADF8780018208DF87B00BE
:1043300003208DF87A001EA9964804F093F84FF6F2
:104340008070ADF8780018208DF87B0003208DF880
:104350007A001EA9904804F085F841F20100ADF8FA
:10436000780018208DF87B0003208DF87A001EA9B4
:104370008A4804F077F801200890002009900F2067
:104380000A9000200B900C900D900E9001900290DE
:1043900003200390002004900590069007900620CB
:1043A0000F90002010901190102012900020139078
:1043B00015901490169017904FF48050189000208C
:1043C00019904FF480401A9000201B9008A81C9070
:1043D00001A81D900FA805F0E5FF0121062006F0B9
:1043E00049F9322003F083FE0020FFF7EDF866491B
:1043F000888008468088FF280ADB084680884FF6B8
:10440000FF71884204D060488088B0F5134F7CD19A
:10441000D320FFF7C5F8FFF7CAF85B498880FFF79C
:10442000C6F859498880FFF7C2F85749888008467E
:1044300080884FF6FF7101EA002053498880FFF71A
:10444000B6F85149898808434F49888008468088D2
:1044500049F24131884258D0BF20FFF7A1F8FFF759
:10446000A6F849498880FFF7A2F847498880FFF7F6
:104470009EF845498880FFF79AF8434988800846A6
:1044800080884FF6FF7101EA00203F498880FFF7DE
:104490008EF83D49898808433B49888008468088D2
:1044A00046F60401884230D0D420FFF779F8FFF7B0
:1044B0007EF835498880FFF77AF833498880FFF71E
:1044C00076F831498880084680884FF6FF7101EA06
:1044D00000202D498880FFF76AF82B498988084316
:1044E000294988800846808845F21031884263D087
:1044F0004FF45A40FFF754F8FFF759F822498880E3
:104500004FF45B40FFF74CF800E055E0FFF74FF841
:104510001D498880084680884FF6FF7101EA002017
:10452000194988804FF45C40FFF73AF8FFF73FF8ED
:104530001549898808431449888008468088B0F561
:10454000004F02D145F2105088800F48808845F214
:104550001051884230D0A120FFF722F8FFF727F84A
:1045600009498880FFF723F8074988800846808832
:104570004FF6FF7101EA002003498880FFF717F822
:104580000149898808430BE03E4000200008006C88
:10459000000C0140001401400018014000200140BF
:1045A000FE4988800846808845F26171884203D1BF
:1045B00041F66310F9498880F8488188F8A006F030
:1045C000BFF9F648808849F2413188427ED1CF2038
:1045D000FEF7E6FF0020FEF7E6FFC120FEF7E3FF4F
:1045E0003020FEF7E0FFED20FEF7DAFF6420FEF753
:1045F000DAFF0320FEF7D7FF1220FEF7D4FF812059
:10460000FEF7D1FFE820FEF7CBFF8520FEF7CBFFBA
:104610001020FEF7C8FF7A20FEF7C5FFCB20FEF77B
:10462000BFFF3920FEF7BFFF2C20FEF7BCFF0020A4
:10463000FEF7B9FF3420FEF7B6FF0220FEF7B3FF06
:10464000F720FEF7ADFF2020FEF7ADFFEA20FEF7D2
:10465000A7FF0020FEF7A7FF0020FEF7A4FFC02061
:10466000FEF79EFF1B20FEF79EFFC120FEF798FF7E
:104670000120FEF798FFC520FEF792FF3020FEF7DD
:1046800092FF3020FEF78FFFC720FEF789FFB7208B
:10469000FEF789FF3620FEF783FF4820FEF783FFF1
:1046A0003A20FEF77DFF5520FEF77DFFB120FEF793
:1046B00077FF0020FEF777FF1A20FEF774FFB62081
:1046C000FEF76EFF0A20FEF76EFF00E097E0A220E3
:1046D000FEF769FFF220FEF763FF0020FEF763FF9D
:1046E0002620FEF75DFF0120FEF75DFFE020FEF7CC
:1046F00057FF0F20FEF757FF2A20FEF754FF282010
:10470000FEF751FF0820FEF74EFF0E20FEF74BFF8D
:104710000820FEF748FF5420FEF745FFA920FEF7CA
:1047200042FF4320FEF73FFF0A20FEF73CFF0F2029
:10473000FEF739FF0020FEF736FF0020FEF733FFBB
:104740000020FEF730FF0020FEF72DFFE120FEF7EE
:1047500027FF0020FEF727FF1520FEF724FF172074
:10476000FEF721FF0720FEF71EFF1120FEF71BFFBB
:104770000620FEF718FF2B20FEF715FF5620FEF748
:1047800012FF3C20FEF70FFF0520FEF70CFF102064
:10479000FEF709FF0F20FEF706FF3F20FEF703FF9D
:1047A0003F20FEF700FF0F20FEF7FDFE2B20FEF757
:1047B000F7FE0020FEF7F7FE0020FEF7F4FE0120D2
:1047C000FEF7F1FE3F20FEF7EEFE2A20FEF7E8FEA0
:1047D0000020FEF7E8FE0020FEF7E5FE0020FEF7D1
:1047E000E2FEEF20FEF7DFFE1120FEF7D9FE782073
:1047F00003F07DFC2920FEF7D3FE03F025B96748BE
:10480000808846F6040188427ED11120FEF7C8FE5A
:10481000142003F06CFCD020FEF7C2FE0720FEF748
:10482000C2FE4220FEF7BFFE1D20FEF7BCFED120D7
:10483000FEF7B6FE0020FEF7B6FE1A20FEF7B3FE26
:104840000920FEF7B0FED220FEF7AAFE0120FEF7F7
:10485000AAFE2220FEF7A7FEC020FEF7A1FE102030
:10486000FEF7A1FE3B20FEF79EFE0020FEF79BFE1A
:104870000220FEF798FE1120FEF795FEC520FEF7F8
:104880008FFE0320FEF78FFEC820FEF789FE002072
:10489000FEF789FE2520FEF786FE2120FEF783FE27
:1048A0000520FEF780FE0020FEF77DFE0A20FEF7C1
:1048B0007AFE6520FEF777FE2520FEF774FE77204E
:1048C000FEF771FE5020FEF76EFE0F20FEF76BFE26
:1048D0000020FEF768FEF820FEF762FE0120FEF7DA
:1048E00062FEFE20FEF75CFE0020FEF75CFE02206A
:1048F000FEF759FE2020FEF753FE3620FEF750FE4D
:104900000820FEF750FE00E02AE03A20FEF748FEBD
:104910005520FEF748FE2B20FEF742FE0020FEF752
:1049200042FE0020FEF73FFE0120FEF73CFE3F2046
:10493000FEF739FE2A20FEF733FE0020FEF733FE95
:104940000020FEF730FE0120FEF72DFEDF20FEF7EF
:104950002AFE782003F0CBFB2920FEF721FE4CE74E
:104960000E48808845F21031884240F08487ED205F
:10497000FEF716FE0120FEF716FEFE20FEF713FEE0
:10498000EE20FEF70DFEDE20FEF70DFE2120FEF7E5
:104990000AFEF120FEF704FE012009E03E4000205F
:1049A000204C43442049443A25780D0A0000000079
:1049B000FEF7F9FDDF20FEF7F3FD1020FEF7F3FD13
:1049C000C420FEF7EDFD8F20FEF7EDFDC620FEF7BB
:1049D000E7FD0020FEF7E7FDE220FEF7E4FDE22020
:1049E000FEF7E1FDE220FEF7DEFDBF20FEF7D8FD79
:1049F000AA20FEF7D8FDB020FEF7D2FD0D20FEF76D
:104A0000D2FD0020FEF7CFFD0D20FEF7CCFD0020EB
:104A1000FEF7C9FD1120FEF7C6FD0020FEF7C3FD1D
:104A20001920FEF7C0FD0020FEF7BDFD2120FEF796
:104A3000BAFD0020FEF7B7FD2D20FEF7B4FD0020E3
:104A4000FEF7B1FD3D20FEF7AEFD0020FEF7ABFD09
:104A50005D20FEF7A8FD0020FEF7A5FD5D20FEF716
:104A6000A2FD0020FEF79FFDB120FEF799FD8020FA
:104A7000FEF799FD0020FEF796FD8B20FEF793FDD3
:104A80000020FEF790FD9620FEF78DFD0020FEF73A
:104A90008AFDB220FEF784FD0020FEF784FD002091
:104AA000FEF781FD0220FEF77EFD0020FEF77BFD74
:104AB0000320FEF778FD0020FEF775FDB320FEF71A
:104AC0006FFD0020FEF76FFD0020FEF76CFD00205B
:104AD000FEF769FD0020FEF766FD0020FEF763FD8E
:104AE0000020FEF760FD0020FEF75DFD0020FEF7D0
:104AF0005AFD0020FEF757FD0020FEF754FD002070
:104B0000FEF751FD0020FEF74EFD0020FEF74BFDA5
:104B10000020FEF748FD0020FEF745FD0020FEF7CF
:104B200042FD0020FEF73FFD0020FEF73CFD002087
:104B3000FEF739FD0020FEF736FD0020FEF733FDBD
:104B40000020FEF730FD0020FEF72DFD0020FEF7CF
:104B50002AFDB420FEF724FD8B20FEF724FD002063
:104B6000FEF721FD9620FEF71EFD0020FEF71BFD3F
:104B7000A120FEF718FD0020FEF715FDB520FEF779
:104B80000FFD0220FEF70FFD0020FEF70CFD0320B5
:104B9000FEF709FD0020FEF706FD0420FEF703FDE9
:104BA0000020FEF700FDB620FEF7FAFC0020FEF71D
:104BB000FAFC0020FEF7F7FCB720FEF7F1FC00201E
:104BC000FEF7F1FC0020FEF7EEFC3F20FEF7EBFCC9
:104BD0000020FEF7E8FC5E20FEF7E5FC0020FEF773
:104BE000E2FC6420FEF7DFFC0020FEF7DCFC8C20FA
:104BF000FEF7D9FC0020FEF7D6FCAC20FEF7D3FC74
:104C00000020FEF7D0FCDC20FEF7CDFC0020FEF7F4
:104C1000CAFC7020FEF7C7FC0020FEF7C4FC902001
:104C2000FEF7C1FC0020FEF7BEFCEB20FEF7BBFC4C
:104C30000020FEF7B8FCDC20FEF7B5FC0020FEF7F4
:104C4000B2FCB820FEF7ACFC0020FEF7ACFC002064
:104C5000FEF7A9FC0020FEF7A6FC0020FEF7A3FC4F
:104C60000020FEF7A0FC0020FEF79DFC0020FEF7D0
:104C70009AFC0020FEF797FCBA20FEF791FC242056
:104C8000FEF791FC0020FEF78EFC0020FEF78BFC67
:104C90000020FEF788FCC120FEF782FC2020FEF7F2
:104CA00082FC0020FEF77FFC5420FEF77CFC0020F5
:104CB000FEF779FCFF20FEF776FC0020FEF773FC80
:104CC000C220FEF76DFC0A20FEF76DFC0020FEF707
:104CD0006AFC0420FEF767FC0020FEF764FCC3209A
:104CE000FEF75EFC3C20FEF75EFC0020FEF75BFC5E
:104CF0003A20FEF758FC0020FEF755FC3920FEF75D
:104D000052FC0020FEF74FFC3720FEF74CFC002041
:104D1000FEF749FC3C20FEF746FC0020FEF743FC72
:104D20003620FEF740FC0020FEF73DFC3220FEF767
:104D30003AFC0020FEF737FC2F20FEF734FC002061
:104D4000FEF731FC2C20FEF72EFC0020FEF72BFC9A
:104D50002920FEF728FC0020FEF725FC2620FEF780
:104D600022FC0020FEF71FFC2420FEF71CFC002084
:104D7000FEF719FC2420FEF716FC0020FEF713FCBA
:104D80002320FEF710FC0020FEF70DFC3C20FEF770
:104D90000AFC0020FEF707FC3620FEF704FC00208A
:104DA000FEF701FC3220FEF7FEFB0020FEF7FBFBC6
:104DB0002F20FEF7F8FB0020FEF7F5FB2C20FEF776
:104DC000F2FB0020FEF7EFFB2920FEF7ECFB0020B2
:104DD000FEF7E9FB2620FEF7E6FB0020FEF7E3FBEB
:104DE0002420FEF7E0FB0020FEF7DDFB2420FEF789
:104DF000DAFB0020FEF7D7FB2320FEF7D4FB0020D0
:104E0000FEF7D1FBC420FEF7CBFB6220FEF7CBFB05
:104E10000020FEF7C8FB0520FEF7C5FB0020FEF7CB
:104E2000C2FB8420FEF7BFFB0020FEF7BCFBF02096
:104E3000FEF7B9FB0020FEF7B6FB1820FEF7B3FB28
:104E40000020FEF7B0FBA420FEF7ADFB0020FEF72C
:104E5000AAFB1820FEF7A7FB0020FEF7A4FB5020BA
:104E6000FEF7A1FB0020FEF79EFB0C20FEF79BFB4C
:104E70000020FEF798FB1720FEF795FB0020FEF7B9
:104E800092FB9520FEF78FFB0020FEF78CFBF320B2
:104E9000FEF789FB0020FEF786FBE620FEF783FB8A
:104EA0000020FEF780FBC520FEF77AFB3220FEF7DC
:104EB0007AFB0020FEF777FB4420FEF774FB00200E
:104EC000FEF771FB6520FEF76EFB0020FEF76BFB23
:104ED0007620FEF768FB0020FEF765FB8820FEF7D2
:104EE00062FB0020FEF75FFBC620FEF759FB202087
:104EF000FEF759FB0020FEF756FB1720FEF753FB89
:104F00000020FEF750FB0120FEF74DFB0020FEF7CE
:104F10004AFBC720FEF744FB0020FEF744FB0020BD
:104F2000FEF741FB0020FEF73EFB0020FEF73BFBB7
:104F3000C820FEF735FB0020FEF735FB0020FEF70A
:104F400032FB0020FEF72FFB0020FEF72CFBC920D0
:104F5000FEF726FB0020FEF726FB0020FEF723FBD2
:104F60000020FEF720FB0020FEF71DFB0020FEF7CF
:104F70001AFB0020FEF717FB0020FEF714FB0020B1
:104F8000FEF711FB0020FEF70EFB0020FEF70BFBE7
:104F90000020FEF708FB0020FEF705FB0020FEF7CF
:104FA00002FB0020FEF7FFFA0020FEF7FCFA0020CB
:104FB000FEF7F9FAE020FEF7F3FA1620FEF7F3FA0F
:104FC0000020FEF7F0FA1C20FEF7EDFA0020FEF7B5
:104FD000EAFA2120FEF7E7FA0020FEF7E4FA36208D
:104FE000FEF7E1FA0020FEF7DEFA4620FEF7DBFAD4
:104FF0000020FEF7D8FA5220FEF7D5FA0020FEF77F
:10500000D2FA6420FEF7CFFA0020FEF7CCFA7A201D
:10501000FEF7C9FA0020FEF7C6FA8B20FEF7C3FAA6
:105020000020FEF7C0FA9920FEF7BDFA0020FEF737
:10503000BAFAA820FEF7B7FA0020FEF7B4FAB920B2
:10504000FEF7B1FA0020FEF7AEFAC420FEF7ABFA85
:105050000020FEF7A8FACA20FEF7A5FA0020FEF706
:10506000A2FAD220FEF79FFA0020FEF79CFAD92080
:10507000FEF799FA0020FEF796FAE020FEF793FA81
:105080000020FEF790FAF320FEF78DFA0020FEF7DD
:105090008AFAE120FEF784FA1620FEF784FA00204F
:1050A000FEF781FA1C20FEF77EFA0020FEF77BFA5D
:1050B0002220FEF778FA0020FEF775FA3620FEF778
:1050C00072FA0020FEF76FFA4520FEF76CFA002016
:1050D000FEF769FA5220FEF766FA0020FEF763FA3F
:1050E0006420FEF760FA0020FEF75DFA7A20FEF7F2
:1050F0005AFA0020FEF757FA8B20FEF754FA0020E8
:10510000FEF751FA9920FEF74EFA0020FEF74BFA0F
:10511000A820FEF748FA0020FEF745FAB920FEF76E
:1051200042FA0020FEF73FFAC420FEF73CFA0020C6
:10513000FEF739FACA20FEF736FA0020FEF733FAF6
:10514000D220FEF730FA0020FEF72DFAD820FEF725
:105150002AFA0020FEF727FAE020FEF724FA0020C2
:10516000FEF721FAF320FEF71EFA0020FEF71BFAE5
:10517000E220FEF715FA0520FEF715FA0020FEF7EB
:1051800012FA0B20FEF70FFA0020FEF70CFA1B2094
:10519000FEF709FA0020FEF706FA3420FEF703FABC
:1051A0000020FEF700FA4420FEF7FDF90020FEF78C
:1051B000FAF94F20FEF7F7F90020FEF7F4F9612025
:1051C000FEF7F1F90020FEF7EEF97920FEF7EBF992
:1051D0000020FEF7E8F98820FEF7E5F90020FEF749
:1051E000E2F99720FEF7DFF90020FEF7DCF9A620B0
:1051F000FEF7D9F90020FEF7D6F9B720FEF7D3F96C
:105200000020FEF7D0F9C220FEF7CDF90020FEF70E
:10521000CAF9C720FEF7C7F90020FEF7C4F9D1206C
:10522000FEF7C1F90020FEF7BEF9D620FEF7BBF964
:105230000020FEF7B8F9DD20FEF7B5F90020FEF7F3
:10524000B2F9F320FEF7AFF90020FEF7ACF9E32046
:10525000FEF7A6F90520FEF7A6F90020FEF7A3F950
:105260000A20FEF7A0F90020FEF79DF91C20FEF7AA
:105270009AF90020FEF797F93320FEF794F9002001
:10528000FEF791F94420FEF78EF90020FEF78BF926
:105290005020FEF788F90020FEF785F96220FEF71E
:1052A00082F90020FEF77FF97820FEF77CF90020D4
:1052B000FEF779F98820FEF776F90020FEF773F9FA
:1052C0009720FEF770F90020FEF76DF9A620FEF793
:1052D0006AF90020FEF767F9B720FEF764F90020AD
:1052E000FEF761F9C220FEF75EF90020FEF75BF9D8
:1052F000C720FEF758F90020FEF755F9D120FEF738
:1053000052F90020FEF74FF9D520FEF74CF90020A6
:10531000FEF749F9DD20FEF746F90020FEF743F9D4
:10532000F320FEF740F90020FEF73DF9E420FEF7F8
:1053300037F90120FEF737F90020FEF734F9012094
:10534000FEF731F90020FEF72EF90220FEF72BF9C7
:105350000020FEF728F92A20FEF725F90020FEF7A5
:1053600022F93C20FEF71FF90020FEF71CF94B2024
:10537000FEF719F90020FEF716F95D20FEF713F984
:105380000020FEF710F97420FEF70DF90020FEF75B
:105390000AF98420FEF707F90020FEF704F99320AC
:1053A000FEF701F90020FEF7FEF8A220FEF7FBF859
:1053B0000020FEF7F8F8B320FEF7F5F80020FEF71E
:1053C000F2F8BE20FEF7EFF80020FEF7ECF8C4205C
:1053D000FEF7E9F80020FEF7E6F8CD20FEF7E3F847
:1053E0000020FEF7E0F8D320FEF7DDF80020FEF7FE
:1053F000DAF8DD20FEF7D7F80020FEF7D4F8F32026
:10540000FEF7D1F80020FEF7CEF8E520FEF7C8F849
:105410000020FEF7C8F80020FEF7C5F80020FEF7D0
:10542000C2F80020FEF7BFF80220FEF7BCF800200B
:10543000FEF7B9F82920FEF7B6F80020FEF7B3F81A
:105440003C20FEF7B0F80020FEF7ADF84B20FEF749
:10545000AAF80020FEF7A7F85D20FEF7A4F80020C8
:10546000FEF7A1F87420FEF79EF80020FEF79BF8E7
:105470008420FEF798F80020FEF795F89320FEF7B9
:1054800092F80020FEF78FF8A220FEF78CF800209B
:10549000FEF789F8B320FEF786F80020FEF783F8C0
:1054A000BE20FEF780F80020FEF77DF8C420FEF74E
:1054B0007AF80020FEF777F8CD20FEF774F8002088
:1054C000FEF771F8D320FEF76EF80020FEF76BF8B8
:1054D000DC20FEF768F80020FEF765F8F320FEF701
:1054E00062F80020FEF75FF8E620FEF759F8112079
:1054F000FEF759F80020FEF756F83420FEF753F86F
:105500000020FEF750F85620FEF74DF80020FEF779
:105510004AF87620FEF747F80020FEF744F8772097
:10552000FEF741F80020FEF73EF86620FEF73BF854
:105530000020FEF738F88820FEF735F80020FEF747
:1055400032F89920FEF72FF80020FEF72CF8BB2048
:10555000FEF729F80020FEF726F89920FEF723F839
:105560000020FEF720F86620FEF71DF80020FEF769
:105570001AF85520FEF717F80020FEF714F855200A
:10558000FEF711F80020FEF70EF84520FEF70BF8A5
:105590000020FEF708F84320FEF705F80020FEF78C
:1055A00002F84420FDF7FFFF0020FDF7FCFFE72095
:1055B000FDF7F6FF3220FDF7F6FF0020FDF7F3FFC1
:1055C0005520FDF7F0FF0020FDF7EDFF7620FDF7F9
:1055D000EAFF0020FDF7E7FF6620FDF7E4FF00206B
:1055E000FDF7E1FF6720FDF7DEFF0020FDF7DBFFA1
:1055F0006720FDF7D8FF0020FDF7D5FF8720FDF7D6
:10560000D2FF0020FDF7CFFF9920FDF7CCFF00204F
:10561000FDF7C9FFBB20FDF7C6FF0020FDF7C3FF64
:105620009920FDF7C0FF0020FDF7BDFF7720FDF7B3
:10563000BAFF0020FDF7B7FF4420FDF7B4FF0020BC
:10564000FDF7B1FF5620FDF7AEFF0020FDF7ABFFE1
:105650002320FDF7A8FF0020FDF7A5FF3320FDF76D
:10566000A2FF0020FDF79FFF4520FDF79CFF0020D3
:10567000FDF799FFE820FDF793FF0020FDF793FF6A
:105680000020FDF790FF9920FDF78DFF0020FDF72A
:105690008AFF8720FDF787FF0020FDF784FF882021
:1056A000FDF781FF0020FDF77EFF7720FDF77BFFF0
:1056B0000020FDF778FF6620FDF775FF0020FDF75D
:1056C00072FF8820FDF76FFF0020FDF76CFFAA2016
:1056D000FDF769FF0020FDF766FFBB20FDF763FFC4
:1056E0000020FDF760FF9920FDF75DFF0020FDF72A
:1056F0005AFF6620FDF757FF0020FDF754FF5520A5
:10570000FDF751FF0020FDF74EFF5520FDF74BFF41
:105710000020FDF748FF4420FDF745FF0020FDF77E
:1057200042FF4420FDF73FFF0020FDF73CFF5520DE
:10573000FDF739FF0020FDF736FFE920FDF730FFC8
:10574000AA20FDF730FF0020FDF72DFF0020FDF718
:105750002AFF0020FDF727FF0020FDF721FFAA20E8
:10576000FDF721FFCF20FDF71BFF0020FDF71BFFFA
:105770000020FDF718FF0020FDF715FF0020FDF7C2
:1057800012FF0020FDF70FFF0020FDF70CFF0020A7
:10579000FDF709FF0020FDF706FF0020FDF703FFDE
:1057A0000020FDF700FF0020FDF7FDFE0020FDF7C3
:1057B000FAFE0020FDF7F7FE0020FDF7F4FE0020C2
:1057C000FDF7F1FE0020FDF7EEFE0020FDF7EBFEF9
:1057D000F020FDF7E5FE0020FDF7E5FE5020FDF787
:1057E000E2FE0020FDF7DFFE0020FDF7DCFE0020DA
:1057F000FDF7D9FEF320FDF7D3FE0020FDF7D3FE21
:10580000F920FDF7CDFE0620FDF7CDFE1020FDF7B7
:10581000CAFE2920FDF7C7FE0020FDF7C4FE3A208E
:10582000FDF7BEFE5520FDF7BEFE1120FDF7B8FEC8
:10583000642002F05CFC2920FDF7B2FE3520FDF764
:10584000AFFE0020FDF7AFFE5120FDF7A9FEFF20BF
:10585000FDF7A9FE5320FDF7A3FE2C20FDF7A3FEC4
:105860005520FDF79DFE8220FDF79DFE2C20FDF7C3
:1058700097FE02F0E9B8FE48808845F21051884250
:105880007ED155214FF47040FDF799FEAA214FF2C9
:105890000100FDF794FE52214FF20200FDF78FFE4A
:1058A00008214FF20300FDF78AFE01214FF20400A8
:1058B000FDF785FE0D214FF43040FDF780FE0D21F0
:1058C0004BF20100FDF77BFE0D214BF20200FDF7CC
:1058D00076FE34214FF43640FDF771FE34214BF251
:1058E0000160FDF76CFE34214BF20260FDF767FEAC
:1058F0000D214FF43140FDF762FE0D214BF20110F6
:10590000FDF75DFE0D214BF20210FDF758FE34212C
:105910004FF43740FDF753FE34214BF20170FDF791
:105920004EFE34214BF20270FDF749FE00214FF488
:105930003240FDF744FE00214BF20120FDF73FFE0F
:1059400000214BF20220FDF73AFE24214FF43840AB
:10595000FDF735FE24214BF60100FDF730FE242132
:105960004BF60200FDF72BFE01214FF43F40FDF7FF
:1059700026FE0F214FF43340FDF721FE0F2100E0FA
:10598000FEE34BF20130FDF71AFE0F214BF202301D
:10599000FDF715FE34214FF43940FDF710FE342198
:1059A0004BF60110FDF70BFE34214BF60210FDF70C
:1059B00006FE08214FF43540FDF701FE08214BF2A9
:1059C0000150FDF7FCFD08214BF20250FDF7F7FDF9
:1059D00003214FF44240FDF7F2FD24214FF43A40F9
:1059E000FDF7EDFD24214BF60120FDF7E8FD242114
:1059F0004BF60220FDF7E3FD00214FF43C40FDF79C
:105A0000DEFD78214BF60140FDF7D9FD00214BF674
:105A10000240FDF7D4FD00214FF43D40FDF7CFFDDE
:105A200078214BF60150FDF7CAFD00214BF60250DC
:105A3000FDF7C5FD00214FF43E40FDF7C0FD642198
:105A40004BF60160FDF7BBFD00214FF45140FDF71F
:105A5000B6FD33214DF20110FDF7B1FD00214DF2ED
:105A60000210FDF7ACFD34214DF20310FDF7A7FD48
:105A700000214DF20410FDF7A2FD3A214DF2051070
:105A8000FDF79DFD00214DF20610FDF798FD4A211E
:105A90004DF20710FDF793FD00214DF20810FDF7C0
:105AA0008EFD5C214DF20910FDF789FD00214DF2BC
:105AB0000A10FDF784FD81214DF20B10FDF77FFDEB
:105AC00000214DF20C10FDF77AFDA6214DF20D10CC
:105AD000FDF775FD00214DF20E10FDF770FDE5217B
